{
  "contractName": "BaseCollection",
  "abi": [
    {
      "constant": true,
      "inputs": [
        {
          "name": "addr",
          "type": "address"
        },
        {
          "name": "roleName",
          "type": "string"
        }
      ],
      "name": "checkRole",
      "outputs": [],
      "payable": false,
      "stateMutability": "view",
      "type": "function"
    },
    {
      "constant": true,
      "inputs": [],
      "name": "karmaCoin",
      "outputs": [
        {
          "name": "",
          "type": "address"
        }
      ],
      "payable": false,
      "stateMutability": "view",
      "type": "function"
    },
    {
      "constant": true,
      "inputs": [
        {
          "name": "addr",
          "type": "address"
        },
        {
          "name": "roleName",
          "type": "string"
        }
      ],
      "name": "hasRole",
      "outputs": [
        {
          "name": "",
          "type": "bool"
        }
      ],
      "payable": false,
      "stateMutability": "view",
      "type": "function"
    },
    {
      "constant": true,
      "inputs": [],
      "name": "scholarshipContract",
      "outputs": [
        {
          "name": "",
          "type": "address"
        }
      ],
      "payable": false,
      "stateMutability": "view",
      "type": "function"
    },
    {
      "constant": true,
      "inputs": [],
      "name": "ROLE_PARTNER",
      "outputs": [
        {
          "name": "",
          "type": "string"
        }
      ],
      "payable": false,
      "stateMutability": "view",
      "type": "function"
    },
    {
      "constant": false,
      "inputs": [
        {
          "name": "addr",
          "type": "address"
        },
        {
          "name": "roleName",
          "type": "string"
        }
      ],
      "name": "adminRemoveRole",
      "outputs": [],
      "payable": false,
      "stateMutability": "nonpayable",
      "type": "function"
    },
    {
      "constant": true,
      "inputs": [],
      "name": "owner",
      "outputs": [
        {
          "name": "",
          "type": "address"
        }
      ],
      "payable": false,
      "stateMutability": "view",
      "type": "function"
    },
    {
      "constant": false,
      "inputs": [
        {
          "name": "addr",
          "type": "address"
        },
        {
          "name": "roleName",
          "type": "string"
        }
      ],
      "name": "adminAddRole",
      "outputs": [],
      "payable": false,
      "stateMutability": "nonpayable",
      "type": "function"
    },
    {
      "constant": true,
      "inputs": [],
      "name": "ROLE_ADMIN",
      "outputs": [
        {
          "name": "",
          "type": "string"
        }
      ],
      "payable": false,
      "stateMutability": "view",
      "type": "function"
    },
    {
      "constant": true,
      "inputs": [],
      "name": "gyanCoin",
      "outputs": [
        {
          "name": "",
          "type": "address"
        }
      ],
      "payable": false,
      "stateMutability": "view",
      "type": "function"
    },
    {
      "constant": false,
      "inputs": [
        {
          "name": "newOwner",
          "type": "address"
        }
      ],
      "name": "transferOwnership",
      "outputs": [],
      "payable": false,
      "stateMutability": "nonpayable",
      "type": "function"
    },
    {
      "inputs": [
        {
          "name": "_karma",
          "type": "address"
        },
        {
          "name": "_gyan",
          "type": "address"
        },
        {
          "name": "_scholarships",
          "type": "address"
        }
      ],
      "payable": false,
      "stateMutability": "nonpayable",
      "type": "constructor"
    },
    {
      "anonymous": false,
      "inputs": [
        {
          "indexed": false,
          "name": "addr",
          "type": "address"
        },
        {
          "indexed": false,
          "name": "roleName",
          "type": "string"
        }
      ],
      "name": "RoleAdded",
      "type": "event"
    },
    {
      "anonymous": false,
      "inputs": [
        {
          "indexed": false,
          "name": "addr",
          "type": "address"
        },
        {
          "indexed": false,
          "name": "roleName",
          "type": "string"
        }
      ],
      "name": "RoleRemoved",
      "type": "event"
    },
    {
      "anonymous": false,
      "inputs": [
        {
          "indexed": true,
          "name": "previousOwner",
          "type": "address"
        },
        {
          "indexed": true,
          "name": "newOwner",
          "type": "address"
        }
      ],
      "name": "OwnershipTransferred",
      "type": "event"
    },
    {
      "constant": false,
      "inputs": [
        {
          "name": "_id",
          "type": "bytes32"
        },
        {
          "name": "_teacherAddress",
          "type": "address"
        },
        {
          "name": "_type",
          "type": "bytes32"
        },
        {
          "name": "_hash",
          "type": "bytes32"
        },
        {
          "name": "_academicGyan",
          "type": "uint256"
        },
        {
          "name": "_nonAcademicGyan",
          "type": "uint256"
        },
        {
          "name": "_assessmentRuleKeys",
          "type": "bytes32[]"
        },
        {
          "name": "_assessmentRuleValues",
          "type": "uint256[]"
        },
        {
          "name": "_topics",
          "type": "bytes32[]"
        }
      ],
      "name": "create",
      "outputs": [
        {
          "name": "",
          "type": "bool"
        }
      ],
      "payable": false,
      "stateMutability": "nonpayable",
      "type": "function"
    },
    {
      "constant": true,
      "inputs": [
        {
          "name": "_id",
          "type": "bytes32"
        }
      ],
      "name": "getData",
      "outputs": [
        {
          "name": "",
          "type": "bytes32"
        },
        {
          "name": "",
          "type": "bytes32[]"
        },
        {
          "name": "",
          "type": "bytes32[]"
        },
        {
          "name": "",
          "type": "uint256"
        },
        {
          "name": "",
          "type": "uint256"
        },
        {
          "name": "",
          "type": "address"
        },
        {
          "name": "",
          "type": "uint256"
        }
      ],
      "payable": false,
      "stateMutability": "view",
      "type": "function"
    },
    {
      "constant": true,
      "inputs": [
        {
          "name": "_id",
          "type": "bytes32"
        }
      ],
      "name": "getTeacher",
      "outputs": [
        {
          "name": "",
          "type": "address"
        }
      ],
      "payable": false,
      "stateMutability": "view",
      "type": "function"
    },
    {
      "constant": true,
      "inputs": [
        {
          "name": "_id",
          "type": "bytes32"
        }
      ],
      "name": "getHash",
      "outputs": [
        {
          "name": "",
          "type": "bytes32"
        }
      ],
      "payable": false,
      "stateMutability": "view",
      "type": "function"
    },
    {
      "constant": true,
      "inputs": [
        {
          "name": "_id",
          "type": "bytes32"
        }
      ],
      "name": "getGyan",
      "outputs": [
        {
          "name": "",
          "type": "uint256"
        }
      ],
      "payable": false,
      "stateMutability": "view",
      "type": "function"
    },
    {
      "constant": true,
      "inputs": [
        {
          "name": "_id",
          "type": "bytes32"
        }
      ],
      "name": "getAcademicGyan",
      "outputs": [
        {
          "name": "",
          "type": "uint256"
        }
      ],
      "payable": false,
      "stateMutability": "view",
      "type": "function"
    },
    {
      "constant": true,
      "inputs": [
        {
          "name": "_id",
          "type": "bytes32"
        }
      ],
      "name": "getNonAcademicGyan",
      "outputs": [
        {
          "name": "",
          "type": "uint256"
        }
      ],
      "payable": false,
      "stateMutability": "view",
      "type": "function"
    },
    {
      "constant": true,
      "inputs": [
        {
          "name": "_id",
          "type": "bytes32"
        }
      ],
      "name": "getType",
      "outputs": [
        {
          "name": "",
          "type": "bytes32"
        }
      ],
      "payable": false,
      "stateMutability": "view",
      "type": "function"
    },
    {
      "constant": true,
      "inputs": [
        {
          "name": "_id",
          "type": "bytes32"
        }
      ],
      "name": "getParticipants",
      "outputs": [
        {
          "name": "",
          "type": "address[]"
        }
      ],
      "payable": false,
      "stateMutability": "view",
      "type": "function"
    },
    {
      "constant": true,
      "inputs": [
        {
          "name": "_id",
          "type": "bytes32"
        },
        {
          "name": "_participantAddress",
          "type": "address"
        }
      ],
      "name": "getResultOf",
      "outputs": [
        {
          "name": "",
          "type": "bytes32"
        }
      ],
      "payable": false,
      "stateMutability": "view",
      "type": "function"
    },
    {
      "constant": true,
      "inputs": [
        {
          "name": "_id",
          "type": "bytes32"
        },
        {
          "name": "_assessmentRule",
          "type": "bytes32"
        }
      ],
      "name": "getAssessmentValueOf",
      "outputs": [
        {
          "name": "",
          "type": "uint256"
        }
      ],
      "payable": false,
      "stateMutability": "view",
      "type": "function"
    },
    {
      "constant": false,
      "inputs": [
        {
          "name": "_id",
          "type": "bytes32"
        },
        {
          "name": "_participantAddress",
          "type": "address"
        },
        {
          "name": "_scholarshipId",
          "type": "bytes32"
        }
      ],
      "name": "join",
      "outputs": [
        {
          "name": "",
          "type": "bool"
        }
      ],
      "payable": false,
      "stateMutability": "nonpayable",
      "type": "function"
    },
    {
      "constant": false,
      "inputs": [
        {
          "name": "_id",
          "type": "bytes32"
        },
        {
          "name": "_participantAddress",
          "type": "address"
        }
      ],
      "name": "drop",
      "outputs": [
        {
          "name": "",
          "type": "bool"
        }
      ],
      "payable": false,
      "stateMutability": "nonpayable",
      "type": "function"
    },
    {
      "constant": false,
      "inputs": [
        {
          "name": "_id",
          "type": "bytes32"
        },
        {
          "name": "_participantAddress",
          "type": "address"
        },
        {
          "name": "_assessmentRule",
          "type": "bytes32"
        }
      ],
      "name": "assess",
      "outputs": [
        {
          "name": "",
          "type": "bool"
        }
      ],
      "payable": false,
      "stateMutability": "nonpayable",
      "type": "function"
    },
    {
      "constant": true,
      "inputs": [
        {
          "name": "_gyan",
          "type": "uint256"
        }
      ],
      "name": "getKarmaToBurn",
      "outputs": [
        {
          "name": "",
          "type": "uint256"
        }
      ],
      "payable": false,
      "stateMutability": "pure",
      "type": "function"
    },
    {
      "constant": true,
      "inputs": [
        {
          "name": "_totalAcademicGyan",
          "type": "uint256"
        },
        {
          "name": "_percentGyan",
          "type": "uint256"
        }
      ],
      "name": "getAssessedAcademicGyan",
      "outputs": [
        {
          "name": "",
          "type": "uint256"
        }
      ],
      "payable": false,
      "stateMutability": "pure",
      "type": "function"
    }
  ],
  "bytecode": "0x60806040523480156200001157600080fd5b50604051606080620036a7833981018060405281019080805190602001909291908051906020019092919080519060200190929190505050336000806101000a81548173ffffffffffffffffffffffffffffffffffffffff021916908373ffffffffffffffffffffffffffffffffffffffff160217905550620000d9336040805190810160405280600581526020017f61646d696e000000000000000000000000000000000000000000000000000000815250620002ac640100000000026401000000009004565b62000129336040805190810160405280600781526020017f706172746e657200000000000000000000000000000000000000000000000000815250620002ac640100000000026401000000009004565b600073ffffffffffffffffffffffffffffffffffffffff168373ffffffffffffffffffffffffffffffffffffffff16141515156200016657600080fd5b600073ffffffffffffffffffffffffffffffffffffffff168273ffffffffffffffffffffffffffffffffffffffff1614151515620001a357600080fd5b600073ffffffffffffffffffffffffffffffffffffffff168173ffffffffffffffffffffffffffffffffffffffff1614151515620001e057600080fd5b82600260006101000a81548173ffffffffffffffffffffffffffffffffffffffff021916908373ffffffffffffffffffffffffffffffffffffffff16021790555081600360006101000a81548173ffffffffffffffffffffffffffffffffffffffff021916908373ffffffffffffffffffffffffffffffffffffffff16021790555080600460006101000a81548173ffffffffffffffffffffffffffffffffffffffff021916908373ffffffffffffffffffffffffffffffffffffffff16021790555050505062000470565b6200033b826001836040518082805190602001908083835b602083101515620002eb5780518252602082019150602081019050602083039250620002c4565b6001836020036101000a0380198251168184511680821785525050505050509050019150509081526020016040518091039020620004126401000000000262003125179091906401000000009004565b7fbfec83d64eaa953f2708271a023ab9ee82057f8f3578d548c1a4ba0b5b7004898282604051808373ffffffffffffffffffffffffffffffffffffffff1673ffffffffffffffffffffffffffffffffffffffff16815260200180602001828103825283818151815260200191508051906020019080838360005b83811015620003d2578082015181840152602081019050620003b5565b50505050905090810190601f168015620004005780820380516001836020036101000a031916815260200191505b50935050505060405180910390a15050565b60018260000160008373ffffffffffffffffffffffffffffffffffffffff1673ffffffffffffffffffffffffffffffffffffffff16815260200190815260200160002060006101000a81548160ff0219169083151502179055505050565b61322780620004806000396000f30060806040526004361061015f576000357c0100000000000000000000000000000000000000000000000000000000900463ffffffff16806306b0dd2e146101645780630988ca8c146101db5780630b0235be1461026457806318de998f146102ea5780631d5fb26a14610341578063217fe6c6146103ae578063397a7e911461044f5780633cf5040a1461049457806354f6127f146104e15780635bc73871146106065780635d6f4f5e1461065d5780636310d97c146106c6578063641555471461082857806376586fd3146108b85780637f2aeea41461092957806388cee87e146109765780638da5cb5b146109ff5780639314ddb314610a5657806396f99b6e14610a97578063a1983fe114610adc578063a605002f14610b2f578063afd2017014610b74578063b25fa92c14610beb578063cc41898e14610c74578063d391014b14610cbf578063e9f9f17814610d4f578063f2fde38b14610da6575b600080fd5b34801561017057600080fd5b506101c16004803603810190808035600019169060200190929190803573ffffffffffffffffffffffffffffffffffffffff1690602001909291908035600019169060200190929190505050610de9565b604051808215151515815260200191505060405180910390f35b3480156101e757600080fd5b50610262600480360381019080803573ffffffffffffffffffffffffffffffffffffffff169060200190929190803590602001908201803590602001908080601f01602080910402602001604051908101604052809392919081815260200183838082843782019150505050505091929192905050506112d5565b005b34801561027057600080fd5b506102936004803603810190808035600019169060200190929190505050611356565b6040518080602001828103825283818151815260200191508051906020019060200280838360005b838110156102d65780820151818401526020810190506102bb565b505050509050019250505060405180910390f35b3480156102f657600080fd5b506102ff611402565b604051808273ffffffffffffffffffffffffffffffffffffffff1673ffffffffffffffffffffffffffffffffffffffff16815260200191505060405180910390f35b34801561034d57600080fd5b506103906004803603810190808035600019169060200190929190803573ffffffffffffffffffffffffffffffffffffffff169060200190929190505050611428565b60405180826000191660001916815260200191505060405180910390f35b3480156103ba57600080fd5b50610435600480360381019080803573ffffffffffffffffffffffffffffffffffffffff169060200190929190803590602001908201803590602001908080601f016020809104026020016040519081016040528093929190818152602001838380828437820191505050505050919291929050505061148e565b604051808215151515815260200191505060405180910390f35b34801561045b57600080fd5b5061047e6004803603810190808035600019169060200190929190505050611515565b6040518082815260200191505060405180910390f35b3480156104a057600080fd5b506104c3600480360381019080803560001916906020019092919050505061153d565b60405180826000191660001916815260200191505060405180910390f35b3480156104ed57600080fd5b506105106004803603810190808035600019169060200190929190505050611565565b60405180886000191660001916815260200180602001806020018781526020018681526020018573ffffffffffffffffffffffffffffffffffffffff1673ffffffffffffffffffffffffffffffffffffffff168152602001848152602001838103835289818151815260200191508051906020019060200280838360005b838110156105a957808201518184015260208101905061058e565b50505050905001838103825288818151815260200191508051906020019060200280838360005b838110156105eb5780820151818401526020810190506105d0565b50505050905001995050505050505050505060405180910390f35b34801561061257600080fd5b5061061b61172c565b604051808273ffffffffffffffffffffffffffffffffffffffff1673ffffffffffffffffffffffffffffffffffffffff16815260200191505060405180910390f35b34801561066957600080fd5b506106ac6004803603810190808035600019169060200190929190803573ffffffffffffffffffffffffffffffffffffffff169060200190929190505050611752565b604051808215151515815260200191505060405180910390f35b3480156106d257600080fd5b5061080e6004803603810190808035600019169060200190929190803573ffffffffffffffffffffffffffffffffffffffff16906020019092919080356000191690602001909291908035600019169060200190929190803590602001909291908035906020019092919080359060200190820180359060200190808060200260200160405190810160405280939291908181526020018383602002808284378201915050505050509192919290803590602001908201803590602001908080602002602001604051908101604052809392919081815260200183836020028082843782019150505050505091929192908035906020019082018035906020019080806020026020016040519081016040528093929190818152602001838360200280828437820191505050505050919291929050505061195f565b604051808215151515815260200191505060405180910390f35b34801561083457600080fd5b5061083d611e1c565b6040518080602001828103825283818151815260200191508051906020019080838360005b8381101561087d578082015181840152602081019050610862565b50505050905090810190601f1680156108aa5780820380516001836020036101000a031916815260200191505b509250505060405180910390f35b3480156108c457600080fd5b506108e76004803603810190808035600019169060200190929190505050611e55565b604051808273ffffffffffffffffffffffffffffffffffffffff1673ffffffffffffffffffffffffffffffffffffffff16815260200191505060405180910390f35b34801561093557600080fd5b506109586004803603810190808035600019169060200190929190505050611e9d565b60405180826000191660001916815260200191505060405180910390f35b34801561098257600080fd5b506109fd600480360381019080803573ffffffffffffffffffffffffffffffffffffffff169060200190929190803590602001908201803590602001908080601f0160208091040260200160405190810160405280939291908181526020018383808284378201915050505050509192919290505050611ec5565b005b348015610a0b57600080fd5b50610a14611f12565b604051808273ffffffffffffffffffffffffffffffffffffffff1673ffffffffffffffffffffffffffffffffffffffff16815260200191505060405180910390f35b348015610a6257600080fd5b50610a8160048036038101908080359060200190929190505050611f37565b6040518082815260200191505060405180910390f35b348015610aa357600080fd5b50610ac66004803603810190808035600019169060200190929190505050611f41565b6040518082815260200191505060405180910390f35b348015610ae857600080fd5b50610b1960048036038101908080356000191690602001909291908035600019169060200190929190505050611f89565b6040518082815260200191505060405180910390f35b348015610b3b57600080fd5b50610b5e6004803603810190808035600019169060200190929190505050611fcb565b6040518082815260200191505060405180910390f35b348015610b8057600080fd5b50610bd16004803603810190808035600019169060200190929190803573ffffffffffffffffffffffffffffffffffffffff1690602001909291908035600019169060200190929190505050611ff3565b604051808215151515815260200191505060405180910390f35b348015610bf757600080fd5b50610c72600480360381019080803573ffffffffffffffffffffffffffffffffffffffff169060200190929190803590602001908201803590602001908080601f0160208091040260200160405190810160405280939291908181526020018383808284378201915050505050509192919290505050612b2c565b005b348015610c8057600080fd5b50610ca96004803603810190808035906020019092919080359060200190929190505050612b79565b6040518082815260200191505060405180910390f35b348015610ccb57600080fd5b50610cd4612ba9565b6040518080602001828103825283818151815260200191508051906020019080838360005b83811015610d14578082015181840152602081019050610cf9565b50505050905090810190601f168015610d415780820380516001836020036101000a031916815260200191505b509250505060405180910390f35b348015610d5b57600080fd5b50610d64612be2565b604051808273ffffffffffffffffffffffffffffffffffffffff1673ffffffffffffffffffffffffffffffffffffffff16815260200191505060405180910390f35b348015610db257600080fd5b50610de7600480360381019080803573ffffffffffffffffffffffffffffffffffffffff169060200190929190505050612c08565b005b6000806040805190810160405280600781526020017f706172746e657200000000000000000000000000000000000000000000000000815250610e2c33826112d5565b60007f010000000000000000000000000000000000000000000000000000000000000002866000602081101515610e5f57fe5b1a7f0100000000000000000000000000000000000000000000000000000000000000027effffffffffffffffffffffffffffffffffffffffffffffffffffffffffffff191614151515610eb157600080fd5b60006005600088600019166000191681526020019081526020016000206005015414151515610edf57600080fd5b600073ffffffffffffffffffffffffffffffffffffffff168573ffffffffffffffffffffffffffffffffffffffff1614151515610f1b57600080fd5b6000600560008860001916600019168152602001908152602001600020600a016000866000191660001916815260200190815260200160002054111515610f6157600080fd5b600060056000886000191660001916815260200190815260200160002060070160008773ffffffffffffffffffffffffffffffffffffffff1673ffffffffffffffffffffffffffffffffffffffff16815260200190815260200160002054141515610fcb57600080fd5b61102a60056000886000191660001916815260200190815260200160002060020154600560008960001916600019168152602001908152602001600020600a016000876000191660001916815260200190815260200160002054612b79565b9150600360009054906101000a900473ffffffffffffffffffffffffffffffffffffffff1673ffffffffffffffffffffffffffffffffffffffff1663da1919b386600560008a600019166000191681526020019081526020016000206003015485016040518363ffffffff167c0100000000000000000000000000000000000000000000000000000000028152600401808373ffffffffffffffffffffffffffffffffffffffff1673ffffffffffffffffffffffffffffffffffffffff16815260200182815260200192505050600060405180830381600087803b15801561111157600080fd5b505af1158015611125573d6000803e3d6000fd5b50505050600360009054906101000a900473ffffffffffffffffffffffffffffffffffffffff1673ffffffffffffffffffffffffffffffffffffffff1663da1919b360056000896000191660001916815260200190815260200160002060040160009054906101000a900473ffffffffffffffffffffffffffffffffffffffff16600560008a600019166000191681526020019081526020016000206003015485016040518363ffffffff167c0100000000000000000000000000000000000000000000000000000000028152600401808373ffffffffffffffffffffffffffffffffffffffff1673ffffffffffffffffffffffffffffffffffffffff16815260200182815260200192505050600060405180830381600087803b15801561124c57600080fd5b505af1158015611260573d6000803e3d6000fd5b5050505083600560008860001916600019168152602001908152602001600020600d0160008773ffffffffffffffffffffffffffffffffffffffff1673ffffffffffffffffffffffffffffffffffffffff16815260200190815260200160002081600019169055506001925050509392505050565b611352826001836040518082805190602001908083835b60208310151561131157805182526020820191506020810190506020830392506112ec565b6001836020036101000a0380198251168184511680821785525050505050509050019150509081526020016040518091039020612d5d90919063ffffffff16565b5050565b60606005600083600019166000191681526020019081526020016000206009018054806020026020016040519081016040528092919081815260200182805480156113f657602002820191906000526020600020905b8160009054906101000a900473ffffffffffffffffffffffffffffffffffffffff1673ffffffffffffffffffffffffffffffffffffffff16815260200190600101908083116113ac575b50505050509050919050565b600260009054906101000a900473ffffffffffffffffffffffffffffffffffffffff1681565b6000600560008460001916600019168152602001908152602001600020600d0160008373ffffffffffffffffffffffffffffffffffffffff1673ffffffffffffffffffffffffffffffffffffffff16815260200190815260200160002054905092915050565b600061150d836001846040518082805190602001908083835b6020831015156114cc57805182526020820191506020810190506020830392506114a7565b6001836020036101000a0380198251168184511680821785525050505050509050019150509081526020016040518091039020612d7690919063ffffffff16565b905092915050565b6000600560008360001916600019168152602001908152602001600020600201549050919050565b6000600560008360001916600019168152602001908152602001600020600001549050919050565b600060608060008060008060056000896000191660001916815260200190815260200160002060010154600560008a60001916600019168152602001908152602001600020600801600560008b60001916600019168152602001908152602001600020600b01600560008c6000191660001916815260200190815260200160002060020154600560008d6000191660001916815260200190815260200160002060030154600560008e6000191660001916815260200190815260200160002060040160009054906101000a900473ffffffffffffffffffffffffffffffffffffffff16600560008f6000191660001916815260200190815260200160002060050154858054806020026020016040519081016040528092919081815260200182805480156116b657602002820191906000526020600020905b8154600019168152602001906001019080831161169e575b505050505095508480548060200260200160405190810160405280929190818152602001828054801561170c57602002820191906000526020600020905b815460001916815260200190600101908083116116f4575b505050505094509650965096509650965096509650919395979092949650565b600460009054906101000a900473ffffffffffffffffffffffffffffffffffffffff1681565b60006040805190810160405280600781526020017f706172746e65720000000000000000000000000000000000000000000000000081525061179433826112d5565b60007f0100000000000000000000000000000000000000000000000000000000000000028460006020811015156117c757fe5b1a7f0100000000000000000000000000000000000000000000000000000000000000027effffffffffffffffffffffffffffffffffffffffffffffffffffffffffffff19161415151561181957600080fd5b6000600560008660001916600019168152602001908152602001600020600501541415151561184757600080fd5b600073ffffffffffffffffffffffffffffffffffffffff168373ffffffffffffffffffffffffffffffffffffffff161415151561188357600080fd5b6000600102600560008660001916600019168152602001908152602001600020600d0160008573ffffffffffffffffffffffffffffffffffffffff1673ffffffffffffffffffffffffffffffffffffffff16815260200190815260200160002054600019161415156118f457600080fd5b4260056000866000191660001916815260200190815260200160002060070160008573ffffffffffffffffffffffffffffffffffffffff1673ffffffffffffffffffffffffffffffffffffffff16815260200190815260200160002081905550600191505092915050565b6000806040805190810160405280600781526020017f706172746e6572000000000000000000000000000000000000000000000000008152506119a233826112d5565b60007f0100000000000000000000000000000000000000000000000000000000000000028c60006020811015156119d557fe5b1a7f0100000000000000000000000000000000000000000000000000000000000000027effffffffffffffffffffffffffffffffffffffffffffffffffffffffffffff191614151515611a2757600080fd5b6000600560008e6000191660001916815260200190815260200160002060050154141515611a5457600080fd5b600073ffffffffffffffffffffffffffffffffffffffff168b73ffffffffffffffffffffffffffffffffffffffff1614151515611a9057600080fd5b60007f0100000000000000000000000000000000000000000000000000000000000000028a6000602081101515611ac357fe5b1a7f0100000000000000000000000000000000000000000000000000000000000000027effffffffffffffffffffffffffffffffffffffffffffffffffffffffffffff191614151515611b1557600080fd5b60007f010000000000000000000000000000000000000000000000000000000000000002896000602081101515611b4857fe5b1a7f0100000000000000000000000000000000000000000000000000000000000000027effffffffffffffffffffffffffffffffffffffffffffffffffffffffffffff191614151515611b9a57600080fd5b600088111515611ba957600080fd5b600087111515611bb857600080fd5b60008451111515611bc857600080fd5b84518651141515611bd857600080fd5b8a600560008e6000191660001916815260200190815260200160002060040160006101000a81548173ffffffffffffffffffffffffffffffffffffffff021916908373ffffffffffffffffffffffffffffffffffffffff16021790555088600560008e60001916600019168152602001908152602001600020600001816000191690555089600560008e60001916600019168152602001908152602001600020600101816000191690555087600560008e600019166000191681526020019081526020016000206002018190555086600560008e600019166000191681526020019081526020016000206003018190555042600560008e600019166000191681526020019081526020016000206005018190555083600560008e600019166000191681526020019081526020016000206008019080519060200190611d1e929190613183565b50600091505b8551821015611e09578482815181101515611d3b57fe5b90602001906020020151600560008e60001916600019168152602001908152602001600020600a0160008885815181101515611d7357fe5b906020019060200201516000191660001916815260200190815260200160002081905550600560008d60001916600019168152602001908152602001600020600b018683815181101515611dc357fe5b9060200190602002015190806001815401808255809150509060018203906000526020600020016000909192909190915090600019169055508180600101925050611d24565b6001925050509998505050505050505050565b6040805190810160405280600781526020017f706172746e65720000000000000000000000000000000000000000000000000081525081565b600060056000836000191660001916815260200190815260200160002060040160009054906101000a900473ffffffffffffffffffffffffffffffffffffffff169050919050565b6000600560008360001916600019168152602001908152602001600020600101549050919050565b611f04336040805190810160405280600581526020017f61646d696e0000000000000000000000000000000000000000000000000000008152506112d5565b611f0e8282612dcf565b5050565b6000809054906101000a900473ffffffffffffffffffffffffffffffffffffffff1681565b6000819050919050565b60006005600083600019166000191681526020019081526020016000206003015460056000846000191660001916815260200190815260200160002060020154019050919050565b6000600560008460001916600019168152602001908152602001600020600a016000836000191660001916815260200190815260200160002054905092915050565b6000600560008360001916600019168152602001908152602001600020600301549050919050565b60006040805190810160405280600781526020017f706172746e65720000000000000000000000000000000000000000000000000081525061203533826112d5565b60007f01000000000000000000000000000000000000000000000000000000000000000285600060208110151561206857fe5b1a7f0100000000000000000000000000000000000000000000000000000000000000027effffffffffffffffffffffffffffffffffffffffffffffffffffffffffffff1916141515156120ba57600080fd5b600060056000876000191660001916815260200190815260200160002060050154141515156120e857600080fd5b600073ffffffffffffffffffffffffffffffffffffffff168473ffffffffffffffffffffffffffffffffffffffff161415151561212457600080fd5b600060056000876000191660001916815260200190815260200160002060060160008673ffffffffffffffffffffffffffffffffffffffff1673ffffffffffffffffffffffffffffffffffffffff1681526020019081526020016000205414151561218e57600080fd5b7f4e410000000000000000000000000000000000000000000000000000000000008360001916141561242e57612201600560008760001916600019168152602001908152602001600020600301546005600088600019166000191681526020019081526020016000206002015401611f37565b600260009054906101000a900473ffffffffffffffffffffffffffffffffffffffff1673ffffffffffffffffffffffffffffffffffffffff166370a08231866040518263ffffffff167c0100000000000000000000000000000000000000000000000000000000028152600401808273ffffffffffffffffffffffffffffffffffffffff1673ffffffffffffffffffffffffffffffffffffffff168152602001915050602060405180830381600087803b1580156122be57600080fd5b505af11580156122d2573d6000803e3d6000fd5b505050506040513d60208110156122e857600080fd5b81019080805190602001909291905050501015151561230657600080fd5b600260009054906101000a900473ffffffffffffffffffffffffffffffffffffffff1673ffffffffffffffffffffffffffffffffffffffff166379cc67908561238c600560008a6000191660001916815260200190815260200160002060030154600560008b600019166000191681526020019081526020016000206002015401611f37565b6040518363ffffffff167c0100000000000000000000000000000000000000000000000000000000028152600401808373ffffffffffffffffffffffffffffffffffffffff1673ffffffffffffffffffffffffffffffffffffffff16815260200182815260200192505050600060405180830381600087803b15801561241157600080fd5b505af1158015612425573d6000803e3d6000fd5b50505050612a3e565b6000600460009054906101000a900473ffffffffffffffffffffffffffffffffffffffff1673ffffffffffffffffffffffffffffffffffffffff1663d45c4435856040518263ffffffff167c0100000000000000000000000000000000000000000000000000000000028152600401808260001916600019168152602001915050602060405180830381600087803b1580156124c957600080fd5b505af11580156124dd573d6000803e3d6000fd5b505050506040513d60208110156124f357600080fd5b81019080805190602001909291905050501415151561251157600080fd5b6000600460009054906101000a900473ffffffffffffffffffffffffffffffffffffffff1673ffffffffffffffffffffffffffffffffffffffff16636785ce0985876040518363ffffffff167c01000000000000000000000000000000000000000000000000000000000281526004018083600019166000191681526020018273ffffffffffffffffffffffffffffffffffffffff1673ffffffffffffffffffffffffffffffffffffffff16815260200192505050602060405180830381600087803b1580156125e057600080fd5b505af11580156125f4573d6000803e3d6000fd5b505050506040513d602081101561260a57600080fd5b81019080805190602001909291905050501415151561262857600080fd5b61266f600560008760001916600019168152602001908152602001600020600301546005600088600019166000191681526020019081526020016000206002015401611f37565b600260009054906101000a900473ffffffffffffffffffffffffffffffffffffffff1673ffffffffffffffffffffffffffffffffffffffff166370a08231600460009054906101000a900473ffffffffffffffffffffffffffffffffffffffff1673ffffffffffffffffffffffffffffffffffffffff1663206d54db876040518263ffffffff167c0100000000000000000000000000000000000000000000000000000000028152600401808260001916600019168152602001915050602060405180830381600087803b15801561274657600080fd5b505af115801561275a573d6000803e3d6000fd5b505050506040513d602081101561277057600080fd5b81019080805190602001909291905050506040518263ffffffff167c0100000000000000000000000000000000000000000000000000000000028152600401808273ffffffffffffffffffffffffffffffffffffffff1673ffffffffffffffffffffffffffffffffffffffff168152602001915050602060405180830381600087803b1580156127ff57600080fd5b505af1158015612813573d6000803e3d6000fd5b505050506040513d602081101561282957600080fd5b81019080805190602001909291905050501015151561284757600080fd5b600260009054906101000a900473ffffffffffffffffffffffffffffffffffffffff1673ffffffffffffffffffffffffffffffffffffffff166379cc6790600460009054906101000a900473ffffffffffffffffffffffffffffffffffffffff1673ffffffffffffffffffffffffffffffffffffffff1663206d54db866040518263ffffffff167c0100000000000000000000000000000000000000000000000000000000028152600401808260001916600019168152602001915050602060405180830381600087803b15801561291e57600080fd5b505af1158015612932573d6000803e3d6000fd5b505050506040513d602081101561294857600080fd5b81019080805190602001909291905050506129a0600560008a6000191660001916815260200190815260200160002060030154600560008b600019166000191681526020019081526020016000206002015401611f37565b6040518363ffffffff167c0100000000000000000000000000000000000000000000000000000000028152600401808373ffffffffffffffffffffffffffffffffffffffff1673ffffffffffffffffffffffffffffffffffffffff16815260200182815260200192505050600060405180830381600087803b158015612a2557600080fd5b505af1158015612a39573d6000803e3d6000fd5b505050505b4260056000876000191660001916815260200190815260200160002060060160008673ffffffffffffffffffffffffffffffffffffffff1673ffffffffffffffffffffffffffffffffffffffff168152602001908152602001600020819055506005600086600019166000191681526020019081526020016000206009018490806001815401808255809150509060018203906000526020600020016000909192909190916101000a81548173ffffffffffffffffffffffffffffffffffffffff021916908373ffffffffffffffffffffffffffffffffffffffff1602179055505060019150509392505050565b612b6b336040805190810160405280600581526020017f61646d696e0000000000000000000000000000000000000000000000000000008152506112d5565b612b758282612f20565b5050565b6000612ba16064612b93848661307190919063ffffffff16565b6130ac90919063ffffffff16565b905092915050565b6040805190810160405280600581526020017f61646d696e00000000000000000000000000000000000000000000000000000081525081565b600360009054906101000a900473ffffffffffffffffffffffffffffffffffffffff1681565b6000809054906101000a900473ffffffffffffffffffffffffffffffffffffffff1673ffffffffffffffffffffffffffffffffffffffff163373ffffffffffffffffffffffffffffffffffffffff16141515612c6357600080fd5b600073ffffffffffffffffffffffffffffffffffffffff168173ffffffffffffffffffffffffffffffffffffffff1614151515612c9f57600080fd5b8073ffffffffffffffffffffffffffffffffffffffff166000809054906101000a900473ffffffffffffffffffffffffffffffffffffffff1673ffffffffffffffffffffffffffffffffffffffff167f8be0079c531659141344cd1fd0a4f28419497f9722a3daafe3b4186f6b6457e060405160405180910390a3806000806101000a81548173ffffffffffffffffffffffffffffffffffffffff021916908373ffffffffffffffffffffffffffffffffffffffff16021790555050565b612d678282612d76565b1515612d7257600080fd5b5050565b60008260000160008373ffffffffffffffffffffffffffffffffffffffff1673ffffffffffffffffffffffffffffffffffffffff16815260200190815260200160002060009054906101000a900460ff16905092915050565b612e4c826001836040518082805190602001908083835b602083101515612e0b5780518252602082019150602081019050602083039250612de6565b6001836020036101000a03801982511681845116808217855250505050505090500191505090815260200160405180910390206130c790919063ffffffff16565b7fd211483f91fc6eff862467f8de606587a30c8fc9981056f051b897a418df803a8282604051808373ffffffffffffffffffffffffffffffffffffffff1673ffffffffffffffffffffffffffffffffffffffff16815260200180602001828103825283818151815260200191508051906020019080838360005b83811015612ee1578082015181840152602081019050612ec6565b50505050905090810190601f168015612f0e5780820380516001836020036101000a031916815260200191505b50935050505060405180910390a15050565b612f9d826001836040518082805190602001908083835b602083101515612f5c5780518252602082019150602081019050602083039250612f37565b6001836020036101000a038019825116818451168082178552505050505050905001915050908152602001604051809103902061312590919063ffffffff16565b7fbfec83d64eaa953f2708271a023ab9ee82057f8f3578d548c1a4ba0b5b7004898282604051808373ffffffffffffffffffffffffffffffffffffffff1673ffffffffffffffffffffffffffffffffffffffff16815260200180602001828103825283818151815260200191508051906020019080838360005b83811015613032578082015181840152602081019050613017565b50505050905090810190601f16801561305f5780820380516001836020036101000a031916815260200191505b50935050505060405180910390a15050565b600080600084141561308657600091506130a5565b828402905082848281151561309757fe5b041415156130a157fe5b8091505b5092915050565b60008082848115156130ba57fe5b0490508091505092915050565b60008260000160008373ffffffffffffffffffffffffffffffffffffffff1673ffffffffffffffffffffffffffffffffffffffff16815260200190815260200160002060006101000a81548160ff0219169083151502179055505050565b60018260000160008373ffffffffffffffffffffffffffffffffffffffff1673ffffffffffffffffffffffffffffffffffffffff16815260200190815260200160002060006101000a81548160ff0219169083151502179055505050565b8280548282559060005260206000209081019282156131c5579160200282015b828111156131c45782518290600019169055916020019190600101906131a3565b5b5090506131d291906131d6565b5090565b6131f891905b808211156131f45760008160009055506001016131dc565b5090565b905600a165627a7a7230582041138cc185f8e7ccf1b119f8e7bbdb83cda286547040ef7c594fbf00ea58deb60029",
  "source": "pragma solidity ^0.4.23;\n\nimport \"./CollectionBasic.sol\";\nimport \"../KarmaCoin.sol\";\nimport \"../GyanCoin.sol\";\nimport \"../ScholarshipContract.sol\";\nimport \"../ownership/rbac/RBAC.sol\";\n\n/**\n * @title BaseCollection\n * @author Aakash Bansal @ Peerbuds Inc.\n * @dev Basic version of collection contract\n * @dev Handled collection create, joining and assessment\n */\ncontract BaseCollection is CollectionBasic, PbOwnable, RBAC {\n\n\tusing SafeMath for uint256;\n\n\tKarmaCoin public karmaCoin;\n\tGyanCoin public gyanCoin;\n\tScholarshipContract public scholarshipContract;\n\n\tstruct Collection {\n\t\tbytes32 hash;\n\t\tbytes32 _type;\n\t\tuint256 academicGyan;\n\t\tuint256 nonAcademicGyan;\n\t\taddress teacher;\n\t\tuint256 timestamp;\n\t\tmapping(address => uint256) participants;\n\t\tmapping(address => uint256) droppedParticipants;\n\t\tbytes32[] topics;\n\t\taddress[] participantIndex;\n\t\tmapping(bytes32 => uint256) assessmentRules;\n\t\tbytes32[] assessmentRuleKeys;\n\t\tuint256[] assessmentRuleValues;\n\t\tmapping(address => bytes32) results;\n\t}\n\n\tmapping(bytes32 => Collection) collections;\n\n\tfunction BaseCollection(KarmaCoin _karma, GyanCoin _gyan, ScholarshipContract _scholarships) {\n\t\trequire(_karma != address(0));\n\t\trequire(_gyan != address(0));\n\t\trequire(_scholarships != address(0));\n\n\t\tkarmaCoin = _karma;\n\t\tgyanCoin = _gyan;\n\t\tscholarshipContract = _scholarships;\n\n\t}\n\n\tfunction create(bytes32 _id, address _teacherAddress, bytes32 _type, bytes32 _hash, uint256 _academicGyan, uint256 _nonAcademicGyan, bytes32[] _assessmentRuleKeys, uint256[] _assessmentRuleValues, bytes32[] _topics) public onlyRole(ROLE_PARTNER) returns (bool) {\n\t\trequire(_id[0] != 0);\n\t\trequire(collections[_id].timestamp == 0);\n\t\trequire(_teacherAddress != address(0));\n\t\trequire(_type[0] != 0);\n\t\trequire(_hash[0] != 0);\n\t\trequire(_academicGyan > 0);\n\t\trequire(_nonAcademicGyan > 0);\n\t\trequire(_topics.length > 0);\n\t\trequire(_assessmentRuleKeys.length == _assessmentRuleValues.length);\n\n\t\tcollections[_id].teacher = _teacherAddress;\n\t\tcollections[_id].hash = _hash;\n\t\tcollections[_id]._type = _type;\n\t\tcollections[_id].academicGyan = _academicGyan;\n\t\tcollections[_id].nonAcademicGyan = _nonAcademicGyan;\n\t\tcollections[_id].timestamp = now;\n\t\tcollections[_id].topics = _topics;\n\t\t// Map _assessmentRules array to contract variables\n\t\tfor (uint i = 0; i < _assessmentRuleKeys.length; i++) {\n\t\t\tcollections[_id].assessmentRules[_assessmentRuleKeys[i]] = _assessmentRuleValues[i];\n\t\t\tcollections[_id].assessmentRuleKeys.push(_assessmentRuleKeys[i]);\n\t\t}\n\t\treturn true;\n\t}\n\n\tfunction getData(bytes32 _id) public view returns (bytes32, bytes32[], bytes32[], uint256, uint256, address, uint256) {\n\t\t// Solidity does not yet support returning structs to web3\n\t\treturn (collections[_id]._type, collections[_id].topics, collections[_id].assessmentRuleKeys, collections[_id].academicGyan, collections[_id].nonAcademicGyan , collections[_id].teacher, collections[_id].timestamp);\n\t}\n\n\tfunction getTeacher(bytes32 _id) public view returns (address) {\n\t\treturn collections[_id].teacher;\n\t}\n\n\tfunction getHash(bytes32 _id) public view returns (bytes32) {\n\t\treturn collections[_id].hash;\n\t}\n\n\tfunction getGyan(bytes32 _id) public view returns (uint256) {\n\t\treturn (collections[_id].academicGyan + collections[_id].nonAcademicGyan);\n\t}\n\n\tfunction getAcademicGyan(bytes32 _id) public view returns (uint256) {\n\t\treturn collections[_id].academicGyan;\n\t}\n\n\tfunction getNonAcademicGyan(bytes32 _id) public view returns (uint256) {\n\t\treturn collections[_id].nonAcademicGyan;\n\t}\n\n\tfunction getType(bytes32 _id) public view returns (bytes32) {\n\t\treturn collections[_id]._type;\n\t}\n\n\tfunction getParticipants(bytes32 _id) public view returns (address[]) {\n\t\treturn collections[_id].participantIndex;\n\t}\n\n\tfunction getResultOf(bytes32 _id, address _participantAddress) public view returns (bytes32) {\n\t\treturn collections[_id].results[_participantAddress];\n\t}\n\n\tfunction getAssessmentValueOf(bytes32 _id, bytes32 _assessmentRule) public view returns (uint256) {\n\t\treturn collections[_id].assessmentRules[_assessmentRule];\n\t}\n\n\tfunction join(bytes32 _id, address _participantAddress, bytes32 _scholarshipId) public onlyRole(ROLE_PARTNER) returns (bool) {\n\t\trequire(_id[0] != 0);\n\t\trequire(collections[_id].timestamp != 0);\n\t\trequire(_participantAddress != address(0));\n\t\t// Make sure this participant does not already exist for this collection\n\t\trequire(collections[_id].participants[_participantAddress] == 0);\n\n\t\tif (_scholarshipId == 'NA') {\n\t\t\t// Burn from student wallet\n\t\t\trequire(karmaCoin.balanceOf(_participantAddress) >= getKarmaToBurn(collections[_id].academicGyan + collections[_id].nonAcademicGyan));\n\t\t\tkarmaCoin.burnFrom(_participantAddress, getKarmaToBurn(collections[_id].academicGyan + collections[_id].nonAcademicGyan));\n\t\t} else {\n\t\t\trequire(scholarshipContract.getTimestamp(_scholarshipId) != 0);\n\t\t\trequire(scholarshipContract.getParticipant(_scholarshipId, _participantAddress) != 0);\n\t\t\trequire(karmaCoin.balanceOf(scholarshipContract.getWalletAddress(_scholarshipId)) >= getKarmaToBurn(collections[_id].academicGyan + collections[_id].nonAcademicGyan)); // this scholarship has enough karma balance\n\t\t\t// Burn from scholarship wallet\n\t\t\tkarmaCoin.burnFrom(scholarshipContract.getWalletAddress(_scholarshipId), getKarmaToBurn(collections[_id].academicGyan + collections[_id].nonAcademicGyan));\n\t\t}\n\t\tcollections[_id].participants[_participantAddress] = now;\n\t\tcollections[_id].participantIndex.push(_participantAddress);\n\t\treturn true;\n\t}\n\n\tfunction drop(bytes32 _id, address _participantAddress) public onlyRole(ROLE_PARTNER) returns (bool) {\n\t\trequire(_id[0] != 0);\n\t\trequire(collections[_id].timestamp != 0);\n\t\trequire(_participantAddress != address(0));\n\t\t// Verify that the participant has not been assessed yet. Participants cannot drop after they have been assessed.\n\t\trequire(collections[_id].results[_participantAddress] == 0);\n\n\t\tcollections[_id].droppedParticipants[_participantAddress] = now;\n\t\treturn true;\n\t}\n\n\tfunction assess(bytes32 _id, address _participantAddress, bytes32 _assessmentRule) public onlyRole(ROLE_PARTNER) returns (bool) {\n\t\trequire(_id[0] != 0);\n\t\trequire(collections[_id].timestamp != 0);\n\t\trequire(_participantAddress != address(0));\n\t\trequire(collections[_id].assessmentRules[_assessmentRule] > 0);\n\t\t// Verify the participant being assessed has not been dropped previously.\n\t\trequire(collections[_id].droppedParticipants[_participantAddress] == 0);\n\n\t\t// Add Gyan to participant and teacher wallets on assessment\n\t\tuint256 assessedAcademicGyan = getAssessedAcademicGyan(collections[_id].academicGyan, collections[_id].assessmentRules[_assessmentRule]);\n\t\tgyanCoin.mintFor(_participantAddress, assessedAcademicGyan + collections[_id].nonAcademicGyan);\n\t\tgyanCoin.mintFor(collections[_id].teacher, assessedAcademicGyan + collections[_id].nonAcademicGyan);\n\t\tcollections[_id].results[_participantAddress] = _assessmentRule;\n\t\treturn true;\n\t}\n\n\t// Pure functions\n\n\tfunction getKarmaToBurn(uint256 _gyan) pure returns (uint256) {\n\t\t//TODO : put logic here to dynamically calculate Karma value based on gyan\n\t\treturn _gyan;\n\t}\n\n\tfunction getAssessedAcademicGyan(uint256 _totalAcademicGyan, uint256 _percentGyan) pure returns (uint256) {\n\t\treturn (_totalAcademicGyan.mul(_percentGyan)).div(100);\n\t}\n\n}",
  "sourcePath": "/Users/aakash/WebstormProjects/pbether/contracts/Collection/BaseCollection.sol",
  "compiler": {
    "name": "solc",
    "version": "0.4.23+commit.124ca40d.Emscripten.clang"
  },
  "schemaVersion": "2.0.0",
  "updatedAt": "2018-05-19T16:08:43.493Z"
}