{
  "contractName": "CollectionContract",
  "abi": [
    {
      "constant": true,
      "inputs": [
        {
          "name": "addr",
          "type": "address"
        },
        {
          "name": "roleName",
          "type": "string"
        }
      ],
      "name": "checkRole",
      "outputs": [],
      "payable": false,
      "stateMutability": "view",
      "type": "function"
    },
    {
      "constant": true,
      "inputs": [
        {
          "name": "_id",
          "type": "bytes32"
        }
      ],
      "name": "getParticipants",
      "outputs": [
        {
          "name": "",
          "type": "address[]"
        }
      ],
      "payable": false,
      "stateMutability": "view",
      "type": "function"
    },
    {
      "constant": true,
      "inputs": [],
      "name": "karmaCoin",
      "outputs": [
        {
          "name": "",
          "type": "address"
        }
      ],
      "payable": false,
      "stateMutability": "view",
      "type": "function"
    },
    {
      "constant": true,
      "inputs": [
        {
          "name": "_id",
          "type": "bytes32"
        },
        {
          "name": "_participantAddress",
          "type": "address"
        }
      ],
      "name": "getResultOf",
      "outputs": [
        {
          "name": "",
          "type": "uint256"
        },
        {
          "name": "",
          "type": "uint256"
        },
        {
          "name": "",
          "type": "uint256"
        }
      ],
      "payable": false,
      "stateMutability": "view",
      "type": "function"
    },
    {
      "constant": true,
      "inputs": [
        {
          "name": "addr",
          "type": "address"
        },
        {
          "name": "roleName",
          "type": "string"
        }
      ],
      "name": "hasRole",
      "outputs": [
        {
          "name": "",
          "type": "bool"
        }
      ],
      "payable": false,
      "stateMutability": "view",
      "type": "function"
    },
    {
      "constant": true,
      "inputs": [
        {
          "name": "_totalNonAcademicGyan",
          "type": "uint256"
        },
        {
          "name": "_commitmentRule",
          "type": "uint256"
        },
        {
          "name": "_percentGyan",
          "type": "uint256"
        }
      ],
      "name": "getAssessedCommitmentGyan",
      "outputs": [
        {
          "name": "",
          "type": "uint256"
        }
      ],
      "payable": false,
      "stateMutability": "pure",
      "type": "function"
    },
    {
      "constant": true,
      "inputs": [
        {
          "name": "_totalNonAcademicGyan",
          "type": "uint256"
        },
        {
          "name": "_engagementRule",
          "type": "uint256"
        },
        {
          "name": "_percentGyan",
          "type": "uint256"
        }
      ],
      "name": "getAssessedEngagementGyan",
      "outputs": [
        {
          "name": "",
          "type": "uint256"
        }
      ],
      "payable": false,
      "stateMutability": "pure",
      "type": "function"
    },
    {
      "constant": true,
      "inputs": [
        {
          "name": "_id",
          "type": "bytes32"
        }
      ],
      "name": "getAcademicGyan",
      "outputs": [
        {
          "name": "",
          "type": "uint256"
        }
      ],
      "payable": false,
      "stateMutability": "view",
      "type": "function"
    },
    {
      "constant": true,
      "inputs": [
        {
          "name": "_id",
          "type": "bytes32"
        }
      ],
      "name": "getHash",
      "outputs": [
        {
          "name": "",
          "type": "bytes32"
        }
      ],
      "payable": false,
      "stateMutability": "view",
      "type": "function"
    },
    {
      "constant": false,
      "inputs": [
        {
          "name": "_id",
          "type": "bytes32"
        },
        {
          "name": "_teacherAddress",
          "type": "address"
        },
        {
          "name": "_type",
          "type": "bytes32"
        },
        {
          "name": "_learningHours",
          "type": "uint256"
        },
        {
          "name": "_academicGyan",
          "type": "uint256"
        },
        {
          "name": "_nonAcademicGyan",
          "type": "uint256"
        },
        {
          "name": "_assessmentRuleKeys",
          "type": "bytes32[]"
        },
        {
          "name": "_assessmentRuleValues",
          "type": "uint256[]"
        },
        {
          "name": "_nonAcademicRules",
          "type": "uint256[]"
        },
        {
          "name": "_topics",
          "type": "bytes32[]"
        }
      ],
      "name": "create",
      "outputs": [
        {
          "name": "",
          "type": "bool"
        }
      ],
      "payable": false,
      "stateMutability": "nonpayable",
      "type": "function"
    },
    {
      "constant": true,
      "inputs": [
        {
          "name": "_id",
          "type": "bytes32"
        }
      ],
      "name": "getData",
      "outputs": [
        {
          "name": "",
          "type": "bytes32"
        },
        {
          "name": "",
          "type": "bytes32[]"
        },
        {
          "name": "",
          "type": "bytes32[]"
        },
        {
          "name": "",
          "type": "uint256"
        },
        {
          "name": "",
          "type": "uint256"
        },
        {
          "name": "",
          "type": "address"
        },
        {
          "name": "",
          "type": "uint256"
        }
      ],
      "payable": false,
      "stateMutability": "view",
      "type": "function"
    },
    {
      "constant": true,
      "inputs": [],
      "name": "scholarshipContract",
      "outputs": [
        {
          "name": "",
          "type": "address"
        }
      ],
      "payable": false,
      "stateMutability": "view",
      "type": "function"
    },
    {
      "constant": false,
      "inputs": [
        {
          "name": "_id",
          "type": "bytes32"
        },
        {
          "name": "_participantAddress",
          "type": "address"
        }
      ],
      "name": "drop",
      "outputs": [
        {
          "name": "",
          "type": "bool"
        }
      ],
      "payable": false,
      "stateMutability": "nonpayable",
      "type": "function"
    },
    {
      "constant": true,
      "inputs": [],
      "name": "ROLE_PARTNER",
      "outputs": [
        {
          "name": "",
          "type": "string"
        }
      ],
      "payable": false,
      "stateMutability": "view",
      "type": "function"
    },
    {
      "constant": true,
      "inputs": [
        {
          "name": "_id",
          "type": "bytes32"
        }
      ],
      "name": "getTeacher",
      "outputs": [
        {
          "name": "",
          "type": "address"
        }
      ],
      "payable": false,
      "stateMutability": "view",
      "type": "function"
    },
    {
      "constant": true,
      "inputs": [
        {
          "name": "_id",
          "type": "bytes32"
        }
      ],
      "name": "getType",
      "outputs": [
        {
          "name": "",
          "type": "bytes32"
        }
      ],
      "payable": false,
      "stateMutability": "view",
      "type": "function"
    },
    {
      "constant": false,
      "inputs": [
        {
          "name": "_id",
          "type": "bytes32"
        },
        {
          "name": "_participantAddress",
          "type": "address"
        },
        {
          "name": "_assessmentRule",
          "type": "bytes32"
        },
        {
          "name": "_engagementPercent",
          "type": "uint256"
        },
        {
          "name": "_commitmentPercent",
          "type": "uint256"
        }
      ],
      "name": "assess",
      "outputs": [
        {
          "name": "",
          "type": "bool"
        }
      ],
      "payable": false,
      "stateMutability": "nonpayable",
      "type": "function"
    },
    {
      "constant": false,
      "inputs": [
        {
          "name": "addr",
          "type": "address"
        },
        {
          "name": "roleName",
          "type": "string"
        }
      ],
      "name": "adminRemoveRole",
      "outputs": [],
      "payable": false,
      "stateMutability": "nonpayable",
      "type": "function"
    },
    {
      "constant": true,
      "inputs": [],
      "name": "owner",
      "outputs": [
        {
          "name": "",
          "type": "address"
        }
      ],
      "payable": false,
      "stateMutability": "view",
      "type": "function"
    },
    {
      "constant": true,
      "inputs": [
        {
          "name": "_gyan",
          "type": "uint256"
        }
      ],
      "name": "getKarmaToBurn",
      "outputs": [
        {
          "name": "",
          "type": "uint256"
        }
      ],
      "payable": false,
      "stateMutability": "view",
      "type": "function"
    },
    {
      "constant": true,
      "inputs": [
        {
          "name": "_id",
          "type": "bytes32"
        }
      ],
      "name": "getGyan",
      "outputs": [
        {
          "name": "",
          "type": "uint256"
        }
      ],
      "payable": false,
      "stateMutability": "view",
      "type": "function"
    },
    {
      "constant": true,
      "inputs": [
        {
          "name": "_id",
          "type": "bytes32"
        },
        {
          "name": "_assessmentRule",
          "type": "bytes32"
        }
      ],
      "name": "getAssessmentValueOf",
      "outputs": [
        {
          "name": "",
          "type": "uint256"
        }
      ],
      "payable": false,
      "stateMutability": "view",
      "type": "function"
    },
    {
      "constant": true,
      "inputs": [
        {
          "name": "_id",
          "type": "bytes32"
        }
      ],
      "name": "getNonAcademicGyan",
      "outputs": [
        {
          "name": "",
          "type": "uint256"
        }
      ],
      "payable": false,
      "stateMutability": "view",
      "type": "function"
    },
    {
      "constant": false,
      "inputs": [
        {
          "name": "_id",
          "type": "bytes32"
        },
        {
          "name": "_participantAddress",
          "type": "address"
        },
        {
          "name": "_scholarshipId",
          "type": "bytes32"
        }
      ],
      "name": "join",
      "outputs": [
        {
          "name": "",
          "type": "bool"
        }
      ],
      "payable": false,
      "stateMutability": "nonpayable",
      "type": "function"
    },
    {
      "constant": false,
      "inputs": [
        {
          "name": "addr",
          "type": "address"
        },
        {
          "name": "roleName",
          "type": "string"
        }
      ],
      "name": "adminAddRole",
      "outputs": [],
      "payable": false,
      "stateMutability": "nonpayable",
      "type": "function"
    },
    {
      "constant": true,
      "inputs": [
        {
          "name": "_totalAcademicGyan",
          "type": "uint256"
        },
        {
          "name": "_percentGyan",
          "type": "uint256"
        }
      ],
      "name": "getAssessedAcademicGyan",
      "outputs": [
        {
          "name": "",
          "type": "uint256"
        }
      ],
      "payable": false,
      "stateMutability": "pure",
      "type": "function"
    },
    {
      "constant": true,
      "inputs": [],
      "name": "ROLE_ADMIN",
      "outputs": [
        {
          "name": "",
          "type": "string"
        }
      ],
      "payable": false,
      "stateMutability": "view",
      "type": "function"
    },
    {
      "constant": true,
      "inputs": [
        {
          "name": "_id",
          "type": "bytes32"
        }
      ],
      "name": "getLearningHours",
      "outputs": [
        {
          "name": "",
          "type": "uint256"
        }
      ],
      "payable": false,
      "stateMutability": "view",
      "type": "function"
    },
    {
      "constant": true,
      "inputs": [],
      "name": "gyanCoin",
      "outputs": [
        {
          "name": "",
          "type": "address"
        }
      ],
      "payable": false,
      "stateMutability": "view",
      "type": "function"
    },
    {
      "constant": false,
      "inputs": [
        {
          "name": "newOwner",
          "type": "address"
        }
      ],
      "name": "transferOwnership",
      "outputs": [],
      "payable": false,
      "stateMutability": "nonpayable",
      "type": "function"
    },
    {
      "inputs": [
        {
          "name": "_karma",
          "type": "address"
        },
        {
          "name": "_gyan",
          "type": "address"
        },
        {
          "name": "_scholarships",
          "type": "address"
        }
      ],
      "payable": false,
      "stateMutability": "nonpayable",
      "type": "constructor"
    },
    {
      "anonymous": false,
      "inputs": [
        {
          "indexed": false,
          "name": "_id",
          "type": "bytes32"
        },
        {
          "indexed": false,
          "name": "_type",
          "type": "bytes32"
        },
        {
          "indexed": false,
          "name": "pbNode",
          "type": "address"
        }
      ],
      "name": "CollectionCreate",
      "type": "event"
    },
    {
      "anonymous": false,
      "inputs": [
        {
          "indexed": false,
          "name": "_id",
          "type": "bytes32"
        },
        {
          "indexed": false,
          "name": "_participantAddress",
          "type": "address"
        },
        {
          "indexed": false,
          "name": "pbNode",
          "type": "address"
        }
      ],
      "name": "CollectionJoin",
      "type": "event"
    },
    {
      "anonymous": false,
      "inputs": [
        {
          "indexed": false,
          "name": "_id",
          "type": "bytes32"
        },
        {
          "indexed": false,
          "name": "_participantAddress",
          "type": "address"
        },
        {
          "indexed": false,
          "name": "_assessmentResult",
          "type": "bytes32"
        },
        {
          "indexed": false,
          "name": "academicGyan",
          "type": "uint256"
        },
        {
          "indexed": false,
          "name": "engagementGyan",
          "type": "uint256"
        },
        {
          "indexed": false,
          "name": "commitmentGyan",
          "type": "uint256"
        },
        {
          "indexed": false,
          "name": "pbNode",
          "type": "address"
        }
      ],
      "name": "CollectionAssess",
      "type": "event"
    },
    {
      "anonymous": false,
      "inputs": [
        {
          "indexed": false,
          "name": "_id",
          "type": "bytes32"
        },
        {
          "indexed": false,
          "name": "_participantAddress",
          "type": "address"
        },
        {
          "indexed": false,
          "name": "pbNode",
          "type": "address"
        }
      ],
      "name": "CollectionDrop",
      "type": "event"
    },
    {
      "anonymous": false,
      "inputs": [
        {
          "indexed": false,
          "name": "addr",
          "type": "address"
        },
        {
          "indexed": false,
          "name": "roleName",
          "type": "string"
        }
      ],
      "name": "RoleAdded",
      "type": "event"
    },
    {
      "anonymous": false,
      "inputs": [
        {
          "indexed": false,
          "name": "addr",
          "type": "address"
        },
        {
          "indexed": false,
          "name": "roleName",
          "type": "string"
        }
      ],
      "name": "RoleRemoved",
      "type": "event"
    },
    {
      "anonymous": false,
      "inputs": [
        {
          "indexed": true,
          "name": "previousOwner",
          "type": "address"
        },
        {
          "indexed": true,
          "name": "newOwner",
          "type": "address"
        }
      ],
      "name": "OwnershipTransferred",
      "type": "event"
    }
  ],
  "bytecode": "0x60806040523480156200001157600080fd5b5060405160608062004417833981018060405281019080805190602001909291908051906020019092919080519060200190929190505050828282336000806101000a81548173ffffffffffffffffffffffffffffffffffffffff021916908373ffffffffffffffffffffffffffffffffffffffff160217905550620000dc336040805190810160405280600581526020017f61646d696e000000000000000000000000000000000000000000000000000000815250620002b2640100000000026401000000009004565b6200012c336040805190810160405280600781526020017f706172746e657200000000000000000000000000000000000000000000000000815250620002b2640100000000026401000000009004565b600073ffffffffffffffffffffffffffffffffffffffff168373ffffffffffffffffffffffffffffffffffffffff16141515156200016957600080fd5b600073ffffffffffffffffffffffffffffffffffffffff168273ffffffffffffffffffffffffffffffffffffffff1614151515620001a657600080fd5b600073ffffffffffffffffffffffffffffffffffffffff168173ffffffffffffffffffffffffffffffffffffffff1614151515620001e357600080fd5b82600260006101000a81548173ffffffffffffffffffffffffffffffffffffffff021916908373ffffffffffffffffffffffffffffffffffffffff16021790555081600360006101000a81548173ffffffffffffffffffffffffffffffffffffffff021916908373ffffffffffffffffffffffffffffffffffffffff16021790555080600460006101000a81548173ffffffffffffffffffffffffffffffffffffffff021916908373ffffffffffffffffffffffffffffffffffffffff16021790555050505050505062000476565b62000341826001836040518082805190602001908083835b602083101515620002f15780518252602082019150602081019050602083039250620002ca565b6001836020036101000a0380198251168184511680821785525050505050509050019150509081526020016040518091039020620004186401000000000262003e8f179091906401000000009004565b7fbfec83d64eaa953f2708271a023ab9ee82057f8f3578d548c1a4ba0b5b7004898282604051808373ffffffffffffffffffffffffffffffffffffffff1673ffffffffffffffffffffffffffffffffffffffff16815260200180602001828103825283818151815260200191508051906020019080838360005b83811015620003d8578082015181840152602081019050620003bb565b50505050905090810190601f168015620004065780820380516001836020036101000a031916815260200191505b50935050505060405180910390a15050565b60018260000160008373ffffffffffffffffffffffffffffffffffffffff1673ffffffffffffffffffffffffffffffffffffffff16815260200190815260200160002060006101000a81548160ff0219169083151502179055505050565b613f9180620004866000396000f300608060405260043610610180576000357c0100000000000000000000000000000000000000000000000000000000900463ffffffff1680630988ca8c146101855780630b0235be1461020e57806318de998f146102945780631d5fb26a146102eb578063217fe6c61461035e5780632b2fbbd7146103ff5780633762c63614610454578063397a7e91146104a95780633cf5040a146104ee5780634e75ce661461053b57806354f6127f146106dc5780635bc73871146108015780635d6f4f5e1461085857806364155547146108c157806376586fd3146109515780637f2aeea4146109c25780638748ca8c14610a0f57806388cee87e14610a9a5780638da5cb5b14610b235780639314ddb314610b7a57806396f99b6e14610bbb578063a1983fe114610c00578063a605002f14610c53578063afd2017014610c98578063b25fa92c14610d0f578063cc41898e14610d98578063d391014b14610de3578063dd5075fc14610e73578063e9f9f17814610eb8578063f2fde38b14610f0f575b600080fd5b34801561019157600080fd5b5061020c600480360381019080803573ffffffffffffffffffffffffffffffffffffffff169060200190929190803590602001908201803590602001908080601f0160208091040260200160405190810160405280939291908181526020018383808284378201915050505050509192919290505050610f52565b005b34801561021a57600080fd5b5061023d6004803603810190808035600019169060200190929190505050610fd3565b6040518080602001828103825283818151815260200191508051906020019060200280838360005b83811015610280578082015181840152602081019050610265565b505050509050019250505060405180910390f35b3480156102a057600080fd5b506102a961107f565b604051808273ffffffffffffffffffffffffffffffffffffffff1673ffffffffffffffffffffffffffffffffffffffff16815260200191505060405180910390f35b3480156102f757600080fd5b5061033a6004803603810190808035600019169060200190929190803573ffffffffffffffffffffffffffffffffffffffff1690602001909291905050506110a5565b60405180848152602001838152602001828152602001935050505060405180910390f35b34801561036a57600080fd5b506103e5600480360381019080803573ffffffffffffffffffffffffffffffffffffffff169060200190929190803590602001908201803590602001908080601f016020809104026020016040519081016040528093929190818152602001838380828437820191505050505050919291929050505061126a565b604051808215151515815260200191505060405180910390f35b34801561040b57600080fd5b5061043e6004803603810190808035906020019092919080359060200190929190803590602001909291905050506112f1565b6040518082815260200191505060405180910390f35b34801561046057600080fd5b50610493600480360381019080803590602001909291908035906020019092919080359060200190929190505050611347565b6040518082815260200191505060405180910390f35b3480156104b557600080fd5b506104d8600480360381019080803560001916906020019092919050505061139d565b6040518082815260200191505060405180910390f35b3480156104fa57600080fd5b5061051d60048036038101908080356000191690602001909291905050506113c5565b60405180826000191660001916815260200191505060405180910390f35b34801561054757600080fd5b506106c26004803603810190808035600019169060200190929190803573ffffffffffffffffffffffffffffffffffffffff1690602001909291908035600019169060200190929190803590602001909291908035906020019092919080359060200190929190803590602001908201803590602001908080602002602001604051908101604052809392919081815260200183836020028082843782019150505050505091929192908035906020019082018035906020019080806020026020016040519081016040528093929190818152602001838360200280828437820191505050505050919291929080359060200190820180359060200190808060200260200160405190810160405280939291908181526020018383602002808284378201915050505050509192919290803590602001908201803590602001908080602002602001604051908101604052809392919081815260200183836020028082843782019150505050505091929192905050506113ed565b604051808215151515815260200191505060405180910390f35b3480156106e857600080fd5b5061070b6004803603810190808035600019169060200190929190505050611a3e565b60405180886000191660001916815260200180602001806020018781526020018681526020018573ffffffffffffffffffffffffffffffffffffffff1673ffffffffffffffffffffffffffffffffffffffff168152602001848152602001838103835289818151815260200191508051906020019060200280838360005b838110156107a4578082015181840152602081019050610789565b50505050905001838103825288818151815260200191508051906020019060200280838360005b838110156107e65780820151818401526020810190506107cb565b50505050905001995050505050505050505060405180910390f35b34801561080d57600080fd5b50610816611c05565b604051808273ffffffffffffffffffffffffffffffffffffffff1673ffffffffffffffffffffffffffffffffffffffff16815260200191505060405180910390f35b34801561086457600080fd5b506108a76004803603810190808035600019169060200190929190803573ffffffffffffffffffffffffffffffffffffffff169060200190929190505050611c2b565b604051808215151515815260200191505060405180910390f35b3480156108cd57600080fd5b506108d6611f77565b6040518080602001828103825283818151815260200191508051906020019080838360005b838110156109165780820151818401526020810190506108fb565b50505050905090810190601f1680156109435780820380516001836020036101000a031916815260200191505b509250505060405180910390f35b34801561095d57600080fd5b506109806004803603810190808035600019169060200190929190505050611fb0565b604051808273ffffffffffffffffffffffffffffffffffffffff1673ffffffffffffffffffffffffffffffffffffffff16815260200191505060405180910390f35b3480156109ce57600080fd5b506109f16004803603810190808035600019169060200190929190505050611ff8565b60405180826000191660001916815260200191505060405180910390f35b348015610a1b57600080fd5b50610a806004803603810190808035600019169060200190929190803573ffffffffffffffffffffffffffffffffffffffff16906020019092919080356000191690602001909291908035906020019092919080359060200190929190505050612020565b604051808215151515815260200191505060405180910390f35b348015610aa657600080fd5b50610b21600480360381019080803573ffffffffffffffffffffffffffffffffffffffff169060200190929190803590602001908201803590602001908080601f016020809104026020016040519081016040528093929190818152602001838380828437820191505050505050919291929050505061286f565b005b348015610b2f57600080fd5b50610b386128bc565b604051808273ffffffffffffffffffffffffffffffffffffffff1673ffffffffffffffffffffffffffffffffffffffff16815260200191505060405180910390f35b348015610b8657600080fd5b50610ba5600480360381019080803590602001909291905050506128e1565b6040518082815260200191505060405180910390f35b348015610bc757600080fd5b50610bea6004803603810190808035600019169060200190929190505050612ad4565b6040518082815260200191505060405180910390f35b348015610c0c57600080fd5b50610c3d60048036038101908080356000191690602001909291908035600019169060200190929190505050612b1c565b6040518082815260200191505060405180910390f35b348015610c5f57600080fd5b50610c826004803603810190808035600019169060200190929190505050612b5e565b6040518082815260200191505060405180910390f35b348015610ca457600080fd5b50610cf56004803603810190808035600019169060200190929190803573ffffffffffffffffffffffffffffffffffffffff1690602001909291908035600019169060200190929190505050612b86565b604051808215151515815260200191505060405180910390f35b348015610d1b57600080fd5b50610d96600480360381019080803573ffffffffffffffffffffffffffffffffffffffff169060200190929190803590602001908201803590602001908080601f016020809104026020016040519081016040528093929190818152602001838380828437820191505050505050919291929050505061386e565b005b348015610da457600080fd5b50610dcd60048036038101908080359060200190929190803590602001909291905050506138bb565b6040518082815260200191505060405180910390f35b348015610def57600080fd5b50610df86138eb565b6040518080602001828103825283818151815260200191508051906020019080838360005b83811015610e38578082015181840152602081019050610e1d565b50505050905090810190601f168015610e655780820380516001836020036101000a031916815260200191505b509250505060405180910390f35b348015610e7f57600080fd5b50610ea26004803603810190808035600019169060200190929190505050613924565b6040518082815260200191505060405180910390f35b348015610ec457600080fd5b50610ecd61394c565b604051808273ffffffffffffffffffffffffffffffffffffffff1673ffffffffffffffffffffffffffffffffffffffff16815260200191505060405180910390f35b348015610f1b57600080fd5b50610f50600480360381019080803573ffffffffffffffffffffffffffffffffffffffff169060200190929190505050613972565b005b610fcf826001836040518082805190602001908083835b602083101515610f8e5780518252602082019150602081019050602083039250610f69565b6001836020036101000a0380198251168184511680821785525050505050509050019150509081526020016040518091039020613ac790919063ffffffff16565b5050565b6060600560008360001916600019168152602001908152602001600020600a0180548060200260200160405190810160405280929190818152602001828054801561107357602002820191906000526020600020905b8160009054906101000a900473ffffffffffffffffffffffffffffffffffffffff1673ffffffffffffffffffffffffffffffffffffffff1681526020019060010190808311611029575b50505050509050919050565b600260009054906101000a900473ffffffffffffffffffffffffffffffffffffffff1681565b600080600060056000866000191660001916815260200190815260200160002060100160007f61636164656d696300000000000000000000000000000000000000000000000060001916815260200190815260200160002060008573ffffffffffffffffffffffffffffffffffffffff1673ffffffffffffffffffffffffffffffffffffffff1681526020019081526020016000205460056000876000191660001916815260200190815260200160002060100160007f656e676167656d656e740000000000000000000000000000000000000000000060001916815260200190815260200160002060008673ffffffffffffffffffffffffffffffffffffffff1673ffffffffffffffffffffffffffffffffffffffff1681526020019081526020016000205460056000886000191660001916815260200190815260200160002060100160007f636f6d6d69746d656e740000000000000000000000000000000000000000000060001916815260200190815260200160002060008773ffffffffffffffffffffffffffffffffffffffff1673ffffffffffffffffffffffffffffffffffffffff168152602001908152602001600020549250925092509250925092565b60006112e9836001846040518082805190602001908083835b6020831015156112a85780518252602082019150602081019050602083039250611283565b6001836020036101000a0380198251168184511680821785525050505050509050019150509081526020016040518091039020613ae090919063ffffffff16565b905092915050565b600061133e6064611330846113226064611314898b613b3990919063ffffffff16565b613b7490919063ffffffff16565b613b3990919063ffffffff16565b613b7490919063ffffffff16565b90509392505050565b6000611394606461138684611378606461136a898b613b3990919063ffffffff16565b613b7490919063ffffffff16565b613b3990919063ffffffff16565b613b7490919063ffffffff16565b90509392505050565b6000600560008360001916600019168152602001908152602001600020600201549050919050565b6000600560008360001916600019168152602001908152602001600020600001549050919050565b6000806040805190810160405280600781526020017f706172746e6572000000000000000000000000000000000000000000000000008152506114303382610f52565b60007f0100000000000000000000000000000000000000000000000000000000000000028d600060208110151561146357fe5b1a7f0100000000000000000000000000000000000000000000000000000000000000027effffffffffffffffffffffffffffffffffffffffffffffffffffffffffffff1916141515156114b557600080fd5b6000600560008f60001916600019168152602001908152602001600020600501541415156114e257600080fd5b600073ffffffffffffffffffffffffffffffffffffffff168c73ffffffffffffffffffffffffffffffffffffffff161415151561151e57600080fd5b60007f0100000000000000000000000000000000000000000000000000000000000000028b600060208110151561155157fe5b1a7f0100000000000000000000000000000000000000000000000000000000000000027effffffffffffffffffffffffffffffffffffffffffffffffffffffffffffff1916141515156115a357600080fd5b6000891115156115b257600080fd5b6000881115156115c157600080fd5b600084511115156115d157600080fd5b60008a1115156115e057600080fd5b855187511415156115f057600080fd5b600360009054906101000a900473ffffffffffffffffffffffffffffffffffffffff1673ffffffffffffffffffffffffffffffffffffffff16638f74c6ac8d6040518263ffffffff167c0100000000000000000000000000000000000000000000000000000000028152600401808273ffffffffffffffffffffffffffffffffffffffff1673ffffffffffffffffffffffffffffffffffffffff168152602001915050602060405180830381600087803b1580156116ad57600080fd5b505af11580156116c1573d6000803e3d6000fd5b505050506040513d60208110156116d757600080fd5b8101908080519060200190929190505050888a011115806116f9575089888a01145b151561170457600080fd5b8b600560008f6000191660001916815260200190815260200160002060040160006101000a81548173ffffffffffffffffffffffffffffffffffffffff021916908373ffffffffffffffffffffffffffffffffffffffff1602179055508a600560008f60001916600019168152602001908152602001600020600101816000191690555088600560008f600019166000191681526020019081526020016000206002018190555087600560008f600019166000191681526020019081526020016000206003018190555042600560008f600019166000191681526020019081526020016000206005018190555083600560008f600019166000191681526020019081526020016000206009019080519060200190611823929190613eed565b5089600560008f600019166000191681526020019081526020016000206006018190555084600081518110151561185657fe5b90602001906020020151600560008f60001916600019168152602001908152602001600020600c018190555084600181518110151561189157fe5b90602001906020020151600560008f60001916600019168152602001908152602001600020600d0181905550600091505b86518210156119a75785828151811015156118d957fe5b90602001906020020151600560008f60001916600019168152602001908152602001600020600b016000898581518110151561191157fe5b906020019060200201516000191660001916815260200190815260200160002081905550600560008e60001916600019168152602001908152602001600020600e01878381518110151561196157fe5b90602001906020020151908060018154018082558091505090600182039060005260206000200160009091929091909150906000191690555081806001019250506118c2565b7f30b0942e371970fe386d51129e4e29a429b6045bd6f1c0ac0592f259769a35248d8c3360405180846000191660001916815260200183600019166000191681526020018273ffffffffffffffffffffffffffffffffffffffff1673ffffffffffffffffffffffffffffffffffffffff168152602001935050505060405180910390a16001925050509a9950505050505050505050565b600060608060008060008060056000896000191660001916815260200190815260200160002060010154600560008a60001916600019168152602001908152602001600020600901600560008b60001916600019168152602001908152602001600020600e01600560008c6000191660001916815260200190815260200160002060020154600560008d6000191660001916815260200190815260200160002060030154600560008e6000191660001916815260200190815260200160002060040160009054906101000a900473ffffffffffffffffffffffffffffffffffffffff16600560008f600019166000191681526020019081526020016000206005015485805480602002602001604051908101604052809291908181526020018280548015611b8f57602002820191906000526020600020905b81546000191681526020019060010190808311611b77575b5050505050955084805480602002602001604051908101604052809291908181526020018280548015611be557602002820191906000526020600020905b81546000191681526020019060010190808311611bcd575b505050505094509650965096509650965096509650919395979092949650565b600460009054906101000a900473ffffffffffffffffffffffffffffffffffffffff1681565b60006040805190810160405280600781526020017f706172746e657200000000000000000000000000000000000000000000000000815250611c6d3382610f52565b60007f010000000000000000000000000000000000000000000000000000000000000002846000602081101515611ca057fe5b1a7f0100000000000000000000000000000000000000000000000000000000000000027effffffffffffffffffffffffffffffffffffffffffffffffffffffffffffff191614151515611cf257600080fd5b60006005600086600019166000191681526020019081526020016000206005015414151515611d2057600080fd5b600073ffffffffffffffffffffffffffffffffffffffff168373ffffffffffffffffffffffffffffffffffffffff1614151515611d5c57600080fd5b600060056000866000191660001916815260200190815260200160002060100160007f61636164656d696300000000000000000000000000000000000000000000000060001916815260200190815260200160002060008573ffffffffffffffffffffffffffffffffffffffff1673ffffffffffffffffffffffffffffffffffffffff16815260200190815260200160002054141515611dfb57600080fd5b600060056000866000191660001916815260200190815260200160002060080160008573ffffffffffffffffffffffffffffffffffffffff1673ffffffffffffffffffffffffffffffffffffffff16815260200190815260200160002054141515611e6557600080fd5b4260056000866000191660001916815260200190815260200160002060080160008573ffffffffffffffffffffffffffffffffffffffff1673ffffffffffffffffffffffffffffffffffffffff168152602001908152602001600020819055507f9f45ee005a96e1a0db65f5eecd0497495a0219adcaef5741b571614b9602754f8484336040518084600019166000191681526020018373ffffffffffffffffffffffffffffffffffffffff1673ffffffffffffffffffffffffffffffffffffffff1681526020018273ffffffffffffffffffffffffffffffffffffffff1673ffffffffffffffffffffffffffffffffffffffff168152602001935050505060405180910390a1600191505092915050565b6040805190810160405280600781526020017f706172746e65720000000000000000000000000000000000000000000000000081525081565b600060056000836000191660001916815260200190815260200160002060040160009054906101000a900473ffffffffffffffffffffffffffffffffffffffff169050919050565b6000600560008360001916600019168152602001908152602001600020600101549050919050565b60008060008060006040805190810160405280600781526020017f706172746e6572000000000000000000000000000000000000000000000000008152506120683382610f52565b60007f0100000000000000000000000000000000000000000000000000000000000000028b600060208110151561209b57fe5b1a7f0100000000000000000000000000000000000000000000000000000000000000027effffffffffffffffffffffffffffffffffffffffffffffffffffffffffffff1916141515156120ed57600080fd5b6000600560008d60001916600019168152602001908152602001600020600501541415151561211b57600080fd5b600073ffffffffffffffffffffffffffffffffffffffff168a73ffffffffffffffffffffffffffffffffffffffff161415151561215757600080fd5b6000600560008d60001916600019168152602001908152602001600020600b0160008b600019166000191681526020019081526020016000205411151561219d57600080fd5b6000600560008d6000191660001916815260200190815260200160002060080160008c73ffffffffffffffffffffffffffffffffffffffff1673ffffffffffffffffffffffffffffffffffffffff1681526020019081526020016000205414151561220757600080fd5b6000600560008d6000191660001916815260200190815260200160002060100160007f61636164656d696300000000000000000000000000000000000000000000000060001916815260200190815260200160002060008c73ffffffffffffffffffffffffffffffffffffffff1673ffffffffffffffffffffffffffffffffffffffff168152602001908152602001600020541415156122a657600080fd5b612305600560008d6000191660001916815260200190815260200160002060020154600560008e60001916600019168152602001908152602001600020600b0160008c60001916600019168152602001908152602001600020546138bb565b945061234e600560008d6000191660001916815260200190815260200160002060030154600560008e60001916600019168152602001908152602001600020600c01548a611347565b9350612397600560008d6000191660001916815260200190815260200160002060030154600560008e60001916600019168152602001908152602001600020600d0154896112f1565b925082848601019150600360009054906101000a900473ffffffffffffffffffffffffffffffffffffffff1673ffffffffffffffffffffffffffffffffffffffff1663da1919b38b846040518363ffffffff167c0100000000000000000000000000000000000000000000000000000000028152600401808373ffffffffffffffffffffffffffffffffffffffff1673ffffffffffffffffffffffffffffffffffffffff16815260200182815260200192505050600060405180830381600087803b15801561246557600080fd5b505af1158015612479573d6000803e3d6000fd5b50505050600360009054906101000a900473ffffffffffffffffffffffffffffffffffffffff1673ffffffffffffffffffffffffffffffffffffffff1663da1919b3600560008e6000191660001916815260200190815260200160002060040160009054906101000a900473ffffffffffffffffffffffffffffffffffffffff16846040518363ffffffff167c0100000000000000000000000000000000000000000000000000000000028152600401808373ffffffffffffffffffffffffffffffffffffffff1673ffffffffffffffffffffffffffffffffffffffff16815260200182815260200192505050600060405180830381600087803b15801561258057600080fd5b505af1158015612594573d6000803e3d6000fd5b50505050600560008c60001916600019168152602001908152602001600020600b0160008a6000191660001916815260200190815260200160002054600560008d6000191660001916815260200190815260200160002060100160007f61636164656d696300000000000000000000000000000000000000000000000060001916815260200190815260200160002060008c73ffffffffffffffffffffffffffffffffffffffff1673ffffffffffffffffffffffffffffffffffffffff1681526020019081526020016000208190555087600560008d6000191660001916815260200190815260200160002060100160007f656e676167656d656e740000000000000000000000000000000000000000000060001916815260200190815260200160002060008c73ffffffffffffffffffffffffffffffffffffffff1673ffffffffffffffffffffffffffffffffffffffff1681526020019081526020016000208190555086600560008d6000191660001916815260200190815260200160002060100160007f636f6d6d69746d656e740000000000000000000000000000000000000000000060001916815260200190815260200160002060008c73ffffffffffffffffffffffffffffffffffffffff1673ffffffffffffffffffffffffffffffffffffffff168152602001908152602001600020819055507f02856995b878bbe3391dbb6ee0435533dca0cbba6a16cf9c170f095f48a709808b8b8b888888336040518088600019166000191681526020018773ffffffffffffffffffffffffffffffffffffffff1673ffffffffffffffffffffffffffffffffffffffff16815260200186600019166000191681526020018581526020018481526020018381526020018273ffffffffffffffffffffffffffffffffffffffff1673ffffffffffffffffffffffffffffffffffffffff16815260200197505050505050505060405180910390a160019550505050505095945050505050565b6128ae336040805190810160405280600581526020017f61646d696e000000000000000000000000000000000000000000000000000000815250610f52565b6128b88282613b8f565b5050565b6000809054906101000a900473ffffffffffffffffffffffffffffffffffffffff1681565b60008060006129e161016d6129d360646129c56005600260009054906101000a900473ffffffffffffffffffffffffffffffffffffffff1673ffffffffffffffffffffffffffffffffffffffff166318160ddd6040518163ffffffff167c0100000000000000000000000000000000000000000000000000000000028152600401602060405180830381600087803b15801561297c57600080fd5b505af1158015612990573d6000803e3d6000fd5b505050506040513d60208110156129a657600080fd5b8101908080519060200190929190505050613b3990919063ffffffff16565b613b7490919063ffffffff16565b613b7490919063ffffffff16565b9150600360009054906101000a900473ffffffffffffffffffffffffffffffffffffffff1673ffffffffffffffffffffffffffffffffffffffff1663a01b00a26040518163ffffffff167c0100000000000000000000000000000000000000000000000000000000028152600401602060405180830381600087803b158015612a6957600080fd5b505af1158015612a7d573d6000803e3d6000fd5b505050506040513d6020811015612a9357600080fd5b81019080805190602001909291905050509050612acb612abc8284613b7490919063ffffffff16565b85613b3990919063ffffffff16565b92505050919050565b60006005600083600019166000191681526020019081526020016000206003015460056000846000191660001916815260200190815260200160002060020154019050919050565b6000600560008460001916600019168152602001908152602001600020600b016000836000191660001916815260200190815260200160002054905092915050565b6000600560008360001916600019168152602001908152602001600020600301549050919050565b60006040805190810160405280600781526020017f706172746e657200000000000000000000000000000000000000000000000000815250612bc83382610f52565b60007f010000000000000000000000000000000000000000000000000000000000000002856000602081101515612bfb57fe5b1a7f0100000000000000000000000000000000000000000000000000000000000000027effffffffffffffffffffffffffffffffffffffffffffffffffffffffffffff191614151515612c4d57600080fd5b60006005600087600019166000191681526020019081526020016000206005015414151515612c7b57600080fd5b600073ffffffffffffffffffffffffffffffffffffffff168473ffffffffffffffffffffffffffffffffffffffff1614151515612cb757600080fd5b600060056000876000191660001916815260200190815260200160002060070160008673ffffffffffffffffffffffffffffffffffffffff1673ffffffffffffffffffffffffffffffffffffffff16815260200190815260200160002054141515612d2157600080fd5b7f4e4100000000000000000000000000000000000000000000000000000000000083600019161415612fc157612d946005600087600019166000191681526020019081526020016000206003015460056000886000191660001916815260200190815260200160002060020154016128e1565b600260009054906101000a900473ffffffffffffffffffffffffffffffffffffffff1673ffffffffffffffffffffffffffffffffffffffff166370a08231866040518263ffffffff167c0100000000000000000000000000000000000000000000000000000000028152600401808273ffffffffffffffffffffffffffffffffffffffff1673ffffffffffffffffffffffffffffffffffffffff168152602001915050602060405180830381600087803b158015612e5157600080fd5b505af1158015612e65573d6000803e3d6000fd5b505050506040513d6020811015612e7b57600080fd5b810190808051906020019092919050505010151515612e9957600080fd5b600260009054906101000a900473ffffffffffffffffffffffffffffffffffffffff1673ffffffffffffffffffffffffffffffffffffffff166379cc679085612f1f600560008a6000191660001916815260200190815260200160002060030154600560008b6000191660001916815260200190815260200160002060020154016128e1565b6040518363ffffffff167c0100000000000000000000000000000000000000000000000000000000028152600401808373ffffffffffffffffffffffffffffffffffffffff1673ffffffffffffffffffffffffffffffffffffffff16815260200182815260200192505050600060405180830381600087803b158015612fa457600080fd5b505af1158015612fb8573d6000803e3d6000fd5b505050506136d9565b6000600460009054906101000a900473ffffffffffffffffffffffffffffffffffffffff1673ffffffffffffffffffffffffffffffffffffffff1663d45c4435856040518263ffffffff167c0100000000000000000000000000000000000000000000000000000000028152600401808260001916600019168152602001915050602060405180830381600087803b15801561305c57600080fd5b505af1158015613070573d6000803e3d6000fd5b505050506040513d602081101561308657600080fd5b8101908080519060200190929190505050141515156130a457600080fd5b7f7075626c69630000000000000000000000000000000000000000000000000000600102600460009054906101000a900473ffffffffffffffffffffffffffffffffffffffff1673ffffffffffffffffffffffffffffffffffffffff16637f2aeea4856040518263ffffffff167c0100000000000000000000000000000000000000000000000000000000028152600401808260001916600019168152602001915050602060405180830381600087803b15801561316157600080fd5b505af1158015613175573d6000803e3d6000fd5b505050506040513d602081101561318b57600080fd5b8101908080519060200190929190505050600019161415156131ac57600080fd5b6000600460009054906101000a900473ffffffffffffffffffffffffffffffffffffffff1673ffffffffffffffffffffffffffffffffffffffff16636785ce0985876040518363ffffffff167c01000000000000000000000000000000000000000000000000000000000281526004018083600019166000191681526020018273ffffffffffffffffffffffffffffffffffffffff1673ffffffffffffffffffffffffffffffffffffffff16815260200192505050602060405180830381600087803b15801561327b57600080fd5b505af115801561328f573d6000803e3d6000fd5b505050506040513d60208110156132a557600080fd5b8101908080519060200190929190505050141515156132c357600080fd5b61330a6005600087600019166000191681526020019081526020016000206003015460056000886000191660001916815260200190815260200160002060020154016128e1565b600260009054906101000a900473ffffffffffffffffffffffffffffffffffffffff1673ffffffffffffffffffffffffffffffffffffffff166370a08231600460009054906101000a900473ffffffffffffffffffffffffffffffffffffffff1673ffffffffffffffffffffffffffffffffffffffff1663206d54db876040518263ffffffff167c0100000000000000000000000000000000000000000000000000000000028152600401808260001916600019168152602001915050602060405180830381600087803b1580156133e157600080fd5b505af11580156133f5573d6000803e3d6000fd5b505050506040513d602081101561340b57600080fd5b81019080805190602001909291905050506040518263ffffffff167c0100000000000000000000000000000000000000000000000000000000028152600401808273ffffffffffffffffffffffffffffffffffffffff1673ffffffffffffffffffffffffffffffffffffffff168152602001915050602060405180830381600087803b15801561349a57600080fd5b505af11580156134ae573d6000803e3d6000fd5b505050506040513d60208110156134c457600080fd5b8101908080519060200190929190505050101515156134e257600080fd5b600260009054906101000a900473ffffffffffffffffffffffffffffffffffffffff1673ffffffffffffffffffffffffffffffffffffffff166379cc6790600460009054906101000a900473ffffffffffffffffffffffffffffffffffffffff1673ffffffffffffffffffffffffffffffffffffffff1663206d54db866040518263ffffffff167c0100000000000000000000000000000000000000000000000000000000028152600401808260001916600019168152602001915050602060405180830381600087803b1580156135b957600080fd5b505af11580156135cd573d6000803e3d6000fd5b505050506040513d60208110156135e357600080fd5b810190808051906020019092919050505061363b600560008a6000191660001916815260200190815260200160002060030154600560008b6000191660001916815260200190815260200160002060020154016128e1565b6040518363ffffffff167c0100000000000000000000000000000000000000000000000000000000028152600401808373ffffffffffffffffffffffffffffffffffffffff1673ffffffffffffffffffffffffffffffffffffffff16815260200182815260200192505050600060405180830381600087803b1580156136c057600080fd5b505af11580156136d4573d6000803e3d6000fd5b505050505b4260056000876000191660001916815260200190815260200160002060070160008673ffffffffffffffffffffffffffffffffffffffff1673ffffffffffffffffffffffffffffffffffffffff16815260200190815260200160002081905550600560008660001916600019168152602001908152602001600020600a018490806001815401808255809150509060018203906000526020600020016000909192909190916101000a81548173ffffffffffffffffffffffffffffffffffffffff021916908373ffffffffffffffffffffffffffffffffffffffff160217905550507fd3856442e256aceae82045cf13ccd3030c8a896aa8605f308aa4c919614b4b848585336040518084600019166000191681526020018373ffffffffffffffffffffffffffffffffffffffff1673ffffffffffffffffffffffffffffffffffffffff1681526020018273ffffffffffffffffffffffffffffffffffffffff1673ffffffffffffffffffffffffffffffffffffffff168152602001935050505060405180910390a160019150509392505050565b6138ad336040805190810160405280600581526020017f61646d696e000000000000000000000000000000000000000000000000000000815250610f52565b6138b78282613ce0565b5050565b60006138e360646138d58486613b3990919063ffffffff16565b613b7490919063ffffffff16565b905092915050565b6040805190810160405280600581526020017f61646d696e00000000000000000000000000000000000000000000000000000081525081565b6000600560008360001916600019168152602001908152602001600020600601549050919050565b600360009054906101000a900473ffffffffffffffffffffffffffffffffffffffff1681565b6000809054906101000a900473ffffffffffffffffffffffffffffffffffffffff1673ffffffffffffffffffffffffffffffffffffffff163373ffffffffffffffffffffffffffffffffffffffff161415156139cd57600080fd5b600073ffffffffffffffffffffffffffffffffffffffff168173ffffffffffffffffffffffffffffffffffffffff1614151515613a0957600080fd5b8073ffffffffffffffffffffffffffffffffffffffff166000809054906101000a900473ffffffffffffffffffffffffffffffffffffffff1673ffffffffffffffffffffffffffffffffffffffff167f8be0079c531659141344cd1fd0a4f28419497f9722a3daafe3b4186f6b6457e060405160405180910390a3806000806101000a81548173ffffffffffffffffffffffffffffffffffffffff021916908373ffffffffffffffffffffffffffffffffffffffff16021790555050565b613ad18282613ae0565b1515613adc57600080fd5b5050565b60008260000160008373ffffffffffffffffffffffffffffffffffffffff1673ffffffffffffffffffffffffffffffffffffffff16815260200190815260200160002060009054906101000a900460ff16905092915050565b6000806000841415613b4e5760009150613b6d565b8284029050828482811515613b5f57fe5b04141515613b6957fe5b8091505b5092915050565b6000808284811515613b8257fe5b0490508091505092915050565b613c0c826001836040518082805190602001908083835b602083101515613bcb5780518252602082019150602081019050602083039250613ba6565b6001836020036101000a0380198251168184511680821785525050505050509050019150509081526020016040518091039020613e3190919063ffffffff16565b7fd211483f91fc6eff862467f8de606587a30c8fc9981056f051b897a418df803a8282604051808373ffffffffffffffffffffffffffffffffffffffff1673ffffffffffffffffffffffffffffffffffffffff16815260200180602001828103825283818151815260200191508051906020019080838360005b83811015613ca1578082015181840152602081019050613c86565b50505050905090810190601f168015613cce5780820380516001836020036101000a031916815260200191505b50935050505060405180910390a15050565b613d5d826001836040518082805190602001908083835b602083101515613d1c5780518252602082019150602081019050602083039250613cf7565b6001836020036101000a0380198251168184511680821785525050505050509050019150509081526020016040518091039020613e8f90919063ffffffff16565b7fbfec83d64eaa953f2708271a023ab9ee82057f8f3578d548c1a4ba0b5b7004898282604051808373ffffffffffffffffffffffffffffffffffffffff1673ffffffffffffffffffffffffffffffffffffffff16815260200180602001828103825283818151815260200191508051906020019080838360005b83811015613df2578082015181840152602081019050613dd7565b50505050905090810190601f168015613e1f5780820380516001836020036101000a031916815260200191505b50935050505060405180910390a15050565b60008260000160008373ffffffffffffffffffffffffffffffffffffffff1673ffffffffffffffffffffffffffffffffffffffff16815260200190815260200160002060006101000a81548160ff0219169083151502179055505050565b60018260000160008373ffffffffffffffffffffffffffffffffffffffff1673ffffffffffffffffffffffffffffffffffffffff16815260200190815260200160002060006101000a81548160ff0219169083151502179055505050565b828054828255906000526020600020908101928215613f2f579160200282015b82811115613f2e578251829060001916905591602001919060010190613f0d565b5b509050613f3c9190613f40565b5090565b613f6291905b80821115613f5e576000816000905550600101613f46565b5090565b905600a165627a7a72305820e3bc813d8135979d1eb0aa52f68edf4f41bc00d1bd208ab5bfe8ebeaddb7c89a0029",
  "source": "pragma solidity 0.4.23;\n\nimport './Collection/BaseCollection.sol';\n\ncontract CollectionContract is BaseCollection {\n\n\tfunction CollectionContract(\n\t\tKarmaCoin _karma,\n\t\tGyanCoin _gyan,\n\t\tScholarshipContract _scholarships\n\t) public BaseCollection(_karma, _gyan, _scholarships) {\n\t\t// basic functions here\n\n\t}\n\n}",
  "sourcePath": "/Users/aakash/WebstormProjects/pbether/contracts/CollectionContract.sol",
  "compiler": {
    "name": "solc",
    "version": "0.4.23+commit.124ca40d.Emscripten.clang"
  },
  "schemaVersion": "2.0.0",
  "updatedAt": "2018-06-13T12:42:42.464Z"
}