{
  "contractName": "GyanCoin",
  "abi": [
    {
      "constant": true,
      "inputs": [],
      "name": "name",
      "outputs": [
        {
          "name": "",
          "type": "string"
        }
      ],
      "payable": false,
      "stateMutability": "view",
      "type": "function"
    },
    {
      "constant": true,
      "inputs": [],
      "name": "karmaCoin",
      "outputs": [
        {
          "name": "",
          "type": "address"
        }
      ],
      "payable": false,
      "stateMutability": "view",
      "type": "function"
    },
    {
      "constant": true,
      "inputs": [],
      "name": "decimals",
      "outputs": [
        {
          "name": "",
          "type": "uint8"
        }
      ],
      "payable": false,
      "stateMutability": "view",
      "type": "function"
    },
    {
      "constant": true,
      "inputs": [],
      "name": "symbol",
      "outputs": [
        {
          "name": "",
          "type": "string"
        }
      ],
      "payable": false,
      "stateMutability": "view",
      "type": "function"
    },
    {
      "inputs": [
        {
          "name": "_karma",
          "type": "address"
        }
      ],
      "payable": false,
      "stateMutability": "nonpayable",
      "type": "constructor"
    },
    {
      "constant": true,
      "inputs": [],
      "name": "yesterdayMint",
      "outputs": [
        {
          "name": "",
          "type": "uint256"
        }
      ],
      "payable": false,
      "stateMutability": "view",
      "type": "function"
    },
    {
      "constant": true,
      "inputs": [],
      "name": "totalSupply",
      "outputs": [
        {
          "name": "",
          "type": "uint256"
        }
      ],
      "payable": false,
      "stateMutability": "view",
      "type": "function"
    },
    {
      "constant": false,
      "inputs": [
        {
          "name": "_to",
          "type": "address"
        },
        {
          "name": "_amount",
          "type": "uint256"
        }
      ],
      "name": "mintFor",
      "outputs": [],
      "payable": false,
      "stateMutability": "nonpayable",
      "type": "function"
    },
    {
      "constant": false,
      "inputs": [],
      "name": "mintRewards",
      "outputs": [],
      "payable": false,
      "stateMutability": "nonpayable",
      "type": "function"
    },
    {
      "constant": true,
      "inputs": [],
      "name": "dailyKarmaMint",
      "outputs": [
        {
          "name": "dailyMint",
          "type": "uint256"
        }
      ],
      "payable": false,
      "stateMutability": "view",
      "type": "function"
    },
    {
      "constant": true,
      "inputs": [],
      "name": "averageDailyPeers",
      "outputs": [
        {
          "name": "averagePeers",
          "type": "uint256"
        }
      ],
      "payable": false,
      "stateMutability": "view",
      "type": "function"
    },
    {
      "constant": true,
      "inputs": [
        {
          "name": "owner",
          "type": "address"
        }
      ],
      "name": "potentialKarmaReward",
      "outputs": [
        {
          "name": "",
          "type": "uint256"
        }
      ],
      "payable": false,
      "stateMutability": "view",
      "type": "function"
    },
    {
      "constant": true,
      "inputs": [
        {
          "name": "_owner",
          "type": "address"
        }
      ],
      "name": "floatingBalanceOf",
      "outputs": [
        {
          "name": "balance",
          "type": "uint256"
        }
      ],
      "payable": false,
      "stateMutability": "view",
      "type": "function"
    },
    {
      "constant": true,
      "inputs": [
        {
          "name": "_owner",
          "type": "address"
        }
      ],
      "name": "fixedBalanceOf",
      "outputs": [
        {
          "name": "balance",
          "type": "uint256"
        }
      ],
      "payable": false,
      "stateMutability": "view",
      "type": "function"
    }
  ],
  "bytecode": "0x60806040526040805190810160405280600481526020017f4759414e00000000000000000000000000000000000000000000000000000000815250600090805190602001906200005192919062000191565b506040805190810160405280600381526020017f47594e0000000000000000000000000000000000000000000000000000000000815250600190805190602001906200009f92919062000191565b506012600260006101000a81548160ff021916908360ff160217905550348015620000c957600080fd5b50604051602080620016e283398101806040528101908080519060200190929190505050600073ffffffffffffffffffffffffffffffffffffffff168173ffffffffffffffffffffffffffffffffffffffff16141515156200012a57600080fd5b80600a60006101000a81548173ffffffffffffffffffffffffffffffffffffffff021916908373ffffffffffffffffffffffffffffffffffffffff160217905550426005819055504260068190555060016007819055506103e86003819055505062000240565b828054600181600116156101000203166002900490600052602060002090601f016020900481019282601f10620001d457805160ff191683800117855562000205565b8280016001018555821562000205579182015b8281111562000204578251825591602001919060010190620001e7565b5b50905062000214919062000218565b5090565b6200023d91905b80821115620002395760008160009055506001016200021f565b5090565b90565b61149280620002506000396000f3006080604052600436106100c5576000357c0100000000000000000000000000000000000000000000000000000000900463ffffffff16806306fdde03146100ca57806318160ddd1461015a57806318de998f14610185578063234cb051146101dc578063313ce567146101f3578063368e4a8014610224578063598ec8e31461024f57806378eb0202146102a65780638f74c6ac146102fd57806395d89b4114610354578063a01b00a2146103e4578063da1919b31461040f578063ddd5a3001461045c575b600080fd5b3480156100d657600080fd5b506100df610487565b6040518080602001828103825283818151815260200191508051906020019080838360005b8381101561011f578082015181840152602081019050610104565b50505050905090810190601f16801561014c5780820380516001836020036101000a031916815260200191505b509250505060405180910390f35b34801561016657600080fd5b5061016f610525565b6040518082815260200191505060405180910390f35b34801561019157600080fd5b5061019a61052f565b604051808273ffffffffffffffffffffffffffffffffffffffff1673ffffffffffffffffffffffffffffffffffffffff16815260200191505060405180910390f35b3480156101e857600080fd5b506101f1610555565b005b3480156101ff57600080fd5b50610208610bdc565b604051808260ff1660ff16815260200191505060405180910390f35b34801561023057600080fd5b50610239610bef565b6040518082815260200191505060405180910390f35b34801561025b57600080fd5b50610290600480360381019080803573ffffffffffffffffffffffffffffffffffffffff169060200190929190505050610cf1565b6040518082815260200191505060405180910390f35b3480156102b257600080fd5b506102e7600480360381019080803573ffffffffffffffffffffffffffffffffffffffff169060200190929190505050610e03565b6040518082815260200191505060405180910390f35b34801561030957600080fd5b5061033e600480360381019080803573ffffffffffffffffffffffffffffffffffffffff169060200190929190505050610e4f565b6040518082815260200191505060405180910390f35b34801561036057600080fd5b50610369610e9b565b6040518080602001828103825283818151815260200191508051906020019080838360005b838110156103a957808201518184015260208101905061038e565b50505050905090810190601f1680156103d65780820380516001836020036101000a031916815260200191505b509250505060405180910390f35b3480156103f057600080fd5b506103f9610f39565b6040518082815260200191505060405180910390f35b34801561041b57600080fd5b5061045a600480360381019080803573ffffffffffffffffffffffffffffffffffffffff16906020019092919080359060200190929190505050610f43565b005b34801561046857600080fd5b50610471611270565b6040518082815260200191505060405180910390f35b60008054600181600116156101000203166002900480601f01602080910402602001604051908101604052809291908181526020018280546001816001161561010002031660029004801561051d5780601f106104f25761010080835404028352916020019161051d565b820191906000526020600020905b81548152906001019060200180831161050057829003601f168201915b505050505081565b6000600b54905090565b600a60009054906101000a900473ffffffffffffffffffffffffffffffffffffffff1681565b6000806201518060055401421015151561056e57600080fd5b620151806005540142101515610bd8574260058190555060045460038190555060006004819055506105ac600160075461133890919063ffffffff16565b60078190555062093a8060065401421015156105d2574260068190555060016007819055505b600091505b60096000600754815260200190815260200160002080549050821015610bb657610676600354610668606461065a6009600060075481526020019081526020016000208781548110151561062757fe5b9060005260206000200160009054906101000a900473ffffffffffffffffffffffffffffffffffffffff16600754611356565b6113b190919063ffffffff16565b6113ec90919063ffffffff16565b9050600a60009054906101000a900473ffffffffffffffffffffffffffffffffffffffff1673ffffffffffffffffffffffffffffffffffffffff1663da1919b3600960006007548152602001908152602001600020848154811015156106d857fe5b9060005260206000200160009054906101000a900473ffffffffffffffffffffffffffffffffffffffff1661075660646107488661073a606461072c604161071e610bef565b6113b190919063ffffffff16565b6113ec90919063ffffffff16565b6113b190919063ffffffff16565b6113ec90919063ffffffff16565b6040518363ffffffff167c0100000000000000000000000000000000000000000000000000000000028152600401808373ffffffffffffffffffffffffffffffffffffffff1673ffffffffffffffffffffffffffffffffffffffff16815260200182815260200192505050600060405180830381600087803b1580156107db57600080fd5b505af11580156107ef573d6000803e3d6000fd5b505050506108eb61084e6009600060075481526020019081526020016000208481548110151561081b57fe5b9060005260206000200160009054906101000a900473ffffffffffffffffffffffffffffffffffffffff16600754611356565b600c60006009600060075481526020019081526020016000208681548110151561087457fe5b9060005260206000200160009054906101000a900473ffffffffffffffffffffffffffffffffffffffff1673ffffffffffffffffffffffffffffffffffffffff1673ffffffffffffffffffffffffffffffffffffffff1681526020019081526020016000206000015461133890919063ffffffff16565b600c60006009600060075481526020019081526020016000208581548110151561091157fe5b9060005260206000200160009054906101000a900473ffffffffffffffffffffffffffffffffffffffff1673ffffffffffffffffffffffffffffffffffffffff1673ffffffffffffffffffffffffffffffffffffffff16815260200190815260200160002060000181905550610a756109d8600960006007548152602001908152602001600020848154811015156109a557fe5b9060005260206000200160009054906101000a900473ffffffffffffffffffffffffffffffffffffffff16600754611356565b600c6000600960006007548152602001908152602001600020868154811015156109fe57fe5b9060005260206000200160009054906101000a900473ffffffffffffffffffffffffffffffffffffffff1673ffffffffffffffffffffffffffffffffffffffff1673ffffffffffffffffffffffffffffffffffffffff1681526020019081526020016000206001015461140790919063ffffffff16565b600c600060096000600754815260200190815260200160002085815481101515610a9b57fe5b9060005260206000200160009054906101000a900473ffffffffffffffffffffffffffffffffffffffff1673ffffffffffffffffffffffffffffffffffffffff1673ffffffffffffffffffffffffffffffffffffffff16815260200190815260200160002060010181905550600860006007548152602001908152602001600020600060096000600754815260200190815260200160002084815481101515610b4057fe5b9060005260206000200160009054906101000a900473ffffffffffffffffffffffffffffffffffffffff1673ffffffffffffffffffffffffffffffffffffffff1673ffffffffffffffffffffffffffffffffffffffff1681526020019081526020016000206000905581806001019250506105d7565b6009600060075481526020019081526020016000206000610bd79190611420565b5b5050565b600260009054906101000a900460ff1681565b6000610cec61016d610cde6064610cd06005600a60009054906101000a900473ffffffffffffffffffffffffffffffffffffffff1673ffffffffffffffffffffffffffffffffffffffff166318160ddd6040518163ffffffff167c0100000000000000000000000000000000000000000000000000000000028152600401602060405180830381600087803b158015610c8757600080fd5b505af1158015610c9b573d6000803e3d6000fd5b505050506040513d6020811015610cb157600080fd5b81019080805190602001909291905050506113b190919063ffffffff16565b6113ec90919063ffffffff16565b6113ec90919063ffffffff16565b905090565b60008060008060009250600191505b600782111515610df857610d82600354610d7460646008600087815260200190815260200160002060008a73ffffffffffffffffffffffffffffffffffffffff1673ffffffffffffffffffffffffffffffffffffffff168152602001908152602001600020546113b190919063ffffffff16565b6113ec90919063ffffffff16565b9050610de9610dda6064610dcc84610dbe6064610db06041610da2610bef565b6113b190919063ffffffff16565b6113ec90919063ffffffff16565b6113b190919063ffffffff16565b6113ec90919063ffffffff16565b8461133890919063ffffffff16565b92508180600101925050610d00565b829350505050919050565b6000600c60008373ffffffffffffffffffffffffffffffffffffffff1673ffffffffffffffffffffffffffffffffffffffff168152602001908152602001600020600101549050919050565b6000600c60008373ffffffffffffffffffffffffffffffffffffffff1673ffffffffffffffffffffffffffffffffffffffff168152602001908152602001600020600001549050919050565b60018054600181600116156101000203166002900480601f016020809104026020016040519081016040528092919081815260200182805460018160011615610100020316600290048015610f315780601f10610f0657610100808354040283529160200191610f31565b820191906000526020600020905b815481529060010190602001808311610f1457829003601f168201915b505050505081565b6000600354905090565b600060086000600754815260200190815260200160002060008473ffffffffffffffffffffffffffffffffffffffff1673ffffffffffffffffffffffffffffffffffffffff168152602001908152602001600020541415611073578060086000600754815260200190815260200160002060008473ffffffffffffffffffffffffffffffffffffffff1673ffffffffffffffffffffffffffffffffffffffff168152602001908152602001600020819055506009600060075481526020019081526020016000208290806001815401808255809150509060018203906000526020600020016000909192909190916101000a81548173ffffffffffffffffffffffffffffffffffffffff021916908373ffffffffffffffffffffffffffffffffffffffff1602179055505061112f565b6110d88160086000600754815260200190815260200160002060008573ffffffffffffffffffffffffffffffffffffffff1673ffffffffffffffffffffffffffffffffffffffff1681526020019081526020016000205461133890919063ffffffff16565b60086000600754815260200190815260200160002060008473ffffffffffffffffffffffffffffffffffffffff1673ffffffffffffffffffffffffffffffffffffffff168152602001908152602001600020819055505b61114481600b5461133890919063ffffffff16565b600b8190555061119f81600c60008573ffffffffffffffffffffffffffffffffffffffff1673ffffffffffffffffffffffffffffffffffffffff1681526020019081526020016000206001015461133890919063ffffffff16565b600c60008473ffffffffffffffffffffffffffffffffffffffff1673ffffffffffffffffffffffffffffffffffffffff16815260200190815260200160002060010181905550600c60008373ffffffffffffffffffffffffffffffffffffffff1673ffffffffffffffffffffffffffffffffffffffff1681526020019081526020016000206002014290806001815401808255809150509060018203906000526020600020016000909192909190915055506112668160045461133890919063ffffffff16565b6004819055505050565b600061133360076009600060078152602001908152602001600020805490506009600060068152602001908152602001600020805490506009600060058152602001908152602001600020805490506009600060048152602001908152602001600020805490506009600060038152602001908152602001600020805490506009600060028152602001908152602001600020805490506009600060018152602001908152602001600020805490500101010101016113ec90919063ffffffff16565b905090565b600080828401905083811015151561134c57fe5b8091505092915050565b60006008600083815260200190815260200160002060008473ffffffffffffffffffffffffffffffffffffffff1673ffffffffffffffffffffffffffffffffffffffff16815260200190815260200160002054905092915050565b60008060008414156113c657600091506113e5565b82840290508284828115156113d757fe5b041415156113e157fe5b8091505b5092915050565b60008082848115156113fa57fe5b0490508091505092915050565b600082821115151561141557fe5b818303905092915050565b508054600082559060005260206000209081019061143e9190611441565b50565b61146391905b8082111561145f576000816000905550600101611447565b5090565b905600a165627a7a72305820a17146132c28136028864792862f9df8063749c22db18402f78c850d05bafc860029",
  "source": "pragma solidity 0.4.23;\n\nimport \"./KarmaCoin.sol\";\n\ncontract GyanCoin {\n\tusing SafeMath for uint256;\n\n\tstring public name = \"GYAN\";\n\tstring public symbol = \"GYN\";\n\tuint8 public decimals = 18;\n\tuint256 _yesterdayMint;\n\tuint256 _todayMint;\n\tuint256 _dailyStartTime;\n\tuint256 _weeklyStartTime;\n\tuint256 _currentDayNumber;\n\tmapping(uint256 => mapping(address => uint256)) dailyPeerBucket;\n\tmapping(uint256 => address[]) dailyPeerArray;\n\n\tKarmaCoin public karmaCoin;\n\n\tuint256 totalSupply_;\n\tstruct Gyan {\n\t\tuint256 fixedBalance;\n\t\tuint256 floatingBalance;\n\t\tuint256[] timestampIndex;\n\t\tuint256 timestamp;\n\t}\n\n\tmapping(address => Gyan) gyanCoins;\n\n\tfunction GyanCoin(\n\t\tKarmaCoin _karma\n\t) public {\n\t\trequire(_karma != address(0));\n\n\t\tkarmaCoin = _karma;\n\n\t\t_dailyStartTime = now;\n\t\t_weeklyStartTime = now;\n\t\t_currentDayNumber = 1;\n\t\t_yesterdayMint = 1000; // Default starting Gyan mint rate on day 1\n\t}\n\n\t/**\n    * @dev current rate of daily minted gyan coin\n    */\n\tfunction yesterdayMint() public view returns (uint256) {\n\t\treturn _yesterdayMint;\n\t}\n\n\t/**\n    * @dev total supply of Gyan\n    */\n\tfunction totalSupply() public view returns (uint256) {\n\t\treturn totalSupply_;\n\t}\n\n\tfunction mintFor(address _to, uint256 _amount) public {\n\t\tif (dailyPeerBucket[_currentDayNumber][_to] == 0) {\n\t\t\t// User learning for the first time on this day of the current week\n\t\t\t// Added him to the day's bucket\n\t\t\tdailyPeerBucket[_currentDayNumber][_to] = _amount;\n\t\t\tdailyPeerArray[_currentDayNumber].push(_to);\n\t\t} else {\n\t\t\t// User learning again on the same day\n\t\t\t// Adding to his floating Gyan value of the day\n\t\t\tdailyPeerBucket[_currentDayNumber][_to] = dailyPeerBucket[_currentDayNumber][_to].add(_amount);\n\t\t}\n\n\t\ttotalSupply_ = totalSupply_.add(_amount);\n\t\tgyanCoins[_to].floatingBalance = gyanCoins[_to].floatingBalance.add(_amount);\n\t\tgyanCoins[_to].timestampIndex.push(now);\n\t\t_todayMint = _todayMint.add(_amount);\n\t}\n\n\tfunction mintRewards() public {\n\t\trequire(now >= _dailyStartTime + 1 days);\n\t\t// On Day Change\n\t\tif (now >= _dailyStartTime + 1 days) {\n\t\t\t_dailyStartTime = now;\n\t\t\t// Save the total mint count for yesterday and reset today's count\n\t\t\t_yesterdayMint = _todayMint;\n\t\t\t_todayMint = 0;\n\t\t\t// Change the day number of the week\n\t\t\t_currentDayNumber = _currentDayNumber.add(1);\n\t\t\t// On week change, reset day number to 1\n\t\t\tif (now >= _weeklyStartTime + 7 days) {\n\t\t\t\t_weeklyStartTime = now;\n\t\t\t\t_currentDayNumber = 1;\n\t\t\t}\n\t\t\t// Send out rewards to every peer who learnt last week\n\t\t\t// TODO: Currently rewarding everyone equally. Change to reward based on elliptic curve.\n\t\t\tfor (uint i = 0; i < dailyPeerArray[_currentDayNumber].length; i++) {\n\t\t\t\tuint256 percentGyanEarnedToday = dailyFloatingBalanceOf(dailyPeerArray[_currentDayNumber][i], _currentDayNumber).mul(100).div(_yesterdayMint);\n\t\t\t\t// Reward user with Karma\n\t\t\t\tkarmaCoin.mintFor(dailyPeerArray[_currentDayNumber][i], dailyKarmaMint().mul(65).div(100).mul(percentGyanEarnedToday).div(100));\n\t\t\t\t// Move Gyan from floating to fixed balance\n\t\t\t\tgyanCoins[dailyPeerArray[_currentDayNumber][i]].fixedBalance = gyanCoins[dailyPeerArray[_currentDayNumber][i]].fixedBalance.add(dailyFloatingBalanceOf(dailyPeerArray[_currentDayNumber][i], _currentDayNumber));\n\t\t\t\tgyanCoins[dailyPeerArray[_currentDayNumber][i]].floatingBalance = gyanCoins[dailyPeerArray[_currentDayNumber][i]].floatingBalance.sub(dailyFloatingBalanceOf(dailyPeerArray[_currentDayNumber][i], _currentDayNumber));\n\t\t\t\tdelete dailyPeerBucket[_currentDayNumber][dailyPeerArray[_currentDayNumber][i]];\n\t\t\t}\n\t\t\t// Empty the buckets of the day\n\t\t\tdelete dailyPeerArray[_currentDayNumber];\n\t\t}\n\t}\n\n\tfunction dailyFloatingBalanceOf(address _owner, uint256 _currentDayNumber) internal returns (uint256) {\n\t\treturn dailyPeerBucket[_currentDayNumber][_owner];\n\t}\n\n\t/**\n\t  * @dev Gets the daily karma minting value of the protocol.\n\t  * @return An uint256 representing the amount of karma minted everyday.\n\t  */\n\tfunction dailyKarmaMint() public view returns (uint256 dailyMint) {\n\t\treturn (karmaCoin.totalSupply().mul(5).div(100)).div(365);\n\t}\n\n\t/**\n\t  * @dev Gets the average number of peers who are eligible for karma rewards every day over the last 7 days\n\t  * @return An uint256 representing the amount of karma minted everyday.\n\t  */\n\tfunction averageDailyPeers() public view returns (uint256 averagePeers) {\n\t\treturn (dailyPeerArray[1].length + dailyPeerArray[2].length + dailyPeerArray[3].length + dailyPeerArray[4].length + dailyPeerArray[5].length + dailyPeerArray[6].length + dailyPeerArray[7].length).div(7);\n\t}\n\n\t/**\n\t  * @dev Gets the daily karma minting value of the protocol.\n\t  * @return An uint256 representing the amount of karma minted everyday.\n\t  */\n\tfunction potentialKarmaReward(address owner) public view returns (uint256) {\n\t\tuint256 karmaRewards = 0;\n\t\tfor (uint i = 1; i <= 7; i++) {\n\t\t\tuint256 percentGyanEarnedToday = dailyPeerBucket[i][owner].mul(100).div(_yesterdayMint);\n\t\t\tkarmaRewards = karmaRewards.add(dailyKarmaMint().mul(65).div(100).mul(percentGyanEarnedToday).div(100));\n\t\t}\n\t\treturn karmaRewards;\n\t}\n\n\t/**\n\t  * @dev Gets the floating balance of the specified address.\n\t  * @param _owner The address to query the balance of.\n\t  * @return An uint256 representing the amount owned by the passed address.\n\t  */\n\tfunction floatingBalanceOf(address _owner) public view returns (uint256 balance) {\n\t\treturn gyanCoins[_owner].floatingBalance;\n\t}\n\n\t/**\n\t  * @dev Gets the fixed balance of the specified address.\n\t  * @param _owner The address to query the balance of.\n\t  * @return An uint256 representing the amount owned by the passed address.\n\t  */\n\tfunction fixedBalanceOf(address _owner) public view returns (uint256 balance) {\n\t\treturn gyanCoins[_owner].fixedBalance;\n\t}\n\n}",
  "sourcePath": "/Users/aakash/WebstormProjects/pbether/contracts/GyanCoin.sol",
  "compiler": {
    "name": "solc",
    "version": "0.4.23+commit.124ca40d.Emscripten.clang"
  },
  "schemaVersion": "2.0.0",
  "updatedAt": "2018-06-12T00:50:30.072Z"
}