{
  "contractName": "QuestionContract",
  "abi": [
    {
      "constant": false,
      "inputs": [
        {
          "name": "_id",
          "type": "bytes32"
        },
        {
          "name": "_communityId",
          "type": "bytes32"
        },
        {
          "name": "_owner",
          "type": "address"
        },
        {
          "name": "_scholarshipId",
          "type": "bytes32"
        },
        {
          "name": "_hash",
          "type": "bytes32"
        },
        {
          "name": "_gyan",
          "type": "uint256"
        },
        {
          "name": "_topics",
          "type": "bytes32[]"
        }
      ],
      "name": "create",
      "outputs": [
        {
          "name": "",
          "type": "bool"
        }
      ],
      "payable": false,
      "stateMutability": "nonpayable",
      "type": "function"
    },
    {
      "constant": true,
      "inputs": [
        {
          "name": "addr",
          "type": "address"
        },
        {
          "name": "roleName",
          "type": "string"
        }
      ],
      "name": "checkRole",
      "outputs": [],
      "payable": false,
      "stateMutability": "view",
      "type": "function"
    },
    {
      "constant": true,
      "inputs": [],
      "name": "karmaCoin",
      "outputs": [
        {
          "name": "",
          "type": "address"
        }
      ],
      "payable": false,
      "stateMutability": "view",
      "type": "function"
    },
    {
      "constant": true,
      "inputs": [
        {
          "name": "addr",
          "type": "address"
        },
        {
          "name": "roleName",
          "type": "string"
        }
      ],
      "name": "hasRole",
      "outputs": [
        {
          "name": "",
          "type": "bool"
        }
      ],
      "payable": false,
      "stateMutability": "view",
      "type": "function"
    },
    {
      "constant": false,
      "inputs": [
        {
          "name": "_id",
          "type": "bytes32"
        }
      ],
      "name": "close",
      "outputs": [
        {
          "name": "",
          "type": "bool"
        }
      ],
      "payable": false,
      "stateMutability": "nonpayable",
      "type": "function"
    },
    {
      "constant": true,
      "inputs": [
        {
          "name": "_id",
          "type": "bytes32"
        }
      ],
      "name": "getQuestion",
      "outputs": [
        {
          "name": "",
          "type": "bytes32"
        },
        {
          "name": "",
          "type": "address"
        },
        {
          "name": "",
          "type": "bytes32"
        },
        {
          "name": "",
          "type": "uint256"
        },
        {
          "name": "",
          "type": "bytes32[]"
        },
        {
          "name": "",
          "type": "uint256"
        }
      ],
      "payable": false,
      "stateMutability": "view",
      "type": "function"
    },
    {
      "constant": true,
      "inputs": [],
      "name": "scholarshipContract",
      "outputs": [
        {
          "name": "",
          "type": "address"
        }
      ],
      "payable": false,
      "stateMutability": "view",
      "type": "function"
    },
    {
      "constant": true,
      "inputs": [],
      "name": "ROLE_PARTNER",
      "outputs": [
        {
          "name": "",
          "type": "string"
        }
      ],
      "payable": false,
      "stateMutability": "view",
      "type": "function"
    },
    {
      "constant": false,
      "inputs": [
        {
          "name": "addr",
          "type": "address"
        },
        {
          "name": "roleName",
          "type": "string"
        }
      ],
      "name": "adminRemoveRole",
      "outputs": [],
      "payable": false,
      "stateMutability": "nonpayable",
      "type": "function"
    },
    {
      "constant": true,
      "inputs": [],
      "name": "owner",
      "outputs": [
        {
          "name": "",
          "type": "address"
        }
      ],
      "payable": false,
      "stateMutability": "view",
      "type": "function"
    },
    {
      "constant": true,
      "inputs": [
        {
          "name": "_gyan",
          "type": "uint256"
        }
      ],
      "name": "getKarmaToBurn",
      "outputs": [
        {
          "name": "",
          "type": "uint256"
        }
      ],
      "payable": false,
      "stateMutability": "view",
      "type": "function"
    },
    {
      "constant": false,
      "inputs": [
        {
          "name": "_id",
          "type": "bytes32"
        },
        {
          "name": "_questionId",
          "type": "bytes32"
        }
      ],
      "name": "acceptAnswer",
      "outputs": [
        {
          "name": "",
          "type": "bool"
        }
      ],
      "payable": false,
      "stateMutability": "nonpayable",
      "type": "function"
    },
    {
      "constant": false,
      "inputs": [
        {
          "name": "_id",
          "type": "bytes32"
        },
        {
          "name": "_questionId",
          "type": "bytes32"
        }
      ],
      "name": "flagAnswer",
      "outputs": [
        {
          "name": "",
          "type": "bool"
        }
      ],
      "payable": false,
      "stateMutability": "nonpayable",
      "type": "function"
    },
    {
      "constant": false,
      "inputs": [
        {
          "name": "addr",
          "type": "address"
        },
        {
          "name": "roleName",
          "type": "string"
        }
      ],
      "name": "adminAddRole",
      "outputs": [],
      "payable": false,
      "stateMutability": "nonpayable",
      "type": "function"
    },
    {
      "constant": true,
      "inputs": [],
      "name": "ROLE_ADMIN",
      "outputs": [
        {
          "name": "",
          "type": "string"
        }
      ],
      "payable": false,
      "stateMutability": "view",
      "type": "function"
    },
    {
      "constant": false,
      "inputs": [
        {
          "name": "_id",
          "type": "bytes32"
        },
        {
          "name": "_questionId",
          "type": "bytes32"
        }
      ],
      "name": "unFlagAnswer",
      "outputs": [
        {
          "name": "",
          "type": "bool"
        }
      ],
      "payable": false,
      "stateMutability": "nonpayable",
      "type": "function"
    },
    {
      "constant": true,
      "inputs": [],
      "name": "gyanCoin",
      "outputs": [
        {
          "name": "",
          "type": "address"
        }
      ],
      "payable": false,
      "stateMutability": "view",
      "type": "function"
    },
    {
      "constant": true,
      "inputs": [
        {
          "name": "_id",
          "type": "bytes32"
        }
      ],
      "name": "getAnswers",
      "outputs": [
        {
          "name": "",
          "type": "bytes32[]"
        }
      ],
      "payable": false,
      "stateMutability": "view",
      "type": "function"
    },
    {
      "constant": false,
      "inputs": [
        {
          "name": "newOwner",
          "type": "address"
        }
      ],
      "name": "transferOwnership",
      "outputs": [],
      "payable": false,
      "stateMutability": "nonpayable",
      "type": "function"
    },
    {
      "constant": false,
      "inputs": [
        {
          "name": "_id",
          "type": "bytes32"
        },
        {
          "name": "_questionId",
          "type": "bytes32"
        },
        {
          "name": "_owner",
          "type": "address"
        },
        {
          "name": "_hash",
          "type": "bytes32"
        }
      ],
      "name": "addAnswer",
      "outputs": [
        {
          "name": "",
          "type": "bool"
        }
      ],
      "payable": false,
      "stateMutability": "nonpayable",
      "type": "function"
    },
    {
      "inputs": [
        {
          "name": "_gyan",
          "type": "address"
        },
        {
          "name": "_karma",
          "type": "address"
        },
        {
          "name": "_scholarship",
          "type": "address"
        }
      ],
      "payable": false,
      "stateMutability": "nonpayable",
      "type": "constructor"
    },
    {
      "anonymous": false,
      "inputs": [
        {
          "indexed": false,
          "name": "_id",
          "type": "bytes32"
        },
        {
          "indexed": false,
          "name": "_communityId",
          "type": "bytes32"
        },
        {
          "indexed": false,
          "name": "_owner",
          "type": "address"
        },
        {
          "indexed": false,
          "name": "_hash",
          "type": "bytes32"
        },
        {
          "indexed": false,
          "name": "_gyan",
          "type": "uint256"
        },
        {
          "indexed": false,
          "name": "_topics",
          "type": "bytes32[]"
        },
        {
          "indexed": false,
          "name": "_timestamp",
          "type": "uint256"
        },
        {
          "indexed": false,
          "name": "_pbNode",
          "type": "address"
        }
      ],
      "name": "QuestionCreate",
      "type": "event"
    },
    {
      "anonymous": false,
      "inputs": [
        {
          "indexed": false,
          "name": "_id",
          "type": "bytes32"
        },
        {
          "indexed": false,
          "name": "_questionId",
          "type": "bytes32"
        },
        {
          "indexed": false,
          "name": "_owner",
          "type": "address"
        },
        {
          "indexed": false,
          "name": "_hash",
          "type": "bytes32"
        },
        {
          "indexed": false,
          "name": "_timestamp",
          "type": "uint256"
        },
        {
          "indexed": false,
          "name": "pbNode",
          "type": "address"
        }
      ],
      "name": "QuestionAddAnswer",
      "type": "event"
    },
    {
      "anonymous": false,
      "inputs": [
        {
          "indexed": false,
          "name": "_id",
          "type": "bytes32"
        },
        {
          "indexed": false,
          "name": "_questionId",
          "type": "bytes32"
        },
        {
          "indexed": false,
          "name": "pbNode",
          "type": "address"
        }
      ],
      "name": "QuestionAcceptAnswer",
      "type": "event"
    },
    {
      "anonymous": false,
      "inputs": [
        {
          "indexed": false,
          "name": "_id",
          "type": "bytes32"
        },
        {
          "indexed": false,
          "name": "pbNode",
          "type": "address"
        }
      ],
      "name": "QuestionClose",
      "type": "event"
    },
    {
      "anonymous": false,
      "inputs": [
        {
          "indexed": false,
          "name": "_id",
          "type": "bytes32"
        },
        {
          "indexed": false,
          "name": "_questionId",
          "type": "bytes32"
        },
        {
          "indexed": false,
          "name": "pbNode",
          "type": "address"
        }
      ],
      "name": "QuestionFlagAnswer",
      "type": "event"
    },
    {
      "anonymous": false,
      "inputs": [
        {
          "indexed": false,
          "name": "_id",
          "type": "bytes32"
        },
        {
          "indexed": false,
          "name": "_questionId",
          "type": "bytes32"
        },
        {
          "indexed": false,
          "name": "pbNode",
          "type": "address"
        }
      ],
      "name": "QuestionUnFlagAnswer",
      "type": "event"
    },
    {
      "anonymous": false,
      "inputs": [
        {
          "indexed": false,
          "name": "addr",
          "type": "address"
        },
        {
          "indexed": false,
          "name": "roleName",
          "type": "string"
        }
      ],
      "name": "RoleAdded",
      "type": "event"
    },
    {
      "anonymous": false,
      "inputs": [
        {
          "indexed": false,
          "name": "addr",
          "type": "address"
        },
        {
          "indexed": false,
          "name": "roleName",
          "type": "string"
        }
      ],
      "name": "RoleRemoved",
      "type": "event"
    },
    {
      "anonymous": false,
      "inputs": [
        {
          "indexed": true,
          "name": "previousOwner",
          "type": "address"
        },
        {
          "indexed": true,
          "name": "newOwner",
          "type": "address"
        }
      ],
      "name": "OwnershipTransferred",
      "type": "event"
    }
  ],
  "bytecode": "0x60806040523480156200001157600080fd5b5060405160608062003fc2833981018060405281019080805190602001909291908051906020019092919080519060200190929190505050828282336000806101000a81548173ffffffffffffffffffffffffffffffffffffffff021916908373ffffffffffffffffffffffffffffffffffffffff160217905550620000dc336040805190810160405280600581526020017f61646d696e000000000000000000000000000000000000000000000000000000815250620002b2640100000000026401000000009004565b6200012c336040805190810160405280600781526020017f706172746e657200000000000000000000000000000000000000000000000000815250620002b2640100000000026401000000009004565b600073ffffffffffffffffffffffffffffffffffffffff168373ffffffffffffffffffffffffffffffffffffffff16141515156200016957600080fd5b600073ffffffffffffffffffffffffffffffffffffffff168273ffffffffffffffffffffffffffffffffffffffff1614151515620001a657600080fd5b600073ffffffffffffffffffffffffffffffffffffffff168173ffffffffffffffffffffffffffffffffffffffff1614151515620001e357600080fd5b82600260006101000a81548173ffffffffffffffffffffffffffffffffffffffff021916908373ffffffffffffffffffffffffffffffffffffffff16021790555081600360006101000a81548173ffffffffffffffffffffffffffffffffffffffff021916908373ffffffffffffffffffffffffffffffffffffffff16021790555080600460006101000a81548173ffffffffffffffffffffffffffffffffffffffff021916908373ffffffffffffffffffffffffffffffffffffffff16021790555050505050505062000476565b62000341826001836040518082805190602001908083835b602083101515620002f15780518252602082019150602081019050602083039250620002ca565b6001836020036101000a0380198251168184511680821785525050505050509050019150509081526020016040518091039020620004186401000000000262003a3a179091906401000000009004565b7fbfec83d64eaa953f2708271a023ab9ee82057f8f3578d548c1a4ba0b5b7004898282604051808373ffffffffffffffffffffffffffffffffffffffff1673ffffffffffffffffffffffffffffffffffffffff16815260200180602001828103825283818151815260200191508051906020019080838360005b83811015620003d8578082015181840152602081019050620003bb565b50505050905090810190601f168015620004065780820380516001836020036101000a031916815260200191505b50935050505060405180910390a15050565b60018260000160008373ffffffffffffffffffffffffffffffffffffffff1673ffffffffffffffffffffffffffffffffffffffff16815260200190815260200160002060006101000a81548160ff0219169083151502179055505050565b613b3c80620004866000396000f300608060405260043610610112576000357c0100000000000000000000000000000000000000000000000000000000900463ffffffff16806307dd4097146101175780630988ca8c146101f757806318de998f14610280578063217fe6c6146102d757806339c79e0c1461037857806358c039cd146103c15780635bc73871146104a657806364155547146104fd57806388cee87e1461058d5780638da5cb5b146106165780639314ddb31461066d57806398b623f1146106ae578063a224ba9914610705578063b25fa92c1461075c578063d391014b146107e5578063e3dfae5814610875578063e9f9f178146108cc578063edee388714610923578063f2fde38b146109a9578063f3ddae50146109ec575b600080fd5b34801561012357600080fd5b506101dd60048036038101908080356000191690602001909291908035600019169060200190929190803573ffffffffffffffffffffffffffffffffffffffff169060200190929190803560001916906020019092919080356000191690602001909291908035906020019092919080359060200190820180359060200190808060200260200160405190810160405280939291908181526020018383602002808284378201915050505050509192919290505050610a71565b604051808215151515815260200191505060405180910390f35b34801561020357600080fd5b5061027e600480360381019080803573ffffffffffffffffffffffffffffffffffffffff169060200190929190803590602001908201803590602001908080601f0160208091040260200160405190810160405280939291908181526020018383808284378201915050505050509192919290505050611926565b005b34801561028c57600080fd5b506102956119a7565b604051808273ffffffffffffffffffffffffffffffffffffffff1673ffffffffffffffffffffffffffffffffffffffff16815260200191505060405180910390f35b3480156102e357600080fd5b5061035e600480360381019080803573ffffffffffffffffffffffffffffffffffffffff169060200190929190803590602001908201803590602001908080601f01602080910402602001604051908101604052809392919081815260200183838082843782019150505050505091929192905050506119cd565b604051808215151515815260200191505060405180910390f35b34801561038457600080fd5b506103a76004803603810190808035600019169060200190929190505050611a54565b604051808215151515815260200191505060405180910390f35b3480156103cd57600080fd5b506103f0600480360381019080803560001916906020019092919050505061207a565b6040518087600019166000191681526020018673ffffffffffffffffffffffffffffffffffffffff1673ffffffffffffffffffffffffffffffffffffffff168152602001856000191660001916815260200184815260200180602001838152602001828103825284818151815260200191508051906020019060200280838360005b8381101561048d578082015181840152602081019050610472565b5050505090500197505050505050505060405180910390f35b3480156104b257600080fd5b506104bb6121c8565b604051808273ffffffffffffffffffffffffffffffffffffffff1673ffffffffffffffffffffffffffffffffffffffff16815260200191505060405180910390f35b34801561050957600080fd5b506105126121ee565b6040518080602001828103825283818151815260200191508051906020019080838360005b83811015610552578082015181840152602081019050610537565b50505050905090810190601f16801561057f5780820380516001836020036101000a031916815260200191505b509250505060405180910390f35b34801561059957600080fd5b50610614600480360381019080803573ffffffffffffffffffffffffffffffffffffffff169060200190929190803590602001908201803590602001908080601f0160208091040260200160405190810160405280939291908181526020018383808284378201915050505050509192919290505050612227565b005b34801561062257600080fd5b5061062b612274565b604051808273ffffffffffffffffffffffffffffffffffffffff1673ffffffffffffffffffffffffffffffffffffffff16815260200191505060405180910390f35b34801561067957600080fd5b5061069860048036038101908080359060200190929190505050612299565b6040518082815260200191505060405180910390f35b3480156106ba57600080fd5b506106eb6004803603810190808035600019169060200190929190803560001916906020019092919050505061248c565b604051808215151515815260200191505060405180910390f35b34801561071157600080fd5b5061074260048036038101908080356000191690602001909291908035600019169060200190929190505050612a25565b604051808215151515815260200191505060405180910390f35b34801561076857600080fd5b506107e3600480360381019080803573ffffffffffffffffffffffffffffffffffffffff169060200190929190803590602001908201803590602001908080601f0160208091040260200160405190810160405280939291908181526020018383808284378201915050505050509192919290505050612cdd565b005b3480156107f157600080fd5b506107fa612d2a565b6040518080602001828103825283818151815260200191508051906020019080838360005b8381101561083a57808201518184015260208101905061081f565b50505050905090810190601f1680156108675780820380516001836020036101000a031916815260200191505b509250505060405180910390f35b34801561088157600080fd5b506108b260048036038101908080356000191690602001909291908035600019169060200190929190505050612d63565b604051808215151515815260200191505060405180910390f35b3480156108d857600080fd5b506108e161301b565b604051808273ffffffffffffffffffffffffffffffffffffffff1673ffffffffffffffffffffffffffffffffffffffff16815260200191505060405180910390f35b34801561092f57600080fd5b506109526004803603810190808035600019169060200190929190505050613041565b6040518080602001828103825283818151815260200191508051906020019060200280838360005b8381101561099557808201518184015260208101905061097a565b505050509050019250505060405180910390f35b3480156109b557600080fd5b506109ea600480360381019080803573ffffffffffffffffffffffffffffffffffffffff1690602001909291905050506130bb565b005b3480156109f857600080fd5b50610a5760048036038101908080356000191690602001909291908035600019169060200190929190803573ffffffffffffffffffffffffffffffffffffffff1690602001909291908035600019169060200190929190505050613210565b604051808215151515815260200191505060405180910390f35b60006040805190810160405280600781526020017f706172746e657200000000000000000000000000000000000000000000000000815250610ab33382611926565b60007f010000000000000000000000000000000000000000000000000000000000000002896000602081101515610ae657fe5b1a7f0100000000000000000000000000000000000000000000000000000000000000027effffffffffffffffffffffffffffffffffffffffffffffffffffffffffffff191614151515610b3857600080fd5b6000600560008b6000191660001916815260200190815260200160002060040154141515610b6557600080fd5b60007f010000000000000000000000000000000000000000000000000000000000000002886000602081101515610b9857fe5b1a7f0100000000000000000000000000000000000000000000000000000000000000027effffffffffffffffffffffffffffffffffffffffffffffffffffffffffffff191614151515610bea57600080fd5b600073ffffffffffffffffffffffffffffffffffffffff168773ffffffffffffffffffffffffffffffffffffffff1614151515610c2657600080fd5b60007f010000000000000000000000000000000000000000000000000000000000000002856000602081101515610c5957fe5b1a7f0100000000000000000000000000000000000000000000000000000000000000027effffffffffffffffffffffffffffffffffffffffffffffffffffffffffffff191614151515610cab57600080fd5b600084111515610cba57600080fd5b60008351111515610cca57600080fd5b600260009054906101000a900473ffffffffffffffffffffffffffffffffffffffff1673ffffffffffffffffffffffffffffffffffffffff16638f74c6ac886040518263ffffffff167c0100000000000000000000000000000000000000000000000000000000028152600401808273ffffffffffffffffffffffffffffffffffffffff1673ffffffffffffffffffffffffffffffffffffffff168152602001915050602060405180830381600087803b158015610d8757600080fd5b505af1158015610d9b573d6000803e3d6000fd5b505050506040513d6020811015610db157600080fd5b810190808051906020019092919050505084111580610dd05750600184145b1515610ddb57600080fd5b87600560008b60001916600019168152602001908152602001600020600101816000191690555086600560008b6000191660001916815260200190815260200160002060020160006101000a81548173ffffffffffffffffffffffffffffffffffffffff021916908373ffffffffffffffffffffffffffffffffffffffff16021790555084600560008b60001916600019168152602001908152602001600020600001816000191690555083600560008b600019166000191681526020019081526020016000206003018190555082600560008b600019166000191681526020019081526020016000206008019080519060200190610edb929190613a98565b5042600560008b60001916600019168152602001908152602001600020600401819055506001600560008b6000191660001916815260200190815260200160002060050160006101000a81548160ff0219169083151502179055507f4e410000000000000000000000000000000000000000000000000000000000008660001916141561115a57600360009054906101000a900473ffffffffffffffffffffffffffffffffffffffff1673ffffffffffffffffffffffffffffffffffffffff166370a08231886040518263ffffffff167c0100000000000000000000000000000000000000000000000000000000028152600401808273ffffffffffffffffffffffffffffffffffffffff1673ffffffffffffffffffffffffffffffffffffffff168152602001915050602060405180830381600087803b15801561101f57600080fd5b505af1158015611033573d6000803e3d6000fd5b505050506040513d602081101561104957600080fd5b810190808051906020019092919050505061106385612299565b1115151561107057600080fd5b600360009054906101000a900473ffffffffffffffffffffffffffffffffffffffff1673ffffffffffffffffffffffffffffffffffffffff166379cc6790886110b887612299565b6040518363ffffffff167c0100000000000000000000000000000000000000000000000000000000028152600401808373ffffffffffffffffffffffffffffffffffffffff1673ffffffffffffffffffffffffffffffffffffffff16815260200182815260200192505050600060405180830381600087803b15801561113d57600080fd5b505af1158015611151573d6000803e3d6000fd5b505050506117f6565b6000600460009054906101000a900473ffffffffffffffffffffffffffffffffffffffff1673ffffffffffffffffffffffffffffffffffffffff1663d45c4435886040518263ffffffff167c0100000000000000000000000000000000000000000000000000000000028152600401808260001916600019168152602001915050602060405180830381600087803b1580156111f557600080fd5b505af1158015611209573d6000803e3d6000fd5b505050506040513d602081101561121f57600080fd5b81019080805190602001909291905050501415151561123d57600080fd5b7f7075626c69630000000000000000000000000000000000000000000000000000600102600460009054906101000a900473ffffffffffffffffffffffffffffffffffffffff1673ffffffffffffffffffffffffffffffffffffffff16637f2aeea4886040518263ffffffff167c0100000000000000000000000000000000000000000000000000000000028152600401808260001916600019168152602001915050602060405180830381600087803b1580156112fa57600080fd5b505af115801561130e573d6000803e3d6000fd5b505050506040513d602081101561132457600080fd5b81019080805190602001909291905050506000191614151561134557600080fd5b6000600460009054906101000a900473ffffffffffffffffffffffffffffffffffffffff1673ffffffffffffffffffffffffffffffffffffffff16636785ce09888a6040518363ffffffff167c01000000000000000000000000000000000000000000000000000000000281526004018083600019166000191681526020018273ffffffffffffffffffffffffffffffffffffffff1673ffffffffffffffffffffffffffffffffffffffff16815260200192505050602060405180830381600087803b15801561141457600080fd5b505af1158015611428573d6000803e3d6000fd5b505050506040513d602081101561143e57600080fd5b81019080805190602001909291905050501415151561145c57600080fd5b61146584612299565b600360009054906101000a900473ffffffffffffffffffffffffffffffffffffffff1673ffffffffffffffffffffffffffffffffffffffff166370a08231600460009054906101000a900473ffffffffffffffffffffffffffffffffffffffff1673ffffffffffffffffffffffffffffffffffffffff1663206d54db8a6040518263ffffffff167c0100000000000000000000000000000000000000000000000000000000028152600401808260001916600019168152602001915050602060405180830381600087803b15801561153c57600080fd5b505af1158015611550573d6000803e3d6000fd5b505050506040513d602081101561156657600080fd5b81019080805190602001909291905050506040518263ffffffff167c0100000000000000000000000000000000000000000000000000000000028152600401808273ffffffffffffffffffffffffffffffffffffffff1673ffffffffffffffffffffffffffffffffffffffff168152602001915050602060405180830381600087803b1580156115f557600080fd5b505af1158015611609573d6000803e3d6000fd5b505050506040513d602081101561161f57600080fd5b81019080805190602001909291905050501015151561163d57600080fd5b600360009054906101000a900473ffffffffffffffffffffffffffffffffffffffff1673ffffffffffffffffffffffffffffffffffffffff166379cc6790600460009054906101000a900473ffffffffffffffffffffffffffffffffffffffff1673ffffffffffffffffffffffffffffffffffffffff1663206d54db896040518263ffffffff167c0100000000000000000000000000000000000000000000000000000000028152600401808260001916600019168152602001915050602060405180830381600087803b15801561171457600080fd5b505af1158015611728573d6000803e3d6000fd5b505050506040513d602081101561173e57600080fd5b810190808051906020019092919050505061175887612299565b6040518363ffffffff167c0100000000000000000000000000000000000000000000000000000000028152600401808373ffffffffffffffffffffffffffffffffffffffff1673ffffffffffffffffffffffffffffffffffffffff16815260200182815260200192505050600060405180830381600087803b1580156117dd57600080fd5b505af11580156117f1573d6000803e3d6000fd5b505050505b7f0ae0f169bd01b75598b2617ff7e917985b43703ef9135501d622fc3d245b134c898989888888423360405180896000191660001916815260200188600019166000191681526020018773ffffffffffffffffffffffffffffffffffffffff1673ffffffffffffffffffffffffffffffffffffffff1681526020018660001916600019168152602001858152602001806020018481526020018373ffffffffffffffffffffffffffffffffffffffff1673ffffffffffffffffffffffffffffffffffffffff168152602001828103825285818151815260200191508051906020019060200280838360005b838110156118fc5780820151818401526020810190506118e1565b50505050905001995050505050505050505060405180910390a16001915050979650505050505050565b6119a3826001836040518082805190602001908083835b602083101515611962578051825260208201915060208101905060208303925061193d565b6001836020036101000a038019825116818451168082178552505050505050905001915050908152602001604051809103902061367290919063ffffffff16565b5050565b600360009054906101000a900473ffffffffffffffffffffffffffffffffffffffff1681565b6000611a4c836001846040518082805190602001908083835b602083101515611a0b57805182526020820191506020810190506020830392506119e6565b6001836020036101000a038019825116818451168082178552505050505050905001915050908152602001604051809103902061368b90919063ffffffff16565b905092915050565b60008060006040805190810160405280600781526020017f706172746e657200000000000000000000000000000000000000000000000000815250611a993382611926565b60007f010000000000000000000000000000000000000000000000000000000000000002856000602081101515611acc57fe5b1a7f0100000000000000000000000000000000000000000000000000000000000000027effffffffffffffffffffffffffffffffffffffffffffffffffffffffffffff191614151515611b1e57600080fd5b60006005600087600019166000191681526020019081526020016000206004015414151515611b4c57600080fd5b6001151560056000876000191660001916815260200190815260200160002060050160009054906101000a900460ff161515141515611b8a57600080fd5b6201518060056000876000191660001916815260200190815260200160002060040154014210151515611bbc57600080fd5b6000600560008760001916600019168152602001908152602001600020600701805490501115611fc357611c3860056000876000191660001916815260200190815260200160002060070180549050600560008860001916600019168152602001908152602001600020600301546136e490919063ffffffff16565b9250600091505b60056000866000191660001916815260200190815260200160002060070180549050821015611f875760011515600560008760001916600019168152602001908152602001600020600601600060056000896000191660001916815260200190815260200160002060070185815481101515611cb757fe5b90600052602060002001546000191660001916815260200190815260200160002060030160019054906101000a900460ff161515141515611f7a57600260009054906101000a900473ffffffffffffffffffffffffffffffffffffffff1673ffffffffffffffffffffffffffffffffffffffff1663da1919b36005600088600019166000191681526020019081526020016000206006016000600560008a6000191660001916815260200190815260200160002060070186815481101515611d7b57fe5b90600052602060002001546000191660001916815260200190815260200160002060000160009054906101000a900473ffffffffffffffffffffffffffffffffffffffff16856040518363ffffffff167c0100000000000000000000000000000000000000000000000000000000028152600401808373ffffffffffffffffffffffffffffffffffffffff1673ffffffffffffffffffffffffffffffffffffffff16815260200182815260200192505050600060405180830381600087803b158015611e4657600080fd5b505af1158015611e5a573d6000803e3d6000fd5b50505050600260009054906101000a900473ffffffffffffffffffffffffffffffffffffffff1673ffffffffffffffffffffffffffffffffffffffff1663da1919b360056000886000191660001916815260200190815260200160002060020160009054906101000a900473ffffffffffffffffffffffffffffffffffffffff16856040518363ffffffff167c0100000000000000000000000000000000000000000000000000000000028152600401808373ffffffffffffffffffffffffffffffffffffffff1673ffffffffffffffffffffffffffffffffffffffff16815260200182815260200192505050600060405180830381600087803b158015611f6157600080fd5b505af1158015611f75573d6000803e3d6000fd5b505050505b8180600101925050611c3f565b600060056000876000191660001916815260200190815260200160002060050160006101000a81548160ff021916908315150217905550611ffb565b600060056000876000191660001916815260200190815260200160002060050160006101000a81548160ff0219169083151502179055505b7ff1ce78e846a433022f0723219cb080d4577fe3375de8920637a67f5d76cef95685336040518083600019166000191681526020018273ffffffffffffffffffffffffffffffffffffffff1673ffffffffffffffffffffffffffffffffffffffff1681526020019250505060405180910390a160019350505050919050565b600080600080606060006005600088600019166000191681526020019081526020016000206001015460056000896000191660001916815260200190815260200160002060020160009054906101000a900473ffffffffffffffffffffffffffffffffffffffff16600560008a6000191660001916815260200190815260200160002060000154600560008b6000191660001916815260200190815260200160002060030154600560008c60001916600019168152602001908152602001600020600801600560008d6000191660001916815260200190815260200160002060040154818054806020026020016040519081016040528092919081815260200182805480156121ac57602002820191906000526020600020905b81546000191681526020019060010190808311612194575b5050505050915095509550955095509550955091939550919395565b600460009054906101000a900473ffffffffffffffffffffffffffffffffffffffff1681565b6040805190810160405280600781526020017f706172746e65720000000000000000000000000000000000000000000000000081525081565b612266336040805190810160405280600581526020017f61646d696e000000000000000000000000000000000000000000000000000000815250611926565b61227082826136ff565b5050565b6000809054906101000a900473ffffffffffffffffffffffffffffffffffffffff1681565b600080600061239961016d61238b606461237d6005600360009054906101000a900473ffffffffffffffffffffffffffffffffffffffff1673ffffffffffffffffffffffffffffffffffffffff166318160ddd6040518163ffffffff167c0100000000000000000000000000000000000000000000000000000000028152600401602060405180830381600087803b15801561233457600080fd5b505af1158015612348573d6000803e3d6000fd5b505050506040513d602081101561235e57600080fd5b810190808051906020019092919050505061385090919063ffffffff16565b6136e490919063ffffffff16565b6136e490919063ffffffff16565b9150600260009054906101000a900473ffffffffffffffffffffffffffffffffffffffff1673ffffffffffffffffffffffffffffffffffffffff1663a01b00a26040518163ffffffff167c0100000000000000000000000000000000000000000000000000000000028152600401602060405180830381600087803b15801561242157600080fd5b505af1158015612435573d6000803e3d6000fd5b505050506040513d602081101561244b57600080fd5b8101908080519060200190929190505050905061248361247482846136e490919063ffffffff16565b8561385090919063ffffffff16565b92505050919050565b60006040805190810160405280600781526020017f706172746e6572000000000000000000000000000000000000000000000000008152506124ce3382611926565b60007f01000000000000000000000000000000000000000000000000000000000000000284600060208110151561250157fe5b1a7f0100000000000000000000000000000000000000000000000000000000000000027effffffffffffffffffffffffffffffffffffffffffffffffffffffffffffff19161415151561255357600080fd5b6000600560008560001916600019168152602001908152602001600020600401541415151561258157600080fd5b60006005600085600019166000191681526020019081526020016000206006016000866000191660001916815260200190815260200160002060020154141515156125cb57600080fd5b600015156005600085600019166000191681526020019081526020016000206006016000866000191660001916815260200190815260200160002060030160009054906101000a900460ff16151514151561262557600080fd5b600015156005600085600019166000191681526020019081526020016000206006016000866000191660001916815260200190815260200160002060030160019054906101000a900460ff16151514151561267f57600080fd5b60016005600085600019166000191681526020019081526020016000206006016000866000191660001916815260200190815260200160002060030160006101000a81548160ff021916908315150217905550600060056000856000191660001916815260200190815260200160002060050160006101000a81548160ff021916908315150217905550600260009054906101000a900473ffffffffffffffffffffffffffffffffffffffff1673ffffffffffffffffffffffffffffffffffffffff1663da1919b36005600086600019166000191681526020019081526020016000206006016000876000191660001916815260200190815260200160002060000160009054906101000a900473ffffffffffffffffffffffffffffffffffffffff16600560008760001916600019168152602001908152602001600020600301546040518363ffffffff167c0100000000000000000000000000000000000000000000000000000000028152600401808373ffffffffffffffffffffffffffffffffffffffff1673ffffffffffffffffffffffffffffffffffffffff16815260200182815260200192505050600060405180830381600087803b15801561284657600080fd5b505af115801561285a573d6000803e3d6000fd5b50505050600260009054906101000a900473ffffffffffffffffffffffffffffffffffffffff1673ffffffffffffffffffffffffffffffffffffffff1663da1919b360056000866000191660001916815260200190815260200160002060020160009054906101000a900473ffffffffffffffffffffffffffffffffffffffff16600560008760001916600019168152602001908152602001600020600301546040518363ffffffff167c0100000000000000000000000000000000000000000000000000000000028152600401808373ffffffffffffffffffffffffffffffffffffffff1673ffffffffffffffffffffffffffffffffffffffff16815260200182815260200192505050600060405180830381600087803b15801561297f57600080fd5b505af1158015612993573d6000803e3d6000fd5b505050507fe7e8875e19a4d8589cd1a225235b284059b53d7e205db8f4e4a3c99a83d68db884843360405180846000191660001916815260200183600019166000191681526020018273ffffffffffffffffffffffffffffffffffffffff1673ffffffffffffffffffffffffffffffffffffffff168152602001935050505060405180910390a1600191505092915050565b60006040805190810160405280600781526020017f706172746e657200000000000000000000000000000000000000000000000000815250612a673382611926565b60007f010000000000000000000000000000000000000000000000000000000000000002846000602081101515612a9a57fe5b1a7f0100000000000000000000000000000000000000000000000000000000000000027effffffffffffffffffffffffffffffffffffffffffffffffffffffffffffff191614151515612aec57600080fd5b60006005600085600019166000191681526020019081526020016000206004015414151515612b1a57600080fd5b6000600560008560001916600019168152602001908152602001600020600601600086600019166000191681526020019081526020016000206002015414151515612b6457600080fd5b600015156005600085600019166000191681526020019081526020016000206006016000866000191660001916815260200190815260200160002060030160019054906101000a900460ff161515141515612bbe57600080fd5b6001151560056000856000191660001916815260200190815260200160002060050160009054906101000a900460ff161515141515612bfc57600080fd5b60016005600085600019166000191681526020019081526020016000206006016000866000191660001916815260200190815260200160002060030160016101000a81548160ff0219169083151502179055507f2232340652eb348aee104f6797eac88e53815571348ca32911c8b2d8515e65ac84843360405180846000191660001916815260200183600019166000191681526020018273ffffffffffffffffffffffffffffffffffffffff1673ffffffffffffffffffffffffffffffffffffffff168152602001935050505060405180910390a1600191505092915050565b612d1c336040805190810160405280600581526020017f61646d696e000000000000000000000000000000000000000000000000000000815250611926565b612d26828261388b565b5050565b6040805190810160405280600581526020017f61646d696e00000000000000000000000000000000000000000000000000000081525081565b60006040805190810160405280600781526020017f706172746e657200000000000000000000000000000000000000000000000000815250612da53382611926565b60007f010000000000000000000000000000000000000000000000000000000000000002846000602081101515612dd857fe5b1a7f0100000000000000000000000000000000000000000000000000000000000000027effffffffffffffffffffffffffffffffffffffffffffffffffffffffffffff191614151515612e2a57600080fd5b60006005600085600019166000191681526020019081526020016000206004015414151515612e5857600080fd5b6000600560008560001916600019168152602001908152602001600020600601600086600019166000191681526020019081526020016000206002015414151515612ea257600080fd5b600115156005600085600019166000191681526020019081526020016000206006016000866000191660001916815260200190815260200160002060030160019054906101000a900460ff161515141515612efc57600080fd5b6001151560056000856000191660001916815260200190815260200160002060050160009054906101000a900460ff161515141515612f3a57600080fd5b60006005600085600019166000191681526020019081526020016000206006016000866000191660001916815260200190815260200160002060030160016101000a81548160ff0219169083151502179055507f4daa2f188dc0d6c0d4f8dc764bf2219e02bd861952f610df04d395ac5576527f84843360405180846000191660001916815260200183600019166000191681526020018273ffffffffffffffffffffffffffffffffffffffff1673ffffffffffffffffffffffffffffffffffffffff168152602001935050505060405180910390a1600191505092915050565b600260009054906101000a900473ffffffffffffffffffffffffffffffffffffffff1681565b60606005600083600019166000191681526020019081526020016000206007018054806020026020016040519081016040528092919081815260200182805480156130af57602002820191906000526020600020905b81546000191681526020019060010190808311613097575b50505050509050919050565b6000809054906101000a900473ffffffffffffffffffffffffffffffffffffffff1673ffffffffffffffffffffffffffffffffffffffff163373ffffffffffffffffffffffffffffffffffffffff1614151561311657600080fd5b600073ffffffffffffffffffffffffffffffffffffffff168173ffffffffffffffffffffffffffffffffffffffff161415151561315257600080fd5b8073ffffffffffffffffffffffffffffffffffffffff166000809054906101000a900473ffffffffffffffffffffffffffffffffffffffff1673ffffffffffffffffffffffffffffffffffffffff167f8be0079c531659141344cd1fd0a4f28419497f9722a3daafe3b4186f6b6457e060405160405180910390a3806000806101000a81548173ffffffffffffffffffffffffffffffffffffffff021916908373ffffffffffffffffffffffffffffffffffffffff16021790555050565b60006040805190810160405280600781526020017f706172746e6572000000000000000000000000000000000000000000000000008152506132523382611926565b60007f01000000000000000000000000000000000000000000000000000000000000000286600060208110151561328557fe5b1a7f0100000000000000000000000000000000000000000000000000000000000000027effffffffffffffffffffffffffffffffffffffffffffffffffffffffffffff1916141515156132d757600080fd5b6000600560008760001916600019168152602001908152602001600020600401541415151561330557600080fd5b6000600560008760001916600019168152602001908152602001600020600601600088600019166000191681526020019081526020016000206002015414151561334e57600080fd5b600073ffffffffffffffffffffffffffffffffffffffff168473ffffffffffffffffffffffffffffffffffffffff161415151561338a57600080fd5b6001151560056000876000191660001916815260200190815260200160002060050160009054906101000a900460ff1615151415156133c857600080fd5b60007f0100000000000000000000000000000000000000000000000000000000000000028360006020811015156133fb57fe5b1a7f0100000000000000000000000000000000000000000000000000000000000000027effffffffffffffffffffffffffffffffffffffffffffffffffffffffffffff19161415151561344d57600080fd5b836005600087600019166000191681526020019081526020016000206006016000886000191660001916815260200190815260200160002060000160006101000a81548173ffffffffffffffffffffffffffffffffffffffff021916908373ffffffffffffffffffffffffffffffffffffffff160217905550826005600087600019166000191681526020019081526020016000206006016000886000191660001916815260200190815260200160002060010181600019169055504260056000876000191660001916815260200190815260200160002060060160008860001916600019168152602001908152602001600020600201819055506005600086600019166000191681526020019081526020016000206007018690806001815401808255809150509060018203906000526020600020016000909192909190915090600019169055507fa2446c7cc8cbb7c046aa9154eb6d0e51419409ef16586e72072df36138cfe8c886868686423360405180876000191660001916815260200186600019166000191681526020018573ffffffffffffffffffffffffffffffffffffffff1673ffffffffffffffffffffffffffffffffffffffff16815260200184600019166000191681526020018381526020018273ffffffffffffffffffffffffffffffffffffffff1673ffffffffffffffffffffffffffffffffffffffff168152602001965050505050505060405180910390a16001915050949350505050565b61367c828261368b565b151561368757600080fd5b5050565b60008260000160008373ffffffffffffffffffffffffffffffffffffffff1673ffffffffffffffffffffffffffffffffffffffff16815260200190815260200160002060009054906101000a900460ff16905092915050565b60008082848115156136f257fe5b0490508091505092915050565b61377c826001836040518082805190602001908083835b60208310151561373b5780518252602082019150602081019050602083039250613716565b6001836020036101000a03801982511681845116808217855250505050505090500191505090815260200160405180910390206139dc90919063ffffffff16565b7fd211483f91fc6eff862467f8de606587a30c8fc9981056f051b897a418df803a8282604051808373ffffffffffffffffffffffffffffffffffffffff1673ffffffffffffffffffffffffffffffffffffffff16815260200180602001828103825283818151815260200191508051906020019080838360005b838110156138115780820151818401526020810190506137f6565b50505050905090810190601f16801561383e5780820380516001836020036101000a031916815260200191505b50935050505060405180910390a15050565b60008060008414156138655760009150613884565b828402905082848281151561387657fe5b0414151561388057fe5b8091505b5092915050565b613908826001836040518082805190602001908083835b6020831015156138c757805182526020820191506020810190506020830392506138a2565b6001836020036101000a0380198251168184511680821785525050505050509050019150509081526020016040518091039020613a3a90919063ffffffff16565b7fbfec83d64eaa953f2708271a023ab9ee82057f8f3578d548c1a4ba0b5b7004898282604051808373ffffffffffffffffffffffffffffffffffffffff1673ffffffffffffffffffffffffffffffffffffffff16815260200180602001828103825283818151815260200191508051906020019080838360005b8381101561399d578082015181840152602081019050613982565b50505050905090810190601f1680156139ca5780820380516001836020036101000a031916815260200191505b50935050505060405180910390a15050565b60008260000160008373ffffffffffffffffffffffffffffffffffffffff1673ffffffffffffffffffffffffffffffffffffffff16815260200190815260200160002060006101000a81548160ff0219169083151502179055505050565b60018260000160008373ffffffffffffffffffffffffffffffffffffffff1673ffffffffffffffffffffffffffffffffffffffff16815260200190815260200160002060006101000a81548160ff0219169083151502179055505050565b828054828255906000526020600020908101928215613ada579160200282015b82811115613ad9578251829060001916905591602001919060010190613ab8565b5b509050613ae79190613aeb565b5090565b613b0d91905b80821115613b09576000816000905550600101613af1565b5090565b905600a165627a7a723058201cb4bbb13ce56952197af9b9daf457cf3c39f328bf9e10fcc8186afee5613bcd0029",
  "source": "pragma solidity ^0.4.23;\n\nimport './Question/BaseQuestion.sol';\n\ncontract QuestionContract is BaseQuestion {\n\n\tconstructor(\n\t\tGyanCoin _gyan,\n\t\tKarmaCoin _karma,\n\t\tScholarshipContract _scholarship\n\t) public BaseQuestion(_gyan, _karma, _scholarship) {\n\t\t// basic functions here\n\n\t}\n\n}\n",
  "sourcePath": "/Users/mattpeng/Desktop/github/current/oneX/smart-contracts/contracts/QuestionContract.sol",
  "compiler": {
    "name": "solc",
    "version": "0.4.24+commit.e67f0147.Emscripten.clang"
  },
  "schemaVersion": "2.0.1",
  "updatedAt": "2019-01-14T21:40:40.928Z"
}