{
  "contractName": "ScholarshipContract",
  "abi": [
    {
      "constant": true,
      "inputs": [
        {
          "name": "addr",
          "type": "address"
        },
        {
          "name": "roleName",
          "type": "string"
        }
      ],
      "name": "checkRole",
      "outputs": [],
      "payable": false,
      "stateMutability": "view",
      "type": "function"
    },
    {
      "constant": true,
      "inputs": [],
      "name": "karmaCoin",
      "outputs": [
        {
          "name": "",
          "type": "address"
        }
      ],
      "payable": false,
      "stateMutability": "view",
      "type": "function"
    },
    {
      "constant": true,
      "inputs": [
        {
          "name": "addr",
          "type": "address"
        },
        {
          "name": "roleName",
          "type": "string"
        }
      ],
      "name": "hasRole",
      "outputs": [
        {
          "name": "",
          "type": "bool"
        }
      ],
      "payable": false,
      "stateMutability": "view",
      "type": "function"
    },
    {
      "constant": true,
      "inputs": [
        {
          "name": "",
          "type": "bytes32"
        }
      ],
      "name": "scholarships",
      "outputs": [
        {
          "name": "prerequisite",
          "type": "uint256"
        },
        {
          "name": "transactionLimit",
          "type": "uint256"
        },
        {
          "name": "owner",
          "type": "address"
        },
        {
          "name": "_type",
          "type": "bytes32"
        },
        {
          "name": "walletAddress",
          "type": "address"
        },
        {
          "name": "title",
          "type": "bytes32"
        },
        {
          "name": "timestamp",
          "type": "uint256"
        },
        {
          "name": "description",
          "type": "bytes32"
        }
      ],
      "payable": false,
      "stateMutability": "view",
      "type": "function"
    },
    {
      "constant": true,
      "inputs": [],
      "name": "ROLE_PARTNER",
      "outputs": [
        {
          "name": "",
          "type": "string"
        }
      ],
      "payable": false,
      "stateMutability": "view",
      "type": "function"
    },
    {
      "constant": false,
      "inputs": [
        {
          "name": "addr",
          "type": "address"
        },
        {
          "name": "roleName",
          "type": "string"
        }
      ],
      "name": "adminRemoveRole",
      "outputs": [],
      "payable": false,
      "stateMutability": "nonpayable",
      "type": "function"
    },
    {
      "constant": true,
      "inputs": [],
      "name": "owner",
      "outputs": [
        {
          "name": "",
          "type": "address"
        }
      ],
      "payable": false,
      "stateMutability": "view",
      "type": "function"
    },
    {
      "constant": false,
      "inputs": [
        {
          "name": "addr",
          "type": "address"
        },
        {
          "name": "roleName",
          "type": "string"
        }
      ],
      "name": "adminAddRole",
      "outputs": [],
      "payable": false,
      "stateMutability": "nonpayable",
      "type": "function"
    },
    {
      "constant": true,
      "inputs": [],
      "name": "ROLE_ADMIN",
      "outputs": [
        {
          "name": "",
          "type": "string"
        }
      ],
      "payable": false,
      "stateMutability": "view",
      "type": "function"
    },
    {
      "constant": false,
      "inputs": [
        {
          "name": "newOwner",
          "type": "address"
        }
      ],
      "name": "transferOwnership",
      "outputs": [],
      "payable": false,
      "stateMutability": "nonpayable",
      "type": "function"
    },
    {
      "inputs": [
        {
          "name": "_karma",
          "type": "address"
        }
      ],
      "payable": false,
      "stateMutability": "nonpayable",
      "type": "constructor"
    },
    {
      "anonymous": false,
      "inputs": [
        {
          "indexed": false,
          "name": "addr",
          "type": "address"
        },
        {
          "indexed": false,
          "name": "roleName",
          "type": "string"
        }
      ],
      "name": "RoleAdded",
      "type": "event"
    },
    {
      "anonymous": false,
      "inputs": [
        {
          "indexed": false,
          "name": "addr",
          "type": "address"
        },
        {
          "indexed": false,
          "name": "roleName",
          "type": "string"
        }
      ],
      "name": "RoleRemoved",
      "type": "event"
    },
    {
      "anonymous": false,
      "inputs": [
        {
          "indexed": true,
          "name": "previousOwner",
          "type": "address"
        },
        {
          "indexed": true,
          "name": "newOwner",
          "type": "address"
        }
      ],
      "name": "OwnershipTransferred",
      "type": "event"
    },
    {
      "constant": false,
      "inputs": [
        {
          "name": "_id",
          "type": "bytes32"
        },
        {
          "name": "_ownerAddress",
          "type": "address"
        },
        {
          "name": "_type",
          "type": "bytes32"
        },
        {
          "name": "_title",
          "type": "bytes32"
        },
        {
          "name": "_description",
          "type": "bytes32"
        },
        {
          "name": "_prerequisite",
          "type": "uint256"
        },
        {
          "name": "_transactionLimit",
          "type": "uint256"
        },
        {
          "name": "_walletAddress",
          "type": "address"
        },
        {
          "name": "_allowedCollections",
          "type": "bytes32[]"
        }
      ],
      "name": "create",
      "outputs": [
        {
          "name": "",
          "type": "bool"
        }
      ],
      "payable": false,
      "stateMutability": "nonpayable",
      "type": "function"
    },
    {
      "constant": true,
      "inputs": [
        {
          "name": "_id",
          "type": "bytes32"
        }
      ],
      "name": "getWalletAddress",
      "outputs": [
        {
          "name": "",
          "type": "address"
        }
      ],
      "payable": false,
      "stateMutability": "view",
      "type": "function"
    },
    {
      "constant": false,
      "inputs": [
        {
          "name": "_id",
          "type": "bytes32"
        },
        {
          "name": "_participantAddress",
          "type": "address"
        }
      ],
      "name": "join",
      "outputs": [
        {
          "name": "",
          "type": "bool"
        }
      ],
      "payable": false,
      "stateMutability": "nonpayable",
      "type": "function"
    },
    {
      "constant": false,
      "inputs": [
        {
          "name": "_id",
          "type": "bytes32"
        },
        {
          "name": "_collectionId",
          "type": "bytes32"
        }
      ],
      "name": "addCollection",
      "outputs": [
        {
          "name": "",
          "type": "bool"
        }
      ],
      "payable": false,
      "stateMutability": "nonpayable",
      "type": "function"
    },
    {
      "constant": true,
      "inputs": [
        {
          "name": "_id",
          "type": "bytes32"
        },
        {
          "name": "_collectionId",
          "type": "bytes32"
        }
      ],
      "name": "getAllowedCollection",
      "outputs": [
        {
          "name": "",
          "type": "bool"
        }
      ],
      "payable": false,
      "stateMutability": "view",
      "type": "function"
    },
    {
      "constant": false,
      "inputs": [
        {
          "name": "_id",
          "type": "bytes32"
        },
        {
          "name": "_participantAddress",
          "type": "address"
        }
      ],
      "name": "drop",
      "outputs": [
        {
          "name": "",
          "type": "bool"
        }
      ],
      "payable": false,
      "stateMutability": "nonpayable",
      "type": "function"
    },
    {
      "constant": true,
      "inputs": [
        {
          "name": "_id",
          "type": "bytes32"
        }
      ],
      "name": "getScholarshipData",
      "outputs": [
        {
          "name": "",
          "type": "bytes32"
        },
        {
          "name": "",
          "type": "bytes32"
        },
        {
          "name": "",
          "type": "bytes32"
        },
        {
          "name": "",
          "type": "address"
        },
        {
          "name": "",
          "type": "address"
        },
        {
          "name": "",
          "type": "uint256"
        }
      ],
      "payable": false,
      "stateMutability": "view",
      "type": "function"
    },
    {
      "constant": true,
      "inputs": [
        {
          "name": "_id",
          "type": "bytes32"
        }
      ],
      "name": "getTimestamp",
      "outputs": [
        {
          "name": "",
          "type": "uint256"
        }
      ],
      "payable": false,
      "stateMutability": "view",
      "type": "function"
    },
    {
      "constant": true,
      "inputs": [
        {
          "name": "_id",
          "type": "bytes32"
        },
        {
          "name": "_participantAddress",
          "type": "address"
        }
      ],
      "name": "getParticipant",
      "outputs": [
        {
          "name": "",
          "type": "uint256"
        }
      ],
      "payable": false,
      "stateMutability": "view",
      "type": "function"
    },
    {
      "constant": true,
      "inputs": [
        {
          "name": "_id",
          "type": "bytes32"
        }
      ],
      "name": "balanceOf",
      "outputs": [
        {
          "name": "",
          "type": "uint256"
        }
      ],
      "payable": false,
      "stateMutability": "view",
      "type": "function"
    }
  ],
  "bytecode": "0x60806040523480156200001157600080fd5b50604051602080620027ca83398101806040528101908080519060200190929190505050336000806101000a81548173ffffffffffffffffffffffffffffffffffffffff021916908373ffffffffffffffffffffffffffffffffffffffff160217905550620000c5336040805190810160405280600581526020017f61646d696e0000000000000000000000000000000000000000000000000000008152506200015d640100000000026401000000009004565b62000115336040805190810160405280600781526020017f706172746e6572000000000000000000000000000000000000000000000000008152506200015d640100000000026401000000009004565b80600260006101000a81548173ffffffffffffffffffffffffffffffffffffffff021916908373ffffffffffffffffffffffffffffffffffffffff1602179055505062000321565b620001ec826001836040518082805190602001908083835b6020831015156200019c578051825260208201915060208101905060208303925062000175565b6001836020036101000a0380198251168184511680821785525050505050509050019150509081526020016040518091039020620002c3640100000000026200240f179091906401000000009004565b7fbfec83d64eaa953f2708271a023ab9ee82057f8f3578d548c1a4ba0b5b7004898282604051808373ffffffffffffffffffffffffffffffffffffffff1673ffffffffffffffffffffffffffffffffffffffff16815260200180602001828103825283818151815260200191508051906020019080838360005b838110156200028357808201518184015260208101905062000266565b50505050905090810190601f168015620002b15780820380516001836020036101000a031916815260200191505b50935050505060405180910390a15050565b60018260000160008373ffffffffffffffffffffffffffffffffffffffff1673ffffffffffffffffffffffffffffffffffffffff16815260200190815260200160002060006101000a81548160ff0219169083151502179055505050565b61249980620003316000396000f300608060405260043610610112576000357c0100000000000000000000000000000000000000000000000000000000900463ffffffff1680630988ca8c1461011757806318de998f146101a0578063206d54db146101f7578063217fe6c614610268578063283020841461030957806346bbb4e7146103ef57806351e91e18146104c75780635d6f4f5e1461053057806364155547146105995780636785ce09146106295780636c7f15421461068e578063860489c3146106d357806388cee87e1461072a5780638da5cb5b146107b3578063b25fa92c1461080a578063d391014b14610893578063d45c443514610923578063d48cc91314610968578063f2fde38b146109bf578063f4ce924b14610a02575b600080fd5b34801561012357600080fd5b5061019e600480360381019080803573ffffffffffffffffffffffffffffffffffffffff169060200190929190803590602001908201803590602001908080601f0160208091040260200160405190810160405280939291908181526020018383808284378201915050505050509192919290505050610b0c565b005b3480156101ac57600080fd5b506101b5610b8d565b604051808273ffffffffffffffffffffffffffffffffffffffff1673ffffffffffffffffffffffffffffffffffffffff16815260200191505060405180910390f35b34801561020357600080fd5b506102266004803603810190808035600019169060200190929190505050610bb3565b604051808273ffffffffffffffffffffffffffffffffffffffff1673ffffffffffffffffffffffffffffffffffffffff16815260200191505060405180910390f35b34801561027457600080fd5b506102ef600480360381019080803573ffffffffffffffffffffffffffffffffffffffff169060200190929190803590602001908201803590602001908080601f0160208091040260200160405190810160405280939291908181526020018383808284378201915050505050509192919290505050610bfb565b604051808215151515815260200191505060405180910390f35b34801561031557600080fd5b506103386004803603810190808035600019169060200190929190505050610c82565b604051808981526020018881526020018773ffffffffffffffffffffffffffffffffffffffff1673ffffffffffffffffffffffffffffffffffffffff16815260200186600019166000191681526020018573ffffffffffffffffffffffffffffffffffffffff1673ffffffffffffffffffffffffffffffffffffffff168152602001846000191660001916815260200183815260200182600019166000191681526020019850505050505050505060405180910390f35b3480156103fb57600080fd5b5061041e6004803603810190808035600019169060200190929190505050610d0a565b604051808760001916600019168152602001866000191660001916815260200185600019166000191681526020018473ffffffffffffffffffffffffffffffffffffffff1673ffffffffffffffffffffffffffffffffffffffff1681526020018373ffffffffffffffffffffffffffffffffffffffff1673ffffffffffffffffffffffffffffffffffffffff168152602001828152602001965050505050505060405180910390f35b3480156104d357600080fd5b506105166004803603810190808035600019169060200190929190803573ffffffffffffffffffffffffffffffffffffffff169060200190929190505050610ea7565b604051808215151515815260200191505060405180910390f35b34801561053c57600080fd5b5061057f6004803603810190808035600019169060200190929190803573ffffffffffffffffffffffffffffffffffffffff16906020019092919050505061112f565b604051808215151515815260200191505060405180910390f35b3480156105a557600080fd5b506105ae611335565b6040518080602001828103825283818151815260200191508051906020019080838360005b838110156105ee5780820151818401526020810190506105d3565b50505050905090810190601f16801561061b5780820380516001836020036101000a031916815260200191505b509250505060405180910390f35b34801561063557600080fd5b506106786004803603810190808035600019169060200190929190803573ffffffffffffffffffffffffffffffffffffffff16906020019092919050505061136e565b6040518082815260200191505060405180910390f35b34801561069a57600080fd5b506106bd60048036038101908080356000191690602001909291905050506113d4565b6040518082815260200191505060405180910390f35b3480156106df57600080fd5b5061071060048036038101908080356000191690602001909291908035600019169060200190929190505050611597565b604051808215151515815260200191505060405180910390f35b34801561073657600080fd5b506107b1600480360381019080803573ffffffffffffffffffffffffffffffffffffffff169060200190929190803590602001908201803590602001908080601f01602080910402602001604051908101604052809392919081815260200183838082843782019150505050505091929192905050506116ef565b005b3480156107bf57600080fd5b506107c861173c565b604051808273ffffffffffffffffffffffffffffffffffffffff1673ffffffffffffffffffffffffffffffffffffffff16815260200191505060405180910390f35b34801561081657600080fd5b50610891600480360381019080803573ffffffffffffffffffffffffffffffffffffffff169060200190929190803590602001908201803590602001908080601f0160208091040260200160405190810160405280939291908181526020018383808284378201915050505050509192919290505050611761565b005b34801561089f57600080fd5b506108a86117ae565b6040518080602001828103825283818151815260200191508051906020019080838360005b838110156108e85780820151818401526020810190506108cd565b50505050905090810190601f1680156109155780820380516001836020036101000a031916815260200191505b509250505060405180910390f35b34801561092f57600080fd5b5061095260048036038101908080356000191690602001909291905050506117e7565b6040518082815260200191505060405180910390f35b34801561097457600080fd5b506109a56004803603810190808035600019169060200190929190803560001916906020019092919050505061180f565b604051808215151515815260200191505060405180910390f35b3480156109cb57600080fd5b50610a00600480360381019080803573ffffffffffffffffffffffffffffffffffffffff169060200190929190505050611a37565b005b348015610a0e57600080fd5b50610af26004803603810190808035600019169060200190929190803573ffffffffffffffffffffffffffffffffffffffff1690602001909291908035600019169060200190929190803560001916906020019092919080356000191690602001909291908035906020019092919080359060200190929190803573ffffffffffffffffffffffffffffffffffffffff16906020019092919080359060200190820180359060200190808060200260200160405190810160405280939291908181526020018383602002808284378201915050505050509192919290505050611b8c565b604051808215151515815260200191505060405180910390f35b610b89826001836040518082805190602001908083835b602083101515610b485780518252602082019150602081019050602083039250610b23565b6001836020036101000a038019825116818451168082178552505050505050905001915050908152602001604051809103902061209d90919063ffffffff16565b5050565b600260009054906101000a900473ffffffffffffffffffffffffffffffffffffffff1681565b600060036000836000191660001916815260200190815260200160002060040160009054906101000a900473ffffffffffffffffffffffffffffffffffffffff169050919050565b6000610c7a836001846040518082805190602001908083835b602083101515610c395780518252602082019150602081019050602083039250610c14565b6001836020036101000a03801982511681845116808217855250505050505090500191505090815260200160405180910390206120b690919063ffffffff16565b905092915050565b60036020528060005260406000206000915090508060000154908060010154908060020160009054906101000a900473ffffffffffffffffffffffffffffffffffffffff16908060030154908060040160009054906101000a900473ffffffffffffffffffffffffffffffffffffffff16908060050154908060060154908060070154905088565b60008060008060008060007f010000000000000000000000000000000000000000000000000000000000000002876000602081101515610d4657fe5b1a7f0100000000000000000000000000000000000000000000000000000000000000027effffffffffffffffffffffffffffffffffffffffffffffffffffffffffffff191614151515610d9857600080fd5b6003600088600019166000191681526020019081526020016000206005015460036000896000191660001916815260200190815260200160002060030154600360008a6000191660001916815260200190815260200160002060070154600360008b6000191660001916815260200190815260200160002060040160009054906101000a900473ffffffffffffffffffffffffffffffffffffffff16600360008c6000191660001916815260200190815260200160002060020160009054906101000a900473ffffffffffffffffffffffffffffffffffffffff16600360008d600019166000191681526020019081526020016000206006015495509550955095509550955091939550919395565b60006040805190810160405280600781526020017f706172746e657200000000000000000000000000000000000000000000000000815250610ee93382610b0c565b60007f010000000000000000000000000000000000000000000000000000000000000002846000602081101515610f1c57fe5b1a7f0100000000000000000000000000000000000000000000000000000000000000027effffffffffffffffffffffffffffffffffffffffffffffffffffffffffffff191614151515610f6e57600080fd5b60006003600086600019166000191681526020019081526020016000206006015414151515610f9c57600080fd5b600073ffffffffffffffffffffffffffffffffffffffff168373ffffffffffffffffffffffffffffffffffffffff1614151515610fd857600080fd5b600060036000866000191660001916815260200190815260200160002060080160008573ffffffffffffffffffffffffffffffffffffffff1673ffffffffffffffffffffffffffffffffffffffff1681526020019081526020016000205414151561104257600080fd5b4260036000866000191660001916815260200190815260200160002060080160008573ffffffffffffffffffffffffffffffffffffffff1673ffffffffffffffffffffffffffffffffffffffff168152602001908152602001600020819055506003600085600019166000191681526020019081526020016000206009018390806001815401808255809150509060018203906000526020600020016000909192909190916101000a81548173ffffffffffffffffffffffffffffffffffffffff021916908373ffffffffffffffffffffffffffffffffffffffff16021790555050600191505092915050565b60006040805190810160405280600781526020017f706172746e6572000000000000000000000000000000000000000000000000008152506111713382610b0c565b60007f0100000000000000000000000000000000000000000000000000000000000000028460006020811015156111a457fe5b1a7f0100000000000000000000000000000000000000000000000000000000000000027effffffffffffffffffffffffffffffffffffffffffffffffffffffffffffff1916141515156111f657600080fd5b6000600360008660001916600019168152602001908152602001600020600601541415151561122457600080fd5b600073ffffffffffffffffffffffffffffffffffffffff168373ffffffffffffffffffffffffffffffffffffffff161415151561126057600080fd5b600060036000866000191660001916815260200190815260200160002060080160008573ffffffffffffffffffffffffffffffffffffffff1673ffffffffffffffffffffffffffffffffffffffff16815260200190815260200160002054141515156112cb57600080fd5b60036000856000191660001916815260200190815260200160002060080160008473ffffffffffffffffffffffffffffffffffffffff1673ffffffffffffffffffffffffffffffffffffffff16815260200190815260200160002060009055600191505092915050565b6040805190810160405280600781526020017f706172746e65720000000000000000000000000000000000000000000000000081525081565b600060036000846000191660001916815260200190815260200160002060080160008373ffffffffffffffffffffffffffffffffffffffff1673ffffffffffffffffffffffffffffffffffffffff16815260200190815260200160002054905092915050565b6000807f01000000000000000000000000000000000000000000000000000000000000000282600060208110151561140857fe5b1a7f0100000000000000000000000000000000000000000000000000000000000000027effffffffffffffffffffffffffffffffffffffffffffffffffffffffffffff19161415151561145a57600080fd5b600260009054906101000a900473ffffffffffffffffffffffffffffffffffffffff1673ffffffffffffffffffffffffffffffffffffffff166370a0823160036000856000191660001916815260200190815260200160002060040160009054906101000a900473ffffffffffffffffffffffffffffffffffffffff166040518263ffffffff167c0100000000000000000000000000000000000000000000000000000000028152600401808273ffffffffffffffffffffffffffffffffffffffff1673ffffffffffffffffffffffffffffffffffffffff168152602001915050602060405180830381600087803b15801561155557600080fd5b505af1158015611569573d6000803e3d6000fd5b505050506040513d602081101561157f57600080fd5b81019080805190602001909291905050509050919050565b6000807f0100000000000000000000000000000000000000000000000000000000000000028360006020811015156115cb57fe5b1a7f0100000000000000000000000000000000000000000000000000000000000000027effffffffffffffffffffffffffffffffffffffffffffffffffffffffffffff19161415151561161d57600080fd5b60007f01000000000000000000000000000000000000000000000000000000000000000282600060208110151561165057fe5b1a7f0100000000000000000000000000000000000000000000000000000000000000027effffffffffffffffffffffffffffffffffffffffffffffffffffffffffffff1916141515156116a257600080fd5b600360008460001916600019168152602001908152602001600020600a016000836000191660001916815260200190815260200160002060009054906101000a900460ff16905092915050565b61172e336040805190810160405280600581526020017f61646d696e000000000000000000000000000000000000000000000000000000815250610b0c565b611738828261210f565b5050565b6000809054906101000a900473ffffffffffffffffffffffffffffffffffffffff1681565b6117a0336040805190810160405280600581526020017f61646d696e000000000000000000000000000000000000000000000000000000815250610b0c565b6117aa8282612260565b5050565b6040805190810160405280600581526020017f61646d696e00000000000000000000000000000000000000000000000000000081525081565b6000600360008360001916600019168152602001908152602001600020600601549050919050565b60006040805190810160405280600781526020017f706172746e6572000000000000000000000000000000000000000000000000008152506118513382610b0c565b60007f01000000000000000000000000000000000000000000000000000000000000000284600060208110151561188457fe5b1a7f0100000000000000000000000000000000000000000000000000000000000000027effffffffffffffffffffffffffffffffffffffffffffffffffffffffffffff1916141515156118d657600080fd5b60007f01000000000000000000000000000000000000000000000000000000000000000283600060208110151561190957fe5b1a7f0100000000000000000000000000000000000000000000000000000000000000027effffffffffffffffffffffffffffffffffffffffffffffffffffffffffffff19161415151561195b57600080fd5b6000600360008660001916600019168152602001908152602001600020600601541415151561198957600080fd5b60001515600360008660001916600019168152602001908152602001600020600a016000856000191660001916815260200190815260200160002060009054906101000a900460ff1615151415156119e057600080fd5b6001600360008660001916600019168152602001908152602001600020600a016000856000191660001916815260200190815260200160002060006101000a81548160ff0219169083151502179055505092915050565b6000809054906101000a900473ffffffffffffffffffffffffffffffffffffffff1673ffffffffffffffffffffffffffffffffffffffff163373ffffffffffffffffffffffffffffffffffffffff16141515611a9257600080fd5b600073ffffffffffffffffffffffffffffffffffffffff168173ffffffffffffffffffffffffffffffffffffffff1614151515611ace57600080fd5b8073ffffffffffffffffffffffffffffffffffffffff166000809054906101000a900473ffffffffffffffffffffffffffffffffffffffff1673ffffffffffffffffffffffffffffffffffffffff167f8be0079c531659141344cd1fd0a4f28419497f9722a3daafe3b4186f6b6457e060405160405180910390a3806000806101000a81548173ffffffffffffffffffffffffffffffffffffffff021916908373ffffffffffffffffffffffffffffffffffffffff16021790555050565b6000806040805190810160405280600781526020017f706172746e657200000000000000000000000000000000000000000000000000815250611bcf3382610b0c565b60007f0100000000000000000000000000000000000000000000000000000000000000028c6000602081101515611c0257fe5b1a7f0100000000000000000000000000000000000000000000000000000000000000027effffffffffffffffffffffffffffffffffffffffffffffffffffffffffffff191614151515611c5457600080fd5b600073ffffffffffffffffffffffffffffffffffffffff168b73ffffffffffffffffffffffffffffffffffffffff1614151515611c9057600080fd5b60007f0100000000000000000000000000000000000000000000000000000000000000028a6000602081101515611cc357fe5b1a7f0100000000000000000000000000000000000000000000000000000000000000027effffffffffffffffffffffffffffffffffffffffffffffffffffffffffffff191614151515611d1557600080fd5b60007f010000000000000000000000000000000000000000000000000000000000000002896000602081101515611d4857fe5b1a7f0100000000000000000000000000000000000000000000000000000000000000027effffffffffffffffffffffffffffffffffffffffffffffffffffffffffffff191614151515611d9a57600080fd5b60007f010000000000000000000000000000000000000000000000000000000000000002886000602081101515611dcd57fe5b1a7f0100000000000000000000000000000000000000000000000000000000000000027effffffffffffffffffffffffffffffffffffffffffffffffffffffffffffff191614151515611e1f57600080fd5b600086111515611e2e57600080fd5b600073ffffffffffffffffffffffffffffffffffffffff168573ffffffffffffffffffffffffffffffffffffffff1614151515611e6a57600080fd5b88600360008e60001916600019168152602001908152602001600020600501816000191690555086600360008e600019166000191681526020019081526020016000206000018190555087600360008e6000191660001916815260200190815260200160002060070181600019169055508a600360008e6000191660001916815260200190815260200160002060020160006101000a81548173ffffffffffffffffffffffffffffffffffffffff021916908373ffffffffffffffffffffffffffffffffffffffff16021790555089600360008e60001916600019168152602001908152602001600020600301816000191690555085600360008e600019166000191681526020019081526020016000206001018190555084600360008e6000191660001916815260200190815260200160002060040160006101000a81548173ffffffffffffffffffffffffffffffffffffffff021916908373ffffffffffffffffffffffffffffffffffffffff16021790555042600360008e6000191660001916815260200190815260200160002060060181905550600091505b83518260ff16101561208a576001600360008e60001916600019168152602001908152602001600020600a016000868560ff1681518110151561204657fe5b906020019060200201516000191660001916815260200190815260200160002060006101000a81548160ff0219169083151502179055508180600101925050612007565b6001925050509998505050505050505050565b6120a782826120b6565b15156120b257600080fd5b5050565b60008260000160008373ffffffffffffffffffffffffffffffffffffffff1673ffffffffffffffffffffffffffffffffffffffff16815260200190815260200160002060009054906101000a900460ff16905092915050565b61218c826001836040518082805190602001908083835b60208310151561214b5780518252602082019150602081019050602083039250612126565b6001836020036101000a03801982511681845116808217855250505050505090500191505090815260200160405180910390206123b190919063ffffffff16565b7fd211483f91fc6eff862467f8de606587a30c8fc9981056f051b897a418df803a8282604051808373ffffffffffffffffffffffffffffffffffffffff1673ffffffffffffffffffffffffffffffffffffffff16815260200180602001828103825283818151815260200191508051906020019080838360005b83811015612221578082015181840152602081019050612206565b50505050905090810190601f16801561224e5780820380516001836020036101000a031916815260200191505b50935050505060405180910390a15050565b6122dd826001836040518082805190602001908083835b60208310151561229c5780518252602082019150602081019050602083039250612277565b6001836020036101000a038019825116818451168082178552505050505050905001915050908152602001604051809103902061240f90919063ffffffff16565b7fbfec83d64eaa953f2708271a023ab9ee82057f8f3578d548c1a4ba0b5b7004898282604051808373ffffffffffffffffffffffffffffffffffffffff1673ffffffffffffffffffffffffffffffffffffffff16815260200180602001828103825283818151815260200191508051906020019080838360005b83811015612372578082015181840152602081019050612357565b50505050905090810190601f16801561239f5780820380516001836020036101000a031916815260200191505b50935050505060405180910390a15050565b60008260000160008373ffffffffffffffffffffffffffffffffffffffff1673ffffffffffffffffffffffffffffffffffffffff16815260200190815260200160002060006101000a81548160ff0219169083151502179055505050565b60018260000160008373ffffffffffffffffffffffffffffffffffffffff1673ffffffffffffffffffffffffffffffffffffffff16815260200190815260200160002060006101000a81548160ff02191690831515021790555050505600a165627a7a72305820379b37a22c4b62dead8e0f0e2e2f4fa267b3c38c8670f6ec384f3ecfc84ab36d0029",
  "source": "pragma solidity ^0.4.0;\n\nimport \"./KarmaCoin.sol\";\nimport \"./ownership/PbOwnable.sol\";\nimport \"./ownership/rbac/RBAC.sol\";\n\ncontract ScholarshipContract is PbOwnable, RBAC {\n\n\tKarmaCoin public karmaCoin;\n\n\tstruct Scholarship {\n\t\tuint256 prerequisite;\n\t\tuint256 transactionLimit;\n\t\taddress owner;\n\t\tbytes32 _type;\n\t\taddress walletAddress;\n\t\tbytes32 title;\n\t\tuint256 timestamp;\n\t\tbytes32 description;\n\t\tmapping(address => uint256) participants;\n\t\taddress[] participantIndex;\n\t\tmapping(bytes32 => bool) allowedCollections;\n\t}\n\n\tfunction ScholarshipContract(\n\t\tKarmaCoin _karma\n\t) {\n\t\tkarmaCoin = _karma;\n\t}\n\n\tmapping(bytes32 => Scholarship) public scholarships;\n\n\tfunction create(bytes32 _id, address _ownerAddress, bytes32 _type, bytes32 _title, bytes32 _description, uint256 _prerequisite, uint256 _transactionLimit, address _walletAddress, bytes32[] _allowedCollections) public onlyRole(ROLE_PARTNER) returns (bool) {\n\t\trequire(_id[0] != 0);\n\t\trequire(_ownerAddress != address(0));\n\t\trequire(_type[0] != 0);\n\t\trequire(_title[0] != 0);\n\t\trequire(_description[0] != 0);\n\t\trequire(_transactionLimit > 0);\n\t\trequire(_walletAddress != address(0));\n\n\t\tscholarships[_id].title = _title;\n\t\tscholarships[_id].prerequisite = _prerequisite;\n\t\tscholarships[_id].description = _description;\n\t\tscholarships[_id].owner = _ownerAddress;\n\t\tscholarships[_id]._type = _type;\n\t\tscholarships[_id].transactionLimit = _transactionLimit;\n\t\tscholarships[_id].walletAddress = _walletAddress;\n\t\tscholarships[_id].timestamp = now;\n\t\t// Map _assessmentRules array to contract variables\n\t\tfor (uint8 i = 0; i < _allowedCollections.length; i++) {\n\t\t\tscholarships[_id].allowedCollections[_allowedCollections[i]] = true;\n\t\t}\n\t\treturn true;\n\t}\n\n\tfunction getWalletAddress(bytes32 _id) public view returns (address) {\n\t\treturn scholarships[_id].walletAddress;\n\t}\n\n\tfunction join(bytes32 _id, address _participantAddress) public onlyRole(ROLE_PARTNER) returns (bool) {\n\t\trequire(_id[0] != 0);\n\t\trequire(scholarships[_id].timestamp != 0);\n\t\trequire(_participantAddress != address(0));\n\t\t// Make sure this participant does not already exist for this scholarship\n\t\trequire(scholarships[_id].participants[_participantAddress] == 0);\n\n\t\tscholarships[_id].participants[_participantAddress] = now;\n\t\tscholarships[_id].participantIndex.push(_participantAddress);\n\t\treturn true;\n\t}\n\n\tfunction addCollection(bytes32 _id, bytes32 _collectionId) public onlyRole(ROLE_PARTNER) returns (bool) {\n\t\trequire(_id[0] != 0);\n\t\trequire(_collectionId[0] != 0);\n\t\trequire(scholarships[_id].timestamp != 0);\n\t\trequire(scholarships[_id].allowedCollections[_collectionId] == false);\n\n\t\tscholarships[_id].allowedCollections[_collectionId] = true;\n\t}\n\n\tfunction getAllowedCollection(bytes32 _id, bytes32 _collectionId) public view returns (bool) {\n\t\trequire(_id[0] != 0);\n\t\trequire(_collectionId[0] != 0);\n\t\treturn scholarships[_id].allowedCollections[_collectionId];\n\t}\n\n\tfunction drop(bytes32 _id, address _participantAddress) public onlyRole(ROLE_PARTNER) returns (bool) {\n\t\trequire(_id[0] != 0);\n\t\trequire(scholarships[_id].timestamp != 0);\n\t\trequire(_participantAddress != address(0));\n\t\trequire(scholarships[_id].participants[_participantAddress] != 0);\n\n\t\tdelete scholarships[_id].participants[_participantAddress];\n\t\treturn true;\n\t}\n\n\tfunction getScholarshipData(bytes32 _id) public view returns (bytes32, bytes32, bytes32, address, address, uint256) {\n\t\trequire(_id[0] != 0);\n\t\treturn (scholarships[_id].title, scholarships[_id]._type, scholarships[_id].description, scholarships[_id].walletAddress, scholarships[_id].owner, scholarships[_id].timestamp);\n\t}\n\n\tfunction getTimestamp(bytes32 _id) public view returns (uint256) {\n\t\treturn scholarships[_id].timestamp;\n\t}\n\n\tfunction getParticipant(bytes32 _id, address _participantAddress) public view returns (uint256) {\n\t\treturn scholarships[_id].participants[_participantAddress];\n\t}\n\n\tfunction balanceOf(bytes32 _id) public view returns (uint256) {\n\t\trequire(_id[0] != 0);\n\t\treturn karmaCoin.balanceOf(scholarships[_id].walletAddress);\n\t}\n\n\tmodifier hasScholarship(bytes32 _id, address _participantAddress) {\n\t\trequire(scholarships[_id].participants[_participantAddress] != 0);\n\t\t_;\n\t}\n\n}\n",
  "sourcePath": "/Users/aakash/WebstormProjects/pbether/contracts/ScholarshipContract.sol",
  "compiler": {
    "name": "solc",
    "version": "0.4.23+commit.124ca40d.Emscripten.clang"
  },
  "schemaVersion": "2.0.0",
  "updatedAt": "2018-05-19T16:08:58.580Z"
}