{
  "contractName": "ScholarshipContract",
  "abi": [
    {
      "constant": true,
      "inputs": [
        {
          "name": "addr",
          "type": "address"
        },
        {
          "name": "roleName",
          "type": "string"
        }
      ],
      "name": "checkRole",
      "outputs": [],
      "payable": false,
      "stateMutability": "view",
      "type": "function"
    },
    {
      "constant": true,
      "inputs": [],
      "name": "karmaCoin",
      "outputs": [
        {
          "name": "",
          "type": "address"
        }
      ],
      "payable": false,
      "stateMutability": "view",
      "type": "function"
    },
    {
      "constant": true,
      "inputs": [
        {
          "name": "addr",
          "type": "address"
        },
        {
          "name": "roleName",
          "type": "string"
        }
      ],
      "name": "hasRole",
      "outputs": [
        {
          "name": "",
          "type": "bool"
        }
      ],
      "payable": false,
      "stateMutability": "view",
      "type": "function"
    },
    {
      "constant": true,
      "inputs": [
        {
          "name": "",
          "type": "bytes32"
        }
      ],
      "name": "scholarships",
      "outputs": [
        {
          "name": "prerequisite",
          "type": "uint256"
        },
        {
          "name": "transactionLimit",
          "type": "uint256"
        },
        {
          "name": "owner",
          "type": "address"
        },
        {
          "name": "_type",
          "type": "bytes32"
        },
        {
          "name": "walletAddress",
          "type": "address"
        },
        {
          "name": "title",
          "type": "bytes32"
        },
        {
          "name": "timestamp",
          "type": "uint256"
        },
        {
          "name": "description",
          "type": "bytes32"
        }
      ],
      "payable": false,
      "stateMutability": "view",
      "type": "function"
    },
    {
      "constant": true,
      "inputs": [],
      "name": "ROLE_PARTNER",
      "outputs": [
        {
          "name": "",
          "type": "string"
        }
      ],
      "payable": false,
      "stateMutability": "view",
      "type": "function"
    },
    {
      "constant": false,
      "inputs": [
        {
          "name": "addr",
          "type": "address"
        },
        {
          "name": "roleName",
          "type": "string"
        }
      ],
      "name": "adminRemoveRole",
      "outputs": [],
      "payable": false,
      "stateMutability": "nonpayable",
      "type": "function"
    },
    {
      "constant": true,
      "inputs": [],
      "name": "owner",
      "outputs": [
        {
          "name": "",
          "type": "address"
        }
      ],
      "payable": false,
      "stateMutability": "view",
      "type": "function"
    },
    {
      "constant": false,
      "inputs": [
        {
          "name": "addr",
          "type": "address"
        },
        {
          "name": "roleName",
          "type": "string"
        }
      ],
      "name": "adminAddRole",
      "outputs": [],
      "payable": false,
      "stateMutability": "nonpayable",
      "type": "function"
    },
    {
      "constant": true,
      "inputs": [],
      "name": "ROLE_ADMIN",
      "outputs": [
        {
          "name": "",
          "type": "string"
        }
      ],
      "payable": false,
      "stateMutability": "view",
      "type": "function"
    },
    {
      "constant": false,
      "inputs": [
        {
          "name": "newOwner",
          "type": "address"
        }
      ],
      "name": "transferOwnership",
      "outputs": [],
      "payable": false,
      "stateMutability": "nonpayable",
      "type": "function"
    },
    {
      "inputs": [
        {
          "name": "_karma",
          "type": "address"
        }
      ],
      "payable": false,
      "stateMutability": "nonpayable",
      "type": "constructor"
    },
    {
      "anonymous": false,
      "inputs": [
        {
          "indexed": false,
          "name": "_id",
          "type": "bytes32"
        },
        {
          "indexed": false,
          "name": "_type",
          "type": "bytes32"
        },
        {
          "indexed": false,
          "name": "pbNode",
          "type": "address"
        }
      ],
      "name": "ScholarshipCreate",
      "type": "event"
    },
    {
      "anonymous": false,
      "inputs": [
        {
          "indexed": false,
          "name": "_id",
          "type": "bytes32"
        },
        {
          "indexed": false,
          "name": "_participantAddress",
          "type": "address"
        },
        {
          "indexed": false,
          "name": "pbNode",
          "type": "address"
        }
      ],
      "name": "ScholarshipJoin",
      "type": "event"
    },
    {
      "anonymous": false,
      "inputs": [
        {
          "indexed": false,
          "name": "_id",
          "type": "bytes32"
        },
        {
          "indexed": false,
          "name": "_collectionId",
          "type": "bytes32"
        },
        {
          "indexed": false,
          "name": "pbNode",
          "type": "address"
        }
      ],
      "name": "ScholarshipAddCollection",
      "type": "event"
    },
    {
      "anonymous": false,
      "inputs": [
        {
          "indexed": false,
          "name": "_id",
          "type": "bytes32"
        },
        {
          "indexed": false,
          "name": "_questionId",
          "type": "bytes32"
        },
        {
          "indexed": false,
          "name": "pbNode",
          "type": "address"
        }
      ],
      "name": "ScholarshipAddQuestion",
      "type": "event"
    },
    {
      "anonymous": false,
      "inputs": [
        {
          "indexed": false,
          "name": "_id",
          "type": "bytes32"
        },
        {
          "indexed": false,
          "name": "_participantAddress",
          "type": "address"
        },
        {
          "indexed": false,
          "name": "pbNode",
          "type": "address"
        }
      ],
      "name": "ScholarshipDrop",
      "type": "event"
    },
    {
      "anonymous": false,
      "inputs": [
        {
          "indexed": false,
          "name": "addr",
          "type": "address"
        },
        {
          "indexed": false,
          "name": "roleName",
          "type": "string"
        }
      ],
      "name": "RoleAdded",
      "type": "event"
    },
    {
      "anonymous": false,
      "inputs": [
        {
          "indexed": false,
          "name": "addr",
          "type": "address"
        },
        {
          "indexed": false,
          "name": "roleName",
          "type": "string"
        }
      ],
      "name": "RoleRemoved",
      "type": "event"
    },
    {
      "anonymous": false,
      "inputs": [
        {
          "indexed": true,
          "name": "previousOwner",
          "type": "address"
        },
        {
          "indexed": true,
          "name": "newOwner",
          "type": "address"
        }
      ],
      "name": "OwnershipTransferred",
      "type": "event"
    },
    {
      "constant": false,
      "inputs": [
        {
          "name": "_id",
          "type": "bytes32"
        },
        {
          "name": "_ownerAddress",
          "type": "address"
        },
        {
          "name": "_type",
          "type": "bytes32"
        },
        {
          "name": "_title",
          "type": "bytes32"
        },
        {
          "name": "_description",
          "type": "bytes32"
        },
        {
          "name": "_prerequisite",
          "type": "uint256"
        },
        {
          "name": "_transactionLimit",
          "type": "uint256"
        },
        {
          "name": "_walletAddress",
          "type": "address"
        },
        {
          "name": "_allowedCollections",
          "type": "bytes32[]"
        }
      ],
      "name": "create",
      "outputs": [
        {
          "name": "",
          "type": "bool"
        }
      ],
      "payable": false,
      "stateMutability": "nonpayable",
      "type": "function"
    },
    {
      "constant": true,
      "inputs": [
        {
          "name": "_id",
          "type": "bytes32"
        }
      ],
      "name": "getWalletAddress",
      "outputs": [
        {
          "name": "",
          "type": "address"
        }
      ],
      "payable": false,
      "stateMutability": "view",
      "type": "function"
    },
    {
      "constant": false,
      "inputs": [
        {
          "name": "_id",
          "type": "bytes32"
        },
        {
          "name": "_participantAddress",
          "type": "address"
        }
      ],
      "name": "join",
      "outputs": [
        {
          "name": "",
          "type": "bool"
        }
      ],
      "payable": false,
      "stateMutability": "nonpayable",
      "type": "function"
    },
    {
      "constant": false,
      "inputs": [
        {
          "name": "_id",
          "type": "bytes32"
        },
        {
          "name": "_collectionId",
          "type": "bytes32"
        }
      ],
      "name": "addCollection",
      "outputs": [
        {
          "name": "",
          "type": "bool"
        }
      ],
      "payable": false,
      "stateMutability": "nonpayable",
      "type": "function"
    },
    {
      "constant": false,
      "inputs": [
        {
          "name": "_id",
          "type": "bytes32"
        },
        {
          "name": "_questionId",
          "type": "bytes32"
        }
      ],
      "name": "addQuestion",
      "outputs": [
        {
          "name": "",
          "type": "bool"
        }
      ],
      "payable": false,
      "stateMutability": "nonpayable",
      "type": "function"
    },
    {
      "constant": true,
      "inputs": [
        {
          "name": "_id",
          "type": "bytes32"
        },
        {
          "name": "_collectionId",
          "type": "bytes32"
        }
      ],
      "name": "getAllowedCollection",
      "outputs": [
        {
          "name": "",
          "type": "bool"
        }
      ],
      "payable": false,
      "stateMutability": "view",
      "type": "function"
    },
    {
      "constant": true,
      "inputs": [
        {
          "name": "_id",
          "type": "bytes32"
        },
        {
          "name": "_questionId",
          "type": "bytes32"
        }
      ],
      "name": "getAllowedQuestion",
      "outputs": [
        {
          "name": "",
          "type": "bool"
        }
      ],
      "payable": false,
      "stateMutability": "view",
      "type": "function"
    },
    {
      "constant": false,
      "inputs": [
        {
          "name": "_id",
          "type": "bytes32"
        },
        {
          "name": "_participantAddress",
          "type": "address"
        }
      ],
      "name": "drop",
      "outputs": [
        {
          "name": "",
          "type": "bool"
        }
      ],
      "payable": false,
      "stateMutability": "nonpayable",
      "type": "function"
    },
    {
      "constant": true,
      "inputs": [
        {
          "name": "_id",
          "type": "bytes32"
        }
      ],
      "name": "getScholarshipData",
      "outputs": [
        {
          "name": "",
          "type": "bytes32"
        },
        {
          "name": "",
          "type": "bytes32"
        },
        {
          "name": "",
          "type": "bytes32"
        },
        {
          "name": "",
          "type": "address"
        },
        {
          "name": "",
          "type": "address"
        },
        {
          "name": "",
          "type": "uint256"
        }
      ],
      "payable": false,
      "stateMutability": "view",
      "type": "function"
    },
    {
      "constant": true,
      "inputs": [
        {
          "name": "_id",
          "type": "bytes32"
        }
      ],
      "name": "getTimestamp",
      "outputs": [
        {
          "name": "",
          "type": "uint256"
        }
      ],
      "payable": false,
      "stateMutability": "view",
      "type": "function"
    },
    {
      "constant": true,
      "inputs": [
        {
          "name": "_id",
          "type": "bytes32"
        },
        {
          "name": "_participantAddress",
          "type": "address"
        }
      ],
      "name": "getParticipant",
      "outputs": [
        {
          "name": "",
          "type": "uint256"
        }
      ],
      "payable": false,
      "stateMutability": "view",
      "type": "function"
    },
    {
      "constant": true,
      "inputs": [
        {
          "name": "_id",
          "type": "bytes32"
        }
      ],
      "name": "getType",
      "outputs": [
        {
          "name": "",
          "type": "bytes32"
        }
      ],
      "payable": false,
      "stateMutability": "view",
      "type": "function"
    },
    {
      "constant": true,
      "inputs": [
        {
          "name": "_id",
          "type": "bytes32"
        }
      ],
      "name": "balanceOf",
      "outputs": [
        {
          "name": "",
          "type": "uint256"
        }
      ],
      "payable": false,
      "stateMutability": "view",
      "type": "function"
    }
  ],
  "bytecode": "0x60806040523480156200001157600080fd5b5060405160208062002f9a83398101806040528101908080519060200190929190505050336000806101000a81548173ffffffffffffffffffffffffffffffffffffffff021916908373ffffffffffffffffffffffffffffffffffffffff160217905550620000c5336040805190810160405280600581526020017f61646d696e0000000000000000000000000000000000000000000000000000008152506200015d640100000000026401000000009004565b62000115336040805190810160405280600781526020017f706172746e6572000000000000000000000000000000000000000000000000008152506200015d640100000000026401000000009004565b80600260006101000a81548173ffffffffffffffffffffffffffffffffffffffff021916908373ffffffffffffffffffffffffffffffffffffffff1602179055505062000321565b620001ec826001836040518082805190602001908083835b6020831015156200019c578051825260208201915060208101905060208303925062000175565b6001836020036101000a0380198251168184511680821785525050505050509050019150509081526020016040518091039020620002c36401000000000262002bdf179091906401000000009004565b7fbfec83d64eaa953f2708271a023ab9ee82057f8f3578d548c1a4ba0b5b7004898282604051808373ffffffffffffffffffffffffffffffffffffffff1673ffffffffffffffffffffffffffffffffffffffff16815260200180602001828103825283818151815260200191508051906020019080838360005b838110156200028357808201518184015260208101905062000266565b50505050905090810190601f168015620002b15780820380516001836020036101000a031916815260200191505b50935050505060405180910390a15050565b60018260000160008373ffffffffffffffffffffffffffffffffffffffff1673ffffffffffffffffffffffffffffffffffffffff16815260200190815260200160002060006101000a81548160ff0219169083151502179055505050565b612c6980620003316000396000f300608060405260043610610133576000357c0100000000000000000000000000000000000000000000000000000000900463ffffffff1680630988ca8c1461013857806318de998f146101c1578063206d54db14610218578063217fe6c614610289578063283020841461032a57806346bbb4e7146104105780635116c719146104e857806351e91e181461053f5780635d6f4f5e146105a857806364155547146106115780636785ce09146106a15780636c7f1542146107065780637f2aeea41461074b578063860489c31461079857806386d78e18146107ef57806388cee87e146108465780638da5cb5b146108cf578063b25fa92c14610926578063d391014b146109af578063d45c443514610a3f578063d48cc91314610a84578063f2fde38b14610adb578063f4ce924b14610b1e575b600080fd5b34801561014457600080fd5b506101bf600480360381019080803573ffffffffffffffffffffffffffffffffffffffff169060200190929190803590602001908201803590602001908080601f0160208091040260200160405190810160405280939291908181526020018383808284378201915050505050509192919290505050610c28565b005b3480156101cd57600080fd5b506101d6610ca9565b604051808273ffffffffffffffffffffffffffffffffffffffff1673ffffffffffffffffffffffffffffffffffffffff16815260200191505060405180910390f35b34801561022457600080fd5b506102476004803603810190808035600019169060200190929190505050610ccf565b604051808273ffffffffffffffffffffffffffffffffffffffff1673ffffffffffffffffffffffffffffffffffffffff16815260200191505060405180910390f35b34801561029557600080fd5b50610310600480360381019080803573ffffffffffffffffffffffffffffffffffffffff169060200190929190803590602001908201803590602001908080601f0160208091040260200160405190810160405280939291908181526020018383808284378201915050505050509192919290505050610d17565b604051808215151515815260200191505060405180910390f35b34801561033657600080fd5b506103596004803603810190808035600019169060200190929190505050610d9e565b604051808981526020018881526020018773ffffffffffffffffffffffffffffffffffffffff1673ffffffffffffffffffffffffffffffffffffffff16815260200186600019166000191681526020018573ffffffffffffffffffffffffffffffffffffffff1673ffffffffffffffffffffffffffffffffffffffff168152602001846000191660001916815260200183815260200182600019166000191681526020019850505050505050505060405180910390f35b34801561041c57600080fd5b5061043f6004803603810190808035600019169060200190929190505050610e26565b604051808760001916600019168152602001866000191660001916815260200185600019166000191681526020018473ffffffffffffffffffffffffffffffffffffffff1673ffffffffffffffffffffffffffffffffffffffff1681526020018373ffffffffffffffffffffffffffffffffffffffff1673ffffffffffffffffffffffffffffffffffffffff168152602001828152602001965050505050505060405180910390f35b3480156104f457600080fd5b5061052560048036038101908080356000191690602001909291908035600019169060200190929190505050610fc3565b604051808215151515815260200191505060405180910390f35b34801561054b57600080fd5b5061058e6004803603810190808035600019169060200190929190803573ffffffffffffffffffffffffffffffffffffffff169060200190929190505050611272565b604051808215151515815260200191505060405180910390f35b3480156105b457600080fd5b506105f76004803603810190808035600019169060200190929190803573ffffffffffffffffffffffffffffffffffffffff1690602001909291905050506115a1565b604051808215151515815260200191505060405180910390f35b34801561061d57600080fd5b5061062661184e565b6040518080602001828103825283818151815260200191508051906020019080838360005b8381101561066657808201518184015260208101905061064b565b50505050905090810190601f1680156106935780820380516001836020036101000a031916815260200191505b509250505060405180910390f35b3480156106ad57600080fd5b506106f06004803603810190808035600019169060200190929190803573ffffffffffffffffffffffffffffffffffffffff169060200190929190505050611887565b6040518082815260200191505060405180910390f35b34801561071257600080fd5b5061073560048036038101908080356000191690602001909291905050506118ed565b6040518082815260200191505060405180910390f35b34801561075757600080fd5b5061077a6004803603810190808035600019169060200190929190505050611ab0565b60405180826000191660001916815260200191505060405180910390f35b3480156107a457600080fd5b506107d560048036038101908080356000191690602001909291908035600019169060200190929190505050611ad8565b604051808215151515815260200191505060405180910390f35b3480156107fb57600080fd5b5061082c60048036038101908080356000191690602001909291908035600019169060200190929190505050611c30565b604051808215151515815260200191505060405180910390f35b34801561085257600080fd5b506108cd600480360381019080803573ffffffffffffffffffffffffffffffffffffffff169060200190929190803590602001908201803590602001908080601f0160208091040260200160405190810160405280939291908181526020018383808284378201915050505050509192919290505050611d88565b005b3480156108db57600080fd5b506108e4611dd5565b604051808273ffffffffffffffffffffffffffffffffffffffff1673ffffffffffffffffffffffffffffffffffffffff16815260200191505060405180910390f35b34801561093257600080fd5b506109ad600480360381019080803573ffffffffffffffffffffffffffffffffffffffff169060200190929190803590602001908201803590602001908080601f0160208091040260200160405190810160405280939291908181526020018383808284378201915050505050509192919290505050611dfa565b005b3480156109bb57600080fd5b506109c4611e47565b6040518080602001828103825283818151815260200191508051906020019080838360005b83811015610a045780820151818401526020810190506109e9565b50505050905090810190601f168015610a315780820380516001836020036101000a031916815260200191505b509250505060405180910390f35b348015610a4b57600080fd5b50610a6e6004803603810190808035600019169060200190929190505050611e80565b6040518082815260200191505060405180910390f35b348015610a9057600080fd5b50610ac160048036038101908080356000191690602001909291908035600019169060200190929190505050611ea8565b604051808215151515815260200191505060405180910390f35b348015610ae757600080fd5b50610b1c600480360381019080803573ffffffffffffffffffffffffffffffffffffffff169060200190929190505050612157565b005b348015610b2a57600080fd5b50610c0e6004803603810190808035600019169060200190929190803573ffffffffffffffffffffffffffffffffffffffff1690602001909291908035600019169060200190929190803560001916906020019092919080356000191690602001909291908035906020019092919080359060200190929190803573ffffffffffffffffffffffffffffffffffffffff169060200190929190803590602001908201803590602001908080602002602001604051908101604052809392919081815260200183836020028082843782019150505050505091929192905050506122ac565b604051808215151515815260200191505060405180910390f35b610ca5826001836040518082805190602001908083835b602083101515610c645780518252602082019150602081019050602083039250610c3f565b6001836020036101000a038019825116818451168082178552505050505050905001915050908152602001604051809103902061286d90919063ffffffff16565b5050565b600260009054906101000a900473ffffffffffffffffffffffffffffffffffffffff1681565b600060036000836000191660001916815260200190815260200160002060040160009054906101000a900473ffffffffffffffffffffffffffffffffffffffff169050919050565b6000610d96836001846040518082805190602001908083835b602083101515610d555780518252602082019150602081019050602083039250610d30565b6001836020036101000a038019825116818451168082178552505050505050905001915050908152602001604051809103902061288690919063ffffffff16565b905092915050565b60036020528060005260406000206000915090508060000154908060010154908060020160009054906101000a900473ffffffffffffffffffffffffffffffffffffffff16908060030154908060040160009054906101000a900473ffffffffffffffffffffffffffffffffffffffff16908060050154908060060154908060070154905088565b60008060008060008060007f010000000000000000000000000000000000000000000000000000000000000002876000602081101515610e6257fe5b1a7f0100000000000000000000000000000000000000000000000000000000000000027effffffffffffffffffffffffffffffffffffffffffffffffffffffffffffff191614151515610eb457600080fd5b6003600088600019166000191681526020019081526020016000206005015460036000896000191660001916815260200190815260200160002060030154600360008a6000191660001916815260200190815260200160002060070154600360008b6000191660001916815260200190815260200160002060040160009054906101000a900473ffffffffffffffffffffffffffffffffffffffff16600360008c6000191660001916815260200190815260200160002060020160009054906101000a900473ffffffffffffffffffffffffffffffffffffffff16600360008d600019166000191681526020019081526020016000206006015495509550955095509550955091939550919395565b60006040805190810160405280600781526020017f706172746e6572000000000000000000000000000000000000000000000000008152506110053382610c28565b60007f01000000000000000000000000000000000000000000000000000000000000000284600060208110151561103857fe5b1a7f0100000000000000000000000000000000000000000000000000000000000000027effffffffffffffffffffffffffffffffffffffffffffffffffffffffffffff19161415151561108a57600080fd5b60007f0100000000000000000000000000000000000000000000000000000000000000028360006020811015156110bd57fe5b1a7f0100000000000000000000000000000000000000000000000000000000000000027effffffffffffffffffffffffffffffffffffffffffffffffffffffffffffff19161415151561110f57600080fd5b6000600360008660001916600019168152602001908152602001600020600601541415151561113d57600080fd5b60001515600360008660001916600019168152602001908152602001600020600b016000856000191660001916815260200190815260200160002060009054906101000a900460ff16151514151561119457600080fd5b6001600360008660001916600019168152602001908152602001600020600b016000856000191660001916815260200190815260200160002060006101000a81548160ff0219169083151502179055507f6b97054ae6381cb942fbeece166377eec38fa0d28ea52d8133cd22883f8fb37d84843360405180846000191660001916815260200183600019166000191681526020018273ffffffffffffffffffffffffffffffffffffffff1673ffffffffffffffffffffffffffffffffffffffff168152602001935050505060405180910390a1600191505092915050565b60006040805190810160405280600781526020017f706172746e6572000000000000000000000000000000000000000000000000008152506112b43382610c28565b60007f0100000000000000000000000000000000000000000000000000000000000000028460006020811015156112e757fe5b1a7f0100000000000000000000000000000000000000000000000000000000000000027effffffffffffffffffffffffffffffffffffffffffffffffffffffffffffff19161415151561133957600080fd5b6000600360008660001916600019168152602001908152602001600020600601541415151561136757600080fd5b600073ffffffffffffffffffffffffffffffffffffffff168373ffffffffffffffffffffffffffffffffffffffff16141515156113a357600080fd5b600060036000866000191660001916815260200190815260200160002060080160008573ffffffffffffffffffffffffffffffffffffffff1673ffffffffffffffffffffffffffffffffffffffff1681526020019081526020016000205414151561140d57600080fd5b4260036000866000191660001916815260200190815260200160002060080160008573ffffffffffffffffffffffffffffffffffffffff1673ffffffffffffffffffffffffffffffffffffffff168152602001908152602001600020819055506003600085600019166000191681526020019081526020016000206009018390806001815401808255809150509060018203906000526020600020016000909192909190916101000a81548173ffffffffffffffffffffffffffffffffffffffff021916908373ffffffffffffffffffffffffffffffffffffffff160217905550507f55bf79266e4c56d2b26979c4bdded74eb68514ad4ebf1c529a37fff1237bcd3e8484336040518084600019166000191681526020018373ffffffffffffffffffffffffffffffffffffffff1673ffffffffffffffffffffffffffffffffffffffff1681526020018273ffffffffffffffffffffffffffffffffffffffff1673ffffffffffffffffffffffffffffffffffffffff168152602001935050505060405180910390a1600191505092915050565b60006040805190810160405280600781526020017f706172746e6572000000000000000000000000000000000000000000000000008152506115e33382610c28565b60007f01000000000000000000000000000000000000000000000000000000000000000284600060208110151561161657fe5b1a7f0100000000000000000000000000000000000000000000000000000000000000027effffffffffffffffffffffffffffffffffffffffffffffffffffffffffffff19161415151561166857600080fd5b6000600360008660001916600019168152602001908152602001600020600601541415151561169657600080fd5b600073ffffffffffffffffffffffffffffffffffffffff168373ffffffffffffffffffffffffffffffffffffffff16141515156116d257600080fd5b600060036000866000191660001916815260200190815260200160002060080160008573ffffffffffffffffffffffffffffffffffffffff1673ffffffffffffffffffffffffffffffffffffffff168152602001908152602001600020541415151561173d57600080fd5b60036000856000191660001916815260200190815260200160002060080160008473ffffffffffffffffffffffffffffffffffffffff1673ffffffffffffffffffffffffffffffffffffffff168152602001908152602001600020600090557fb7705fed2cb4d1c9dd4849ebe2e521b399d735f8f9cf3d5c4cb5dd513eac654e8484336040518084600019166000191681526020018373ffffffffffffffffffffffffffffffffffffffff1673ffffffffffffffffffffffffffffffffffffffff1681526020018273ffffffffffffffffffffffffffffffffffffffff1673ffffffffffffffffffffffffffffffffffffffff168152602001935050505060405180910390a1600191505092915050565b6040805190810160405280600781526020017f706172746e65720000000000000000000000000000000000000000000000000081525081565b600060036000846000191660001916815260200190815260200160002060080160008373ffffffffffffffffffffffffffffffffffffffff1673ffffffffffffffffffffffffffffffffffffffff16815260200190815260200160002054905092915050565b6000807f01000000000000000000000000000000000000000000000000000000000000000282600060208110151561192157fe5b1a7f0100000000000000000000000000000000000000000000000000000000000000027effffffffffffffffffffffffffffffffffffffffffffffffffffffffffffff19161415151561197357600080fd5b600260009054906101000a900473ffffffffffffffffffffffffffffffffffffffff1673ffffffffffffffffffffffffffffffffffffffff166370a0823160036000856000191660001916815260200190815260200160002060040160009054906101000a900473ffffffffffffffffffffffffffffffffffffffff166040518263ffffffff167c0100000000000000000000000000000000000000000000000000000000028152600401808273ffffffffffffffffffffffffffffffffffffffff1673ffffffffffffffffffffffffffffffffffffffff168152602001915050602060405180830381600087803b158015611a6e57600080fd5b505af1158015611a82573d6000803e3d6000fd5b505050506040513d6020811015611a9857600080fd5b81019080805190602001909291905050509050919050565b6000600360008360001916600019168152602001908152602001600020600301549050919050565b6000807f010000000000000000000000000000000000000000000000000000000000000002836000602081101515611b0c57fe5b1a7f0100000000000000000000000000000000000000000000000000000000000000027effffffffffffffffffffffffffffffffffffffffffffffffffffffffffffff191614151515611b5e57600080fd5b60007f010000000000000000000000000000000000000000000000000000000000000002826000602081101515611b9157fe5b1a7f0100000000000000000000000000000000000000000000000000000000000000027effffffffffffffffffffffffffffffffffffffffffffffffffffffffffffff191614151515611be357600080fd5b600360008460001916600019168152602001908152602001600020600a016000836000191660001916815260200190815260200160002060009054906101000a900460ff16905092915050565b6000807f010000000000000000000000000000000000000000000000000000000000000002836000602081101515611c6457fe5b1a7f0100000000000000000000000000000000000000000000000000000000000000027effffffffffffffffffffffffffffffffffffffffffffffffffffffffffffff191614151515611cb657600080fd5b60007f010000000000000000000000000000000000000000000000000000000000000002826000602081101515611ce957fe5b1a7f0100000000000000000000000000000000000000000000000000000000000000027effffffffffffffffffffffffffffffffffffffffffffffffffffffffffffff191614151515611d3b57600080fd5b600360008460001916600019168152602001908152602001600020600b016000836000191660001916815260200190815260200160002060009054906101000a900460ff16905092915050565b611dc7336040805190810160405280600581526020017f61646d696e000000000000000000000000000000000000000000000000000000815250610c28565b611dd182826128df565b5050565b6000809054906101000a900473ffffffffffffffffffffffffffffffffffffffff1681565b611e39336040805190810160405280600581526020017f61646d696e000000000000000000000000000000000000000000000000000000815250610c28565b611e438282612a30565b5050565b6040805190810160405280600581526020017f61646d696e00000000000000000000000000000000000000000000000000000081525081565b6000600360008360001916600019168152602001908152602001600020600601549050919050565b60006040805190810160405280600781526020017f706172746e657200000000000000000000000000000000000000000000000000815250611eea3382610c28565b60007f010000000000000000000000000000000000000000000000000000000000000002846000602081101515611f1d57fe5b1a7f0100000000000000000000000000000000000000000000000000000000000000027effffffffffffffffffffffffffffffffffffffffffffffffffffffffffffff191614151515611f6f57600080fd5b60007f010000000000000000000000000000000000000000000000000000000000000002836000602081101515611fa257fe5b1a7f0100000000000000000000000000000000000000000000000000000000000000027effffffffffffffffffffffffffffffffffffffffffffffffffffffffffffff191614151515611ff457600080fd5b6000600360008660001916600019168152602001908152602001600020600601541415151561202257600080fd5b60001515600360008660001916600019168152602001908152602001600020600a016000856000191660001916815260200190815260200160002060009054906101000a900460ff16151514151561207957600080fd5b6001600360008660001916600019168152602001908152602001600020600a016000856000191660001916815260200190815260200160002060006101000a81548160ff0219169083151502179055507f09a64fe527d2efe65dbc7c842c4e59fc22b4b3d117dc542be42122e16185dcd984843360405180846000191660001916815260200183600019166000191681526020018273ffffffffffffffffffffffffffffffffffffffff1673ffffffffffffffffffffffffffffffffffffffff168152602001935050505060405180910390a1600191505092915050565b6000809054906101000a900473ffffffffffffffffffffffffffffffffffffffff1673ffffffffffffffffffffffffffffffffffffffff163373ffffffffffffffffffffffffffffffffffffffff161415156121b257600080fd5b600073ffffffffffffffffffffffffffffffffffffffff168173ffffffffffffffffffffffffffffffffffffffff16141515156121ee57600080fd5b8073ffffffffffffffffffffffffffffffffffffffff166000809054906101000a900473ffffffffffffffffffffffffffffffffffffffff1673ffffffffffffffffffffffffffffffffffffffff167f8be0079c531659141344cd1fd0a4f28419497f9722a3daafe3b4186f6b6457e060405160405180910390a3806000806101000a81548173ffffffffffffffffffffffffffffffffffffffff021916908373ffffffffffffffffffffffffffffffffffffffff16021790555050565b6000806040805190810160405280600781526020017f706172746e6572000000000000000000000000000000000000000000000000008152506122ef3382610c28565b60007f0100000000000000000000000000000000000000000000000000000000000000028c600060208110151561232257fe5b1a7f0100000000000000000000000000000000000000000000000000000000000000027effffffffffffffffffffffffffffffffffffffffffffffffffffffffffffff19161415151561237457600080fd5b600073ffffffffffffffffffffffffffffffffffffffff168b73ffffffffffffffffffffffffffffffffffffffff16141515156123b057600080fd5b60007f0100000000000000000000000000000000000000000000000000000000000000028a60006020811015156123e357fe5b1a7f0100000000000000000000000000000000000000000000000000000000000000027effffffffffffffffffffffffffffffffffffffffffffffffffffffffffffff19161415151561243557600080fd5b60007f01000000000000000000000000000000000000000000000000000000000000000289600060208110151561246857fe5b1a7f0100000000000000000000000000000000000000000000000000000000000000027effffffffffffffffffffffffffffffffffffffffffffffffffffffffffffff1916141515156124ba57600080fd5b60007f0100000000000000000000000000000000000000000000000000000000000000028860006020811015156124ed57fe5b1a7f0100000000000000000000000000000000000000000000000000000000000000027effffffffffffffffffffffffffffffffffffffffffffffffffffffffffffff19161415151561253f57600080fd5b60008611151561254e57600080fd5b600073ffffffffffffffffffffffffffffffffffffffff168573ffffffffffffffffffffffffffffffffffffffff161415151561258a57600080fd5b6000600360008e60001916600019168152602001908152602001600020600601541415156125b757600080fd5b88600360008e60001916600019168152602001908152602001600020600501816000191690555086600360008e600019166000191681526020019081526020016000206000018190555087600360008e6000191660001916815260200190815260200160002060070181600019169055508a600360008e6000191660001916815260200190815260200160002060020160006101000a81548173ffffffffffffffffffffffffffffffffffffffff021916908373ffffffffffffffffffffffffffffffffffffffff16021790555089600360008e60001916600019168152602001908152602001600020600301816000191690555085600360008e600019166000191681526020019081526020016000206001018190555084600360008e6000191660001916815260200190815260200160002060040160006101000a81548173ffffffffffffffffffffffffffffffffffffffff021916908373ffffffffffffffffffffffffffffffffffffffff16021790555042600360008e6000191660001916815260200190815260200160002060060181905550600091505b83518260ff1610156127d7576001600360008e60001916600019168152602001908152602001600020600a016000868560ff1681518110151561279357fe5b906020019060200201516000191660001916815260200190815260200160002060006101000a81548160ff0219169083151502179055508180600101925050612754565b7f8f70fc631c6fdceefe16eb6c8f80f4a3301fabf2eded0ea34207e8582f95be5e8c8b3360405180846000191660001916815260200183600019166000191681526020018273ffffffffffffffffffffffffffffffffffffffff1673ffffffffffffffffffffffffffffffffffffffff168152602001935050505060405180910390a16001925050509998505050505050505050565b6128778282612886565b151561288257600080fd5b5050565b60008260000160008373ffffffffffffffffffffffffffffffffffffffff1673ffffffffffffffffffffffffffffffffffffffff16815260200190815260200160002060009054906101000a900460ff16905092915050565b61295c826001836040518082805190602001908083835b60208310151561291b57805182526020820191506020810190506020830392506128f6565b6001836020036101000a0380198251168184511680821785525050505050509050019150509081526020016040518091039020612b8190919063ffffffff16565b7fd211483f91fc6eff862467f8de606587a30c8fc9981056f051b897a418df803a8282604051808373ffffffffffffffffffffffffffffffffffffffff1673ffffffffffffffffffffffffffffffffffffffff16815260200180602001828103825283818151815260200191508051906020019080838360005b838110156129f15780820151818401526020810190506129d6565b50505050905090810190601f168015612a1e5780820380516001836020036101000a031916815260200191505b50935050505060405180910390a15050565b612aad826001836040518082805190602001908083835b602083101515612a6c5780518252602082019150602081019050602083039250612a47565b6001836020036101000a0380198251168184511680821785525050505050509050019150509081526020016040518091039020612bdf90919063ffffffff16565b7fbfec83d64eaa953f2708271a023ab9ee82057f8f3578d548c1a4ba0b5b7004898282604051808373ffffffffffffffffffffffffffffffffffffffff1673ffffffffffffffffffffffffffffffffffffffff16815260200180602001828103825283818151815260200191508051906020019080838360005b83811015612b42578082015181840152602081019050612b27565b50505050905090810190601f168015612b6f5780820380516001836020036101000a031916815260200191505b50935050505060405180910390a15050565b60008260000160008373ffffffffffffffffffffffffffffffffffffffff1673ffffffffffffffffffffffffffffffffffffffff16815260200190815260200160002060006101000a81548160ff0219169083151502179055505050565b60018260000160008373ffffffffffffffffffffffffffffffffffffffff1673ffffffffffffffffffffffffffffffffffffffff16815260200190815260200160002060006101000a81548160ff02191690831515021790555050505600a165627a7a72305820a65fd2ec15381d0cc90b232b1fa29743c3f339139fae15fc44fff6110c3147580029",
  "source": "pragma solidity ^0.4.0;\n\nimport \"./KarmaCoin.sol\";\nimport \"./ownership/PbOwnable.sol\";\nimport \"./ownership/rbac/RBAC.sol\";\n\ncontract ScholarshipContract is PbOwnable, RBAC {\n\n\tKarmaCoin public karmaCoin;\n\n\tstruct Scholarship {\n\t\tuint256 prerequisite;\n\t\tuint256 transactionLimit;\n\t\taddress owner;\n\t\tbytes32 _type;\n\t\taddress walletAddress;\n\t\tbytes32 title;\n\t\tuint256 timestamp;\n\t\tbytes32 description;\n\t\tmapping(address => uint256) participants;\n\t\taddress[] participantIndex;\n\t\tmapping(bytes32 => bool) allowedCollections;\n\t\tmapping(bytes32 => bool) allowedQuestions;\n\t}\n\n\tfunction ScholarshipContract(\n\t\tKarmaCoin _karma\n\t) {\n\t\tkarmaCoin = _karma;\n\t}\n\n\tevent ScholarshipCreate(bytes32 _id, bytes32 _type, address pbNode);\n\tevent ScholarshipJoin(bytes32 _id, address _participantAddress, address pbNode);\n\tevent ScholarshipAddCollection(bytes32 _id, bytes32 _collectionId, address pbNode);\n\tevent ScholarshipAddQuestion(bytes32 _id, bytes32 _questionId, address pbNode);\n\tevent ScholarshipDrop(bytes32 _id, address _participantAddress, address pbNode);\n\n\tmapping(bytes32 => Scholarship) public scholarships;\n\n\tfunction create(bytes32 _id, address _ownerAddress, bytes32 _type, bytes32 _title, bytes32 _description, uint256 _prerequisite, uint256 _transactionLimit, address _walletAddress, bytes32[] _allowedCollections) public onlyRole(ROLE_PARTNER) returns (bool) {\n\t\trequire(_id[0] != 0);\n\t\trequire(_ownerAddress != address(0));\n\t\trequire(_type[0] != 0);\n\t\trequire(_title[0] != 0);\n\t\trequire(_description[0] != 0);\n\t\trequire(_transactionLimit > 0);\n\t\trequire(_walletAddress != address(0));\n\t\trequire(scholarships[_id].timestamp == 0);\n\n\t\tscholarships[_id].title = _title;\n\t\tscholarships[_id].prerequisite = _prerequisite;\n\t\tscholarships[_id].description = _description;\n\t\tscholarships[_id].owner = _ownerAddress;\n\t\tscholarships[_id]._type = _type;\n\t\tscholarships[_id].transactionLimit = _transactionLimit;\n\t\tscholarships[_id].walletAddress = _walletAddress;\n\t\tscholarships[_id].timestamp = now;\n\t\t// Map _assessmentRules array to contract variables\n\t\tfor (uint8 i = 0; i < _allowedCollections.length; i++) {\n\t\t\tscholarships[_id].allowedCollections[_allowedCollections[i]] = true;\n\t\t}\n\t\tScholarshipCreate(_id, _type, msg.sender);\n\t\treturn true;\n\t}\n\n\tfunction getWalletAddress(bytes32 _id) public view returns (address) {\n\t\treturn scholarships[_id].walletAddress;\n\t}\n\n\tfunction join(bytes32 _id, address _participantAddress) public onlyRole(ROLE_PARTNER) returns (bool) {\n\t\trequire(_id[0] != 0);\n\t\trequire(scholarships[_id].timestamp != 0);\n\t\trequire(_participantAddress != address(0));\n\t\t// Make sure this participant does not already exist for this scholarship\n\t\trequire(scholarships[_id].participants[_participantAddress] == 0);\n\n\t\tscholarships[_id].participants[_participantAddress] = now;\n\t\tscholarships[_id].participantIndex.push(_participantAddress);\n\t\tScholarshipJoin(_id, _participantAddress, msg.sender);\n\t\treturn true;\n\t}\n\n\tfunction addCollection(bytes32 _id, bytes32 _collectionId) public onlyRole(ROLE_PARTNER) returns (bool) {\n\t\trequire(_id[0] != 0);\n\t\trequire(_collectionId[0] != 0);\n\t\trequire(scholarships[_id].timestamp != 0);\n\t\trequire(scholarships[_id].allowedCollections[_collectionId] == false);\n\n\t\tscholarships[_id].allowedCollections[_collectionId] = true;\n\t\tScholarshipAddCollection(_id, _collectionId, msg.sender);\n\t\treturn true;\n\t}\n\n\tfunction addQuestion(bytes32 _id, bytes32 _questionId) public onlyRole(ROLE_PARTNER) returns (bool) {\n\t\trequire(_id[0] != 0);\n\t\trequire(_questionId[0] != 0);\n\t\trequire(scholarships[_id].timestamp != 0);  // scholarship exists\n\t\trequire(scholarships[_id].allowedQuestions[_questionId] == false);  // question does not already exist.\n\n\t\tscholarships[_id].allowedQuestions[_questionId] = true;\n\t\tScholarshipAddQuestion(_id, _questionId, msg.sender);\n\t\treturn true;\n\t}\n\n\tfunction getAllowedCollection(bytes32 _id, bytes32 _collectionId) public view returns (bool) {\n\t\trequire(_id[0] != 0);\n\t\trequire(_collectionId[0] != 0);\n\t\treturn scholarships[_id].allowedCollections[_collectionId];\n\t}\n\n\tfunction getAllowedQuestion(bytes32 _id, bytes32 _questionId) public view returns (bool) {\n\t\trequire(_id[0] != 0);\n\t\trequire(_questionId[0] != 0);\n\t\treturn scholarships[_id].allowedQuestions[_questionId];\n\t}\n\n\tfunction drop(bytes32 _id, address _participantAddress) public onlyRole(ROLE_PARTNER) returns (bool) {\n\t\trequire(_id[0] != 0);\n\t\trequire(scholarships[_id].timestamp != 0);\n\t\trequire(_participantAddress != address(0));\n\t\trequire(scholarships[_id].participants[_participantAddress] != 0);\n\n\t\tdelete scholarships[_id].participants[_participantAddress];\n\t\tScholarshipDrop(_id, _participantAddress, msg.sender);\n\t\treturn true;\n\t}\n\n\tfunction getScholarshipData(bytes32 _id) public view returns (bytes32, bytes32, bytes32, address, address, uint256) {\n\t\trequire(_id[0] != 0);\n\t\treturn (scholarships[_id].title, scholarships[_id]._type, scholarships[_id].description, scholarships[_id].walletAddress, scholarships[_id].owner, scholarships[_id].timestamp);\n\t}\n\n\tfunction getTimestamp(bytes32 _id) public view returns (uint256) {\n\t\treturn scholarships[_id].timestamp;\n\t}\n\n\tfunction getParticipant(bytes32 _id, address _participantAddress) public view returns (uint256) {\n\t\treturn scholarships[_id].participants[_participantAddress];\n\t}\n\n\tfunction getType(bytes32 _id) public view returns (bytes32) {\n\t\treturn scholarships[_id]._type;\n\t}\n\n\tfunction balanceOf(bytes32 _id) public view returns (uint256) {\n\t\trequire(_id[0] != 0);\n\t\treturn karmaCoin.balanceOf(scholarships[_id].walletAddress);\n\t}\n\n\tmodifier hasScholarship(bytes32 _id, address _participantAddress) {\n\t\trequire(scholarships[_id].participants[_participantAddress] != 0);\n\t\t_;\n\t}\n\n}\n",
  "sourcePath": "/Users/aakash/WebstormProjects/pbether/contracts/ScholarshipContract.sol",
  "compiler": {
    "name": "solc",
    "version": "0.4.23+commit.124ca40d.Emscripten.clang"
  },
  "schemaVersion": "2.0.0",
  "updatedAt": "2018-06-12T00:50:30.089Z"
}